{
	"data": {
		"bytecode": {
			"linkReferences": {},
			"object": "608060405234801562000010575f80fd5b50336040518060400160405280600e81526020017f557365725265636f7264734e46540000000000000000000000000000000000008152506040518060400160405280600581526020017f55524e4654000000000000000000000000000000000000000000000000000000815250815f90816200008e91906200045d565b508060019081620000a091906200045d565b5050505f73ffffffffffffffffffffffffffffffffffffffff168173ffffffffffffffffffffffffffffffffffffffff160362000116575f6040517f1e4fbdf70000000000000000000000000000000000000000000000000000000081526004016200010d919062000584565b60405180910390fd5b62000127816200013660201b60201c565b506001600e819055506200059f565b5f60075f9054906101000a900473ffffffffffffffffffffffffffffffffffffffff1690508160075f6101000a81548173ffffffffffffffffffffffffffffffffffffffff021916908373ffffffffffffffffffffffffffffffffffffffff1602179055508173ffffffffffffffffffffffffffffffffffffffff168173ffffffffffffffffffffffffffffffffffffffff167f8be0079c531659141344cd1fd0a4f28419497f9722a3daafe3b4186f6b6457e060405160405180910390a35050565b5f81519050919050565b7f4e487b71000000000000000000000000000000000000000000000000000000005f52604160045260245ffd5b7f4e487b71000000000000000000000000000000000000000000000000000000005f52602260045260245ffd5b5f60028204905060018216806200027557607f821691505b6020821081036200028b576200028a62000230565b5b50919050565b5f819050815f5260205f209050919050565b5f6020601f8301049050919050565b5f82821b905092915050565b5f60088302620002ef7fffffffffffffffffffffffffffffffffffffffffffffffffffffffffffffffff82620002b2565b620002fb8683620002b2565b95508019841693508086168417925050509392505050565b5f819050919050565b5f819050919050565b5f620003456200033f620003398462000313565b6200031c565b62000313565b9050919050565b5f819050919050565b620003608362000325565b620003786200036f826200034c565b848454620002be565b825550505050565b5f90565b6200038e62000380565b6200039b81848462000355565b505050565b5b81811015620003c257620003b65f8262000384565b600181019050620003a1565b5050565b601f8211156200041157620003db8162000291565b620003e684620002a3565b81016020851015620003f6578190505b6200040e6200040585620002a3565b830182620003a0565b50505b505050565b5f82821c905092915050565b5f620004335f198460080262000416565b1980831691505092915050565b5f6200044d838362000422565b9150826002028217905092915050565b6200046882620001f9565b67ffffffffffffffff81111562000484576200048362000203565b5b6200049082546200025d565b6200049d828285620003c6565b5f60209050601f831160018114620004d3575f8415620004be578287015190505b620004ca858262000440565b86555062000539565b601f198416620004e38662000291565b5f5b828110156200050c57848901518255600182019150602085019450602081019050620004e5565b868310156200052c578489015162000528601f89168262000422565b8355505b6001600288020188555050505b505050505050565b5f73ffffffffffffffffffffffffffffffffffffffff82169050919050565b5f6200056c8262000541565b9050919050565b6200057e8162000560565b82525050565b5f602082019050620005995f83018462000573565b92915050565b61550c80620005ad5f395ff3fe608060405234801561000f575f80fd5b50600436106101c2575f3560e01c8063715018a6116100f7578063c87b56dd11610095578063e985e9c51161006f578063e985e9c514610510578063f01365c414610540578063f2fde38b1461055c578063f7928fb314610578576101c2565b8063c87b56dd146104a8578063d0397245146104d8578063e4ee8755146104f4576101c2565b8063a22cb465116100d1578063a22cb46514610438578063af33f3bd14610454578063b043e03214610470578063b88d4fde1461048c576101c2565b8063715018a6146103f25780638da5cb5b146103fc57806395d89b411461041a576101c2565b806323b872dd1161016457806342842e0e1161013e57806342842e0e146103465780636352211e146103625780636af4f6011461039257806370a08231146103c2576101c2565b806323b872dd146102ca5780632e26376a146102e65780633bd1fb9414610316576101c2565b8063095ea7b3116101a0578063095ea7b3146102445780630b7157bb146102605780630fe258b41461027c57806315dad91a14610298576101c2565b806301ffc9a7146101c657806306fdde03146101f6578063081812fc14610214575b5f80fd5b6101e060048036038101906101db9190613dbe565b6105a8565b6040516101ed9190613e03565b60405180910390f35b6101fe610608565b60405161020b9190613ea6565b60405180910390f35b61022e60048036038101906102299190613ef9565b610697565b60405161023b9190613f63565b60405180910390f35b61025e60048036038101906102599190613fa6565b6106b2565b005b61027a60048036038101906102759190614110565b6106c8565b005b61029660048036038101906102919190614225565b610ade565b005b6102b260048036038101906102ad9190614225565b610b31565b6040516102c1939291906145ef565b60405180910390f35b6102e460048036038101906102df9190614639565b611905565b005b61030060048036038101906102fb9190614225565b611a04565b60405161030d9190613e03565b60405180910390f35b610330600480360381019061032b9190613ef9565b611a58565b60405161033d9190614732565b60405180910390f35b610360600480360381019061035b9190614639565b611e43565b005b61037c60048036038101906103779190613ef9565b611e62565b6040516103899190613f63565b60405180910390f35b6103ac60048036038101906103a79190614225565b611e73565b6040516103b99190613e03565b60405180910390f35b6103dc60048036038101906103d79190614225565b611ec7565b6040516103e99190614761565b60405180910390f35b6103fa611f7d565b005b610404611f90565b6040516104119190613f63565b60405180910390f35b610422611fb8565b60405161042f9190613ea6565b60405180910390f35b610452600480360381019061044d91906147a4565b612048565b005b61046e600480360381019061046991906147e2565b61205e565b005b61048a6004803603810190610485919061483c565b6120b5565b005b6104a660048036038101906104a191906149dd565b6121e5565b005b6104c260048036038101906104bd9190613ef9565b61220a565b6040516104cf9190613ea6565b60405180910390f35b6104f260048036038101906104ed91906147e2565b612315565b005b61050e60048036038101906105099190614225565b61236c565b005b61052a60048036038101906105259190614a5d565b6123bf565b6040516105379190613e03565b60405180910390f35b61055a60048036038101906105559190614110565b61244d565b005b61057660048036038101906105719190614225565b612825565b005b610592600480360381019061058d9190613ef9565b6128a9565b60405161059f9190614b44565b60405180910390f35b5f634906490660e01b7bffffffffffffffffffffffffffffffffffffffffffffffffffffffff1916827bffffffffffffffffffffffffffffffffffffffffffffffffffffffff19161480610601575061060082612c94565b5b9050919050565b60605f805461061690614b91565b80601f016020809104026020016040519081016040528092919081815260200182805461064290614b91565b801561068d5780601f106106645761010080835404028352916020019161068d565b820191905f5260205f20905b81548152906001019060200180831161067057829003601f168201915b5050505050905090565b5f6106a182612d75565b506106ab82612dfb565b9050919050565b6106c482826106bf612e34565b612e3b565b5050565b5f600b5f3373ffffffffffffffffffffffffffffffffffffffff1673ffffffffffffffffffffffffffffffffffffffff1681526020019081526020015f20805461071190614b91565b905011610753576040517f08c379a000000000000000000000000000000000000000000000000000000000815260040161074a90614c31565b60405180910390fd5b5f73ffffffffffffffffffffffffffffffffffffffff168673ffffffffffffffffffffffffffffffffffffffff16036107c1576040517f08c379a00000000000000000000000000000000000000000000000000000000081526004016107b890614c99565b60405180910390fd5b5f600e549050600e5f8154809291906107d990614ce4565b91905055506040518060c00160405280878152602001600b5f3373ffffffffffffffffffffffffffffffffffffffff1673ffffffffffffffffffffffffffffffffffffffff1681526020019081526020015f20805461083790614b91565b80601f016020809104026020016040519081016040528092919081815260200182805461086390614b91565b80156108ae5780601f10610885576101008083540402835291602001916108ae565b820191905f5260205f20905b81548152906001019060200180831161089157829003601f168201915b505050505081526020018681526020018581526020018481526020018381525060095f8381526020019081526020015f205f820151815f0190816108f29190614ec8565b5060208201518160010190816109089190614ec8565b50604082015181600201908161091e9190614ec8565b5060608201518160030190816109349190614ec8565b50608082015181600401908161094a9190614ec8565b5060a08201518160050190816109609190614ec8565b5090505061096e8782612e4d565b600c5f8873ffffffffffffffffffffffffffffffffffffffff1673ffffffffffffffffffffffffffffffffffffffff1681526020019081526020015f2060405180604001604052806001808111156109c9576109c8614f97565b5b815260200183815250908060018154018082558091505060019003905f5260205f2090600202015f909190919091505f820151815f015f6101000a81548160ff02191690836001811115610a2057610a1f614f97565b5b02179055506020820151816001015550503373ffffffffffffffffffffffffffffffffffffffff168773ffffffffffffffffffffffffffffffffffffffff16827ffbc896ffbf3cf61fed3d39edefd60c02b1c49db9c1c110a37df9634da6a158ce600b5f3373ffffffffffffffffffffffffffffffffffffffff1673ffffffffffffffffffffffffffffffffffffffff1681526020019081526020015f2089604051610acd929190615045565b60405180910390a450505050505050565b610ae6612e6a565b600b5f8273ffffffffffffffffffffffffffffffffffffffff1673ffffffffffffffffffffffffffffffffffffffff1681526020019081526020015f205f610b2e9190613c65565b50565b610b39613ca2565b606080600d5f8573ffffffffffffffffffffffffffffffffffffffff1673ffffffffffffffffffffffffffffffffffffffff1681526020019081526020015f206040518060a00160405290815f82018054610b9390614b91565b80601f0160208091040260200160405190810160405280929190818152602001828054610bbf90614b91565b8015610c0a5780601f10610be157610100808354040283529160200191610c0a565b820191905f5260205f20905b815481529060010190602001808311610bed57829003601f168201915b50505050508152602001600182018054610c2390614b91565b80601f0160208091040260200160405190810160405280929190818152602001828054610c4f90614b91565b8015610c9a5780601f10610c7157610100808354040283529160200191610c9a565b820191905f5260205f20905b815481529060010190602001808311610c7d57829003601f168201915b50505050508152602001600282018054610cb390614b91565b80601f0160208091040260200160405190810160405280929190818152602001828054610cdf90614b91565b8015610d2a5780601f10610d0157610100808354040283529160200191610d2a565b820191905f5260205f20905b815481529060010190602001808311610d0d57829003601f168201915b50505050508152602001600382018054610d4390614b91565b80601f0160208091040260200160405190810160405280929190818152602001828054610d6f90614b91565b8015610dba5780601f10610d9157610100808354040283529160200191610dba565b820191905f5260205f20905b815481529060010190602001808311610d9d57829003601f168201915b50505050508152602001600482018054610dd390614b91565b80601f0160208091040260200160405190810160405280929190818152602001828054610dff90614b91565b8015610e4a5780601f10610e2157610100808354040283529160200191610e4a565b820191905f5260205f20905b815481529060010190602001808311610e2d57829003601f168201915b50505050508152505092505f600c5f8673ffffffffffffffffffffffffffffffffffffffff1673ffffffffffffffffffffffffffffffffffffffff1681526020019081526020015f20805480602002602001604051908101604052809291908181526020015f905b82821015610f25578382905f5260205f2090600202016040518060400160405290815f82015f9054906101000a900460ff166001811115610ef657610ef5614f97565b5b6001811115610f0857610f07614f97565b5b815260200160018201548152505081526020019060010190610eb2565b5050505090505f805f5b8351811015610ffe575f6001811115610f4b57610f4a614f97565b5b848281518110610f5e57610f5d61507a565b5b60200260200101515f01516001811115610f7b57610f7a614f97565b5b03610f93578280610f8b906150b3565b935050610feb565b600180811115610fa657610fa5614f97565b5b848281518110610fb957610fb861507a565b5b60200260200101515f01516001811115610fd657610fd5614f97565b5b03610fea578180610fe6906150b3565b9250505b5b8080610ff690614ce4565b915050610f2f565b508160ff1667ffffffffffffffff81111561101c5761101b613fec565b5b60405190808252806020026020018201604052801561105557816020015b611042613cd1565b81526020019060019003908161103a5790505b5094508060ff1667ffffffffffffffff81111561107557611074613fec565b5b6040519080825280602002602001820160405280156110ae57816020015b61109b613d07565b8152602001906001900390816110935790505b5093505f805f5b85518110156118f8575f60018111156110d1576110d0614f97565b5b8682815181106110e4576110e361507a565b5b60200260200101515f0151600181111561110157611100614f97565b5b036114d35760085f87838151811061111c5761111b61507a565b5b60200260200101516020015181526020019081526020015f206040518060c00160405290815f8201805461114f90614b91565b80601f016020809104026020016040519081016040528092919081815260200182805461117b90614b91565b80156111c65780601f1061119d576101008083540402835291602001916111c6565b820191905f5260205f20905b8154815290600101906020018083116111a957829003601f168201915b505050505081526020016001820180546111df90614b91565b80601f016020809104026020016040519081016040528092919081815260200182805461120b90614b91565b80156112565780601f1061122d57610100808354040283529160200191611256565b820191905f5260205f20905b81548152906001019060200180831161123957829003601f168201915b5050505050815260200160028201805461126f90614b91565b80601f016020809104026020016040519081016040528092919081815260200182805461129b90614b91565b80156112e65780601f106112bd576101008083540402835291602001916112e6565b820191905f5260205f20905b8154815290600101906020018083116112c957829003601f168201915b505050505081526020016003820180546112ff90614b91565b80601f016020809104026020016040519081016040528092919081815260200182805461132b90614b91565b80156113765780601f1061134d57610100808354040283529160200191611376565b820191905f5260205f20905b81548152906001019060200180831161135957829003601f168201915b5050505050815260200160048201805461138f90614b91565b80601f01602080910402602001604051908101604052809291908181526020018280546113bb90614b91565b80156114065780601f106113dd57610100808354040283529160200191611406565b820191905f5260205f20905b8154815290600101906020018083116113e957829003601f168201915b5050505050815260200160058201805461141f90614b91565b80601f016020809104026020016040519081016040528092919081815260200182805461144b90614b91565b80156114965780601f1061146d57610100808354040283529160200191611496565b820191905f5260205f20905b81548152906001019060200180831161147957829003601f168201915b505050505081525050888460ff16815181106114b5576114b461507a565b5b602002602001018190525082806114cb906150b3565b9350506118e5565b6001808111156114e6576114e5614f97565b5b8682815181106114f9576114f861507a565b5b60200260200101515f0151600181111561151657611515614f97565b5b036118e45760095f8783815181106115315761153061507a565b5b60200260200101516020015181526020019081526020015f206040518060c00160405290815f8201805461156490614b91565b80601f016020809104026020016040519081016040528092919081815260200182805461159090614b91565b80156115db5780601f106115b2576101008083540402835291602001916115db565b820191905f5260205f20905b8154815290600101906020018083116115be57829003601f168201915b505050505081526020016001820180546115f490614b91565b80601f016020809104026020016040519081016040528092919081815260200182805461162090614b91565b801561166b5780601f106116425761010080835404028352916020019161166b565b820191905f5260205f20905b81548152906001019060200180831161164e57829003601f168201915b5050505050815260200160028201805461168490614b91565b80601f01602080910402602001604051908101604052809291908181526020018280546116b090614b91565b80156116fb5780601f106116d2576101008083540402835291602001916116fb565b820191905f5260205f20905b8154815290600101906020018083116116de57829003601f168201915b5050505050815260200160038201805461171490614b91565b80601f016020809104026020016040519081016040528092919081815260200182805461174090614b91565b801561178b5780601f106117625761010080835404028352916020019161178b565b820191905f5260205f20905b81548152906001019060200180831161176e57829003601f168201915b505050505081526020016004820180546117a490614b91565b80601f01602080910402602001604051908101604052809291908181526020018280546117d090614b91565b801561181b5780601f106117f25761010080835404028352916020019161181b565b820191905f5260205f20905b8154815290600101906020018083116117fe57829003601f168201915b5050505050815260200160058201805461183490614b91565b80601f016020809104026020016040519081016040528092919081815260200182805461186090614b91565b80156118ab5780601f10611882576101008083540402835291602001916118ab565b820191905f5260205f20905b81548152906001019060200180831161188e57829003601f168201915b505050505081525050878360ff16815181106118ca576118c961507a565b5b602002602001018190525081806118e0906150b3565b9250505b5b80806118f090614ce4565b9150506110b5565b5050505050509193909250565b5f73ffffffffffffffffffffffffffffffffffffffff168273ffffffffffffffffffffffffffffffffffffffff1603611975575f6040517f64a0ae9200000000000000000000000000000000000000000000000000000000815260040161196c9190613f63565b60405180910390fd5b5f6119888383611983612e34565b612ef1565b90508373ffffffffffffffffffffffffffffffffffffffff168173ffffffffffffffffffffffffffffffffffffffff16146119fe578382826040517f64283d7b0000000000000000000000000000000000000000000000000000000081526004016119f5939291906150db565b60405180910390fd5b50505050565b5f80600a5f8473ffffffffffffffffffffffffffffffffffffffff1673ffffffffffffffffffffffffffffffffffffffff1681526020019081526020015f208054611a4e90614b91565b9050119050919050565b611a60613d07565b5f60095f8481526020019081526020015f205f018054611a7f90614b91565b905011611ac1576040517f08c379a0000000000000000000000000000000000000000000000000000000008152600401611ab89061515a565b60405180910390fd5b60095f8381526020019081526020015f206040518060c00160405290815f82018054611aec90614b91565b80601f0160208091040260200160405190810160405280929190818152602001828054611b1890614b91565b8015611b635780601f10611b3a57610100808354040283529160200191611b63565b820191905f5260205f20905b815481529060010190602001808311611b4657829003601f168201915b50505050508152602001600182018054611b7c90614b91565b80601f0160208091040260200160405190810160405280929190818152602001828054611ba890614b91565b8015611bf35780601f10611bca57610100808354040283529160200191611bf3565b820191905f5260205f20905b815481529060010190602001808311611bd657829003601f168201915b50505050508152602001600282018054611c0c90614b91565b80601f0160208091040260200160405190810160405280929190818152602001828054611c3890614b91565b8015611c835780601f10611c5a57610100808354040283529160200191611c83565b820191905f5260205f20905b815481529060010190602001808311611c6657829003601f168201915b50505050508152602001600382018054611c9c90614b91565b80601f0160208091040260200160405190810160405280929190818152602001828054611cc890614b91565b8015611d135780601f10611cea57610100808354040283529160200191611d13565b820191905f5260205f20905b815481529060010190602001808311611cf657829003601f168201915b50505050508152602001600482018054611d2c90614b91565b80601f0160208091040260200160405190810160405280929190818152602001828054611d5890614b91565b8015611da35780601f10611d7a57610100808354040283529160200191611da3565b820191905f5260205f20905b815481529060010190602001808311611d8657829003601f168201915b50505050508152602001600582018054611dbc90614b91565b80601f0160208091040260200160405190810160405280929190818152602001828054611de890614b91565b8015611e335780601f10611e0a57610100808354040283529160200191611e33565b820191905f5260205f20905b815481529060010190602001808311611e1657829003601f168201915b5050505050815250509050919050565b611e5d83838360405180602001604052805f8152506121e5565b505050565b5f611e6c82612d75565b9050919050565b5f80600b5f8473ffffffffffffffffffffffffffffffffffffffff1673ffffffffffffffffffffffffffffffffffffffff1681526020019081526020015f208054611ebd90614b91565b9050119050919050565b5f8073ffffffffffffffffffffffffffffffffffffffff168273ffffffffffffffffffffffffffffffffffffffff1603611f38575f6040517f89c62b64000000000000000000000000000000000000000000000000000000008152600401611f2f9190613f63565b60405180910390fd5b60035f8373ffffffffffffffffffffffffffffffffffffffff1673ffffffffffffffffffffffffffffffffffffffff1681526020019081526020015f20549050919050565b611f85612e6a565b611f8e5f6130fc565b565b5f60075f9054906101000a900473ffffffffffffffffffffffffffffffffffffffff16905090565b606060018054611fc790614b91565b80601f0160208091040260200160405190810160405280929190818152602001828054611ff390614b91565b801561203e5780601f106120155761010080835404028352916020019161203e565b820191905f5260205f20905b81548152906001019060200180831161202157829003601f168201915b5050505050905090565b61205a612053612e34565b83836131bf565b5050565b612066612e6a565b80600b5f8473ffffffffffffffffffffffffffffffffffffffff1673ffffffffffffffffffffffffffffffffffffffff1681526020019081526020015f2090816120b09190614ec8565b505050565b6040518060a0016040528086815260200185815260200184815260200183815260200182815250600d5f3373ffffffffffffffffffffffffffffffffffffffff1673ffffffffffffffffffffffffffffffffffffffff1681526020019081526020015f205f820151815f01908161212c9190614ec8565b5060208201518160010190816121429190614ec8565b5060408201518160020190816121589190614ec8565b50606082015181600301908161216e9190614ec8565b5060808201518160040190816121849190614ec8565b509050503373ffffffffffffffffffffffffffffffffffffffff167f5844f757d4048a08453bf1dc9d4a8a1a67df216d9cecc54d3e4f10be32adc93186868686866040516121d6959493929190615178565b60405180910390a25050505050565b6121f0848484611905565b6122046121fb612e34565b85858585613328565b50505050565b606061221582612d75565b505f60065f8481526020019081526020015f20805461223390614b91565b80601f016020809104026020016040519081016040528092919081815260200182805461225f90614b91565b80156122aa5780601f10612281576101008083540402835291602001916122aa565b820191905f5260205f20905b81548152906001019060200180831161228d57829003601f168201915b505050505090505f6122ba6134d4565b90505f8151036122ce578192505050612310565b5f825111156123025780826040516020016122ea929190615226565b60405160208183030381529060405292505050612310565b61230b846134ea565b925050505b919050565b61231d612e6a565b80600a5f8473ffffffffffffffffffffffffffffffffffffffff1673ffffffffffffffffffffffffffffffffffffffff1681526020019081526020015f2090816123679190614ec8565b505050565b612374612e6a565b600a5f8273ffffffffffffffffffffffffffffffffffffffff1673ffffffffffffffffffffffffffffffffffffffff1681526020019081526020015f205f6123bc9190613c65565b50565b5f60055f8473ffffffffffffffffffffffffffffffffffffffff1673ffffffffffffffffffffffffffffffffffffffff1681526020019081526020015f205f8373ffffffffffffffffffffffffffffffffffffffff1673ffffffffffffffffffffffffffffffffffffffff1681526020019081526020015f205f9054906101000a900460ff16905092915050565b5f600a5f3373ffffffffffffffffffffffffffffffffffffffff1673ffffffffffffffffffffffffffffffffffffffff1681526020019081526020015f20805461249690614b91565b9050116124d8576040517f08c379a00000000000000000000000000000000000000000000000000000000081526004016124cf906152b9565b60405180910390fd5b5f73ffffffffffffffffffffffffffffffffffffffff168673ffffffffffffffffffffffffffffffffffffffff1603612546576040517f08c379a000000000000000000000000000000000000000000000000000000000815260040161253d90615321565b60405180910390fd5b5f600e549050600e5f81548092919061255e90614ce4565b91905055506040518060c00160405280878152602001868152602001600a5f3373ffffffffffffffffffffffffffffffffffffffff1673ffffffffffffffffffffffffffffffffffffffff1681526020019081526020015f2080546125c290614b91565b80601f01602080910402602001604051908101604052809291908181526020018280546125ee90614b91565b80156126395780601f1061261057610100808354040283529160200191612639565b820191905f5260205f20905b81548152906001019060200180831161261c57829003601f168201915b505050505081526020018581526020018481526020018381525060085f8381526020019081526020015f205f820151815f0190816126779190614ec8565b50602082015181600101908161268d9190614ec8565b5060408201518160020190816126a39190614ec8565b5060608201518160030190816126b99190614ec8565b5060808201518160040190816126cf9190614ec8565b5060a08201518160050190816126e59190614ec8565b509050506126f38782612e4d565b600c5f8873ffffffffffffffffffffffffffffffffffffffff1673ffffffffffffffffffffffffffffffffffffffff1681526020019081526020015f2060405180604001604052805f600181111561274e5761274d614f97565b5b815260200183815250908060018154018082558091505060019003905f5260205f2090600202015f909190919091505f820151815f015f6101000a81548160ff021916908360018111156127a5576127a4614f97565b5b02179055506020820151816001015550503373ffffffffffffffffffffffffffffffffffffffff168773ffffffffffffffffffffffffffffffffffffffff16827fa7199ad442402c318a75ca3a3f4026fde9254c26fe5b35662381a8274dd71eb0876040516128149190613ea6565b60405180910390a450505050505050565b61282d612e6a565b5f73ffffffffffffffffffffffffffffffffffffffff168173ffffffffffffffffffffffffffffffffffffffff160361289d575f6040517f1e4fbdf70000000000000000000000000000000000000000000000000000000081526004016128949190613f63565b60405180910390fd5b6128a6816130fc565b50565b6128b1613cd1565b5f60085f8481526020019081526020015f205f0180546128d090614b91565b905011612912576040517f08c379a000000000000000000000000000000000000000000000000000000000815260040161290990615389565b60405180910390fd5b60085f8381526020019081526020015f206040518060c00160405290815f8201805461293d90614b91565b80601f016020809104026020016040519081016040528092919081815260200182805461296990614b91565b80156129b45780601f1061298b576101008083540402835291602001916129b4565b820191905f5260205f20905b81548152906001019060200180831161299757829003601f168201915b505050505081526020016001820180546129cd90614b91565b80601f01602080910402602001604051908101604052809291908181526020018280546129f990614b91565b8015612a445780601f10612a1b57610100808354040283529160200191612a44565b820191905f5260205f20905b815481529060010190602001808311612a2757829003601f168201915b50505050508152602001600282018054612a5d90614b91565b80601f0160208091040260200160405190810160405280929190818152602001828054612a8990614b91565b8015612ad45780601f10612aab57610100808354040283529160200191612ad4565b820191905f5260205f20905b815481529060010190602001808311612ab757829003601f168201915b50505050508152602001600382018054612aed90614b91565b80601f0160208091040260200160405190810160405280929190818152602001828054612b1990614b91565b8015612b645780601f10612b3b57610100808354040283529160200191612b64565b820191905f5260205f20905b815481529060010190602001808311612b4757829003601f168201915b50505050508152602001600482018054612b7d90614b91565b80601f0160208091040260200160405190810160405280929190818152602001828054612ba990614b91565b8015612bf45780601f10612bcb57610100808354040283529160200191612bf4565b820191905f5260205f20905b815481529060010190602001808311612bd757829003601f168201915b50505050508152602001600582018054612c0d90614b91565b80601f0160208091040260200160405190810160405280929190818152602001828054612c3990614b91565b8015612c845780601f10612c5b57610100808354040283529160200191612c84565b820191905f5260205f20905b815481529060010190602001808311612c6757829003601f168201915b5050505050815250509050919050565b5f7f80ac58cd000000000000000000000000000000000000000000000000000000007bffffffffffffffffffffffffffffffffffffffffffffffffffffffff1916827bffffffffffffffffffffffffffffffffffffffffffffffffffffffff19161480612d5e57507f5b5e139f000000000000000000000000000000000000000000000000000000007bffffffffffffffffffffffffffffffffffffffffffffffffffffffff1916827bffffffffffffffffffffffffffffffffffffffffffffffffffffffff1916145b80612d6e5750612d6d82613550565b5b9050919050565b5f80612d80836135b9565b90505f73ffffffffffffffffffffffffffffffffffffffff168173ffffffffffffffffffffffffffffffffffffffff1603612df257826040517f7e273289000000000000000000000000000000000000000000000000000000008152600401612de99190614761565b60405180910390fd5b80915050919050565b5f60045f8381526020019081526020015f205f9054906101000a900473ffffffffffffffffffffffffffffffffffffffff169050919050565b5f33905090565b612e4883838360016135f2565b505050565b612e66828260405180602001604052805f8152506137b1565b5050565b612e72612e34565b73ffffffffffffffffffffffffffffffffffffffff16612e90611f90565b73ffffffffffffffffffffffffffffffffffffffff1614612eef57612eb3612e34565b6040517f118cdaa7000000000000000000000000000000000000000000000000000000008152600401612ee69190613f63565b60405180910390fd5b565b5f80612efc846135b9565b90505f73ffffffffffffffffffffffffffffffffffffffff168373ffffffffffffffffffffffffffffffffffffffff1614612f3d57612f3c8184866137d4565b5b5f73ffffffffffffffffffffffffffffffffffffffff168173ffffffffffffffffffffffffffffffffffffffff1614612fc857612f7c5f855f806135f2565b600160035f8373ffffffffffffffffffffffffffffffffffffffff1673ffffffffffffffffffffffffffffffffffffffff1681526020019081526020015f205f82825403925050819055505b5f73ffffffffffffffffffffffffffffffffffffffff168573ffffffffffffffffffffffffffffffffffffffff161461304757600160035f8773ffffffffffffffffffffffffffffffffffffffff1673ffffffffffffffffffffffffffffffffffffffff1681526020019081526020015f205f82825401925050819055505b8460025f8681526020019081526020015f205f6101000a81548173ffffffffffffffffffffffffffffffffffffffff021916908373ffffffffffffffffffffffffffffffffffffffff160217905550838573ffffffffffffffffffffffffffffffffffffffff168273ffffffffffffffffffffffffffffffffffffffff167fddf252ad1be2c89b69c2b068fc378daa952ba7f163c4a11628f55a4df523b3ef60405160405180910390a4809150509392505050565b5f60075f9054906101000a900473ffffffffffffffffffffffffffffffffffffffff1690508160075f6101000a81548173ffffffffffffffffffffffffffffffffffffffff021916908373ffffffffffffffffffffffffffffffffffffffff1602179055508173ffffffffffffffffffffffffffffffffffffffff168173ffffffffffffffffffffffffffffffffffffffff167f8be0079c531659141344cd1fd0a4f28419497f9722a3daafe3b4186f6b6457e060405160405180910390a35050565b5f73ffffffffffffffffffffffffffffffffffffffff168273ffffffffffffffffffffffffffffffffffffffff160361322f57816040517f5b08ba180000000000000000000000000000000000000000000000000000000081526004016132269190613f63565b60405180910390fd5b8060055f8573ffffffffffffffffffffffffffffffffffffffff1673ffffffffffffffffffffffffffffffffffffffff1681526020019081526020015f205f8473ffffffffffffffffffffffffffffffffffffffff1673ffffffffffffffffffffffffffffffffffffffff1681526020019081526020015f205f6101000a81548160ff0219169083151502179055508173ffffffffffffffffffffffffffffffffffffffff168373ffffffffffffffffffffffffffffffffffffffff167f17307eab39ab6107e8899845ad3d59bd9653f200f220920489ca2b5937696c318360405161331b9190613e03565b60405180910390a3505050565b5f8373ffffffffffffffffffffffffffffffffffffffff163b11156134cd578273ffffffffffffffffffffffffffffffffffffffff1663150b7a02868685856040518563ffffffff1660e01b815260040161338694939291906153f9565b6020604051808303815f875af19250505080156133c157506040513d601f19601f820116820180604052508101906133be9190615457565b60015b613442573d805f81146133ef576040519150601f19603f3d011682016040523d82523d5f602084013e6133f4565b606091505b505f81510361343a57836040517f64a0ae920000000000000000000000000000000000000000000000000000000081526004016134319190613f63565b60405180910390fd5b805181602001fd5b63150b7a0260e01b7bffffffffffffffffffffffffffffffffffffffffffffffffffffffff1916817bffffffffffffffffffffffffffffffffffffffffffffffffffffffff1916146134cb57836040517f64a0ae920000000000000000000000000000000000000000000000000000000081526004016134c29190613f63565b60405180910390fd5b505b5050505050565b606060405180602001604052805f815250905090565b60606134f582612d75565b505f6134ff6134d4565b90505f81511161351d5760405180602001604052805f815250613548565b8061352784613897565b604051602001613538929190615226565b6040516020818303038152906040525b915050919050565b5f7f01ffc9a7000000000000000000000000000000000000000000000000000000007bffffffffffffffffffffffffffffffffffffffffffffffffffffffff1916827bffffffffffffffffffffffffffffffffffffffffffffffffffffffff1916149050919050565b5f60025f8381526020019081526020015f205f9054906101000a900473ffffffffffffffffffffffffffffffffffffffff169050919050565b808061362a57505f73ffffffffffffffffffffffffffffffffffffffff168273ffffffffffffffffffffffffffffffffffffffff1614155b1561375c575f61363984612d75565b90505f73ffffffffffffffffffffffffffffffffffffffff168373ffffffffffffffffffffffffffffffffffffffff16141580156136a357508273ffffffffffffffffffffffffffffffffffffffff168173ffffffffffffffffffffffffffffffffffffffff1614155b80156136b657506136b481846123bf565b155b156136f857826040517fa9fbf51f0000000000000000000000000000000000000000000000000000000081526004016136ef9190613f63565b60405180910390fd5b811561375a57838573ffffffffffffffffffffffffffffffffffffffff168273ffffffffffffffffffffffffffffffffffffffff167f8c5be1e5ebec7d5bd14f71427d1e84f3dd0314c0f7b2291e5b200ac8c7c3b92560405160405180910390a45b505b8360045f8581526020019081526020015f205f6101000a81548173ffffffffffffffffffffffffffffffffffffffff021916908373ffffffffffffffffffffffffffffffffffffffff16021790555050505050565b6137bb8383613961565b6137cf6137c6612e34565b5f858585613328565b505050565b6137df838383613a54565b613892575f73ffffffffffffffffffffffffffffffffffffffff168373ffffffffffffffffffffffffffffffffffffffff160361385357806040517f7e27328900000000000000000000000000000000000000000000000000000000815260040161384a9190614761565b60405180910390fd5b81816040517f177e802f000000000000000000000000000000000000000000000000000000008152600401613889929190615482565b60405180910390fd5b505050565b60605f60016138a584613b14565b0190505f8167ffffffffffffffff8111156138c3576138c2613fec565b5b6040519080825280601f01601f1916602001820160405280156138f55781602001600182028036833780820191505090505b5090505f82602001820190505b600115613956578080600190039150507f3031323334353637383961626364656600000000000000000000000000000000600a86061a8153600a858161394b5761394a6154a9565b5b0494505f8503613902575b819350505050919050565b5f73ffffffffffffffffffffffffffffffffffffffff168273ffffffffffffffffffffffffffffffffffffffff16036139d1575f6040517f64a0ae920000000000000000000000000000000000000000000000000000000081526004016139c89190613f63565b60405180910390fd5b5f6139dd83835f612ef1565b90505f73ffffffffffffffffffffffffffffffffffffffff168173ffffffffffffffffffffffffffffffffffffffff1614613a4f575f6040517f73c6ac6e000000000000000000000000000000000000000000000000000000008152600401613a469190613f63565b60405180910390fd5b505050565b5f8073ffffffffffffffffffffffffffffffffffffffff168373ffffffffffffffffffffffffffffffffffffffff1614158015613b0b57508273ffffffffffffffffffffffffffffffffffffffff168473ffffffffffffffffffffffffffffffffffffffff161480613acc5750613acb84846123bf565b5b80613b0a57508273ffffffffffffffffffffffffffffffffffffffff16613af283612dfb565b73ffffffffffffffffffffffffffffffffffffffff16145b5b90509392505050565b5f805f90507a184f03e93ff9f4daa797ed6e38ed64bf6a1f0100000000000000008310613b70577a184f03e93ff9f4daa797ed6e38ed64bf6a1f0100000000000000008381613b6657613b656154a9565b5b0492506040810190505b6d04ee2d6d415b85acef81000000008310613bad576d04ee2d6d415b85acef81000000008381613ba357613ba26154a9565b5b0492506020810190505b662386f26fc100008310613bdc57662386f26fc100008381613bd257613bd16154a9565b5b0492506010810190505b6305f5e1008310613c05576305f5e1008381613bfb57613bfa6154a9565b5b0492506008810190505b6127108310613c2a576127108381613c2057613c1f6154a9565b5b0492506004810190505b60648310613c4d5760648381613c4357613c426154a9565b5b0492506002810190505b600a8310613c5c576001810190505b80915050919050565b508054613c7190614b91565b5f825580601f10613c825750613c9f565b601f0160209004905f5260205f2090810190613c9e9190613d3d565b5b50565b6040518060a0016040528060608152602001606081526020016060815260200160608152602001606081525090565b6040518060c001604052806060815260200160608152602001606081526020016060815260200160608152602001606081525090565b6040518060c001604052806060815260200160608152602001606081526020016060815260200160608152602001606081525090565b5b80821115613d54575f815f905550600101613d3e565b5090565b5f604051905090565b5f80fd5b5f80fd5b5f7fffffffff0000000000000000000000000000000000000000000000000000000082169050919050565b613d9d81613d69565b8114613da7575f80fd5b50565b5f81359050613db881613d94565b92915050565b5f60208284031215613dd357613dd2613d61565b5b5f613de084828501613daa565b91505092915050565b5f8115159050919050565b613dfd81613de9565b82525050565b5f602082019050613e165f830184613df4565b92915050565b5f81519050919050565b5f82825260208201905092915050565b5f5b83811015613e53578082015181840152602081019050613e38565b5f8484015250505050565b5f601f19601f8301169050919050565b5f613e7882613e1c565b613e828185613e26565b9350613e92818560208601613e36565b613e9b81613e5e565b840191505092915050565b5f6020820190508181035f830152613ebe8184613e6e565b905092915050565b5f819050919050565b613ed881613ec6565b8114613ee2575f80fd5b50565b5f81359050613ef381613ecf565b92915050565b5f60208284031215613f0e57613f0d613d61565b5b5f613f1b84828501613ee5565b91505092915050565b5f73ffffffffffffffffffffffffffffffffffffffff82169050919050565b5f613f4d82613f24565b9050919050565b613f5d81613f43565b82525050565b5f602082019050613f765f830184613f54565b92915050565b613f8581613f43565b8114613f8f575f80fd5b50565b5f81359050613fa081613f7c565b92915050565b5f8060408385031215613fbc57613fbb613d61565b5b5f613fc985828601613f92565b9250506020613fda85828601613ee5565b9150509250929050565b5f80fd5b5f80fd5b7f4e487b71000000000000000000000000000000000000000000000000000000005f52604160045260245ffd5b61402282613e5e565b810181811067ffffffffffffffff8211171561404157614040613fec565b5b80604052505050565b5f614053613d58565b905061405f8282614019565b919050565b5f67ffffffffffffffff82111561407e5761407d613fec565b5b61408782613e5e565b9050602081019050919050565b828183375f83830152505050565b5f6140b46140af84614064565b61404a565b9050828152602081018484840111156140d0576140cf613fe8565b5b6140db848285614094565b509392505050565b5f82601f8301126140f7576140f6613fe4565b5b81356141078482602086016140a2565b91505092915050565b5f805f805f8060c0878903121561412a57614129613d61565b5b5f61413789828a01613f92565b965050602087013567ffffffffffffffff81111561415857614157613d65565b5b61416489828a016140e3565b955050604087013567ffffffffffffffff81111561418557614184613d65565b5b61419189828a016140e3565b945050606087013567ffffffffffffffff8111156141b2576141b1613d65565b5b6141be89828a016140e3565b935050608087013567ffffffffffffffff8111156141df576141de613d65565b5b6141eb89828a016140e3565b92505060a087013567ffffffffffffffff81111561420c5761420b613d65565b5b61421889828a016140e3565b9150509295509295509295565b5f6020828403121561423a57614239613d61565b5b5f61424784828501613f92565b91505092915050565b5f82825260208201905092915050565b5f61426a82613e1c565b6142748185614250565b9350614284818560208601613e36565b61428d81613e5e565b840191505092915050565b5f60a083015f8301518482035f8601526142b28282614260565b915050602083015184820360208601526142cc8282614260565b915050604083015184820360408601526142e68282614260565b915050606083015184820360608601526143008282614260565b9150506080830151848203608086015261431a8282614260565b9150508091505092915050565b5f81519050919050565b5f82825260208201905092915050565b5f819050602082019050919050565b5f60c083015f8301518482035f86015261436a8282614260565b915050602083015184820360208601526143848282614260565b9150506040830151848203604086015261439e8282614260565b915050606083015184820360608601526143b88282614260565b915050608083015184820360808601526143d28282614260565b91505060a083015184820360a08601526143ec8282614260565b9150508091505092915050565b5f6144048383614350565b905092915050565b5f602082019050919050565b5f61442282614327565b61442c8185614331565b93508360208202850161443e85614341565b805f5b85811015614479578484038952815161445a85826143f9565b94506144658361440c565b925060208a01995050600181019050614441565b50829750879550505050505092915050565b5f81519050919050565b5f82825260208201905092915050565b5f819050602082019050919050565b5f60c083015f8301518482035f8601526144ce8282614260565b915050602083015184820360208601526144e88282614260565b915050604083015184820360408601526145028282614260565b9150506060830151848203606086015261451c8282614260565b915050608083015184820360808601526145368282614260565b91505060a083015184820360a08601526145508282614260565b9150508091505092915050565b5f61456883836144b4565b905092915050565b5f602082019050919050565b5f6145868261448b565b6145908185614495565b9350836020820285016145a2856144a5565b805f5b858110156145dd57848403895281516145be858261455d565b94506145c983614570565b925060208a019950506001810190506145a5565b50829750879550505050505092915050565b5f6060820190508181035f8301526146078186614298565b9050818103602083015261461b8185614418565b9050818103604083015261462f818461457c565b9050949350505050565b5f805f606084860312156146505761464f613d61565b5b5f61465d86828701613f92565b935050602061466e86828701613f92565b925050604061467f86828701613ee5565b9150509250925092565b5f60c083015f8301518482035f8601526146a38282614260565b915050602083015184820360208601526146bd8282614260565b915050604083015184820360408601526146d78282614260565b915050606083015184820360608601526146f18282614260565b9150506080830151848203608086015261470b8282614260565b91505060a083015184820360a08601526147258282614260565b9150508091505092915050565b5f6020820190508181035f83015261474a8184614689565b905092915050565b61475b81613ec6565b82525050565b5f6020820190506147745f830184614752565b92915050565b61478381613de9565b811461478d575f80fd5b50565b5f8135905061479e8161477a565b92915050565b5f80604083850312156147ba576147b9613d61565b5b5f6147c785828601613f92565b92505060206147d885828601614790565b9150509250929050565b5f80604083850312156147f8576147f7613d61565b5b5f61480585828601613f92565b925050602083013567ffffffffffffffff81111561482657614825613d65565b5b614832858286016140e3565b9150509250929050565b5f805f805f60a0868803121561485557614854613d61565b5b5f86013567ffffffffffffffff81111561487257614871613d65565b5b61487e888289016140e3565b955050602086013567ffffffffffffffff81111561489f5761489e613d65565b5b6148ab888289016140e3565b945050604086013567ffffffffffffffff8111156148cc576148cb613d65565b5b6148d8888289016140e3565b935050606086013567ffffffffffffffff8111156148f9576148f8613d65565b5b614905888289016140e3565b925050608086013567ffffffffffffffff81111561492657614925613d65565b5b614932888289016140e3565b9150509295509295909350565b5f67ffffffffffffffff82111561495957614958613fec565b5b61496282613e5e565b9050602081019050919050565b5f61498161497c8461493f565b61404a565b90508281526020810184848401111561499d5761499c613fe8565b5b6149a8848285614094565b509392505050565b5f82601f8301126149c4576149c3613fe4565b5b81356149d484826020860161496f565b91505092915050565b5f805f80608085870312156149f5576149f4613d61565b5b5f614a0287828801613f92565b9450506020614a1387828801613f92565b9350506040614a2487828801613ee5565b925050606085013567ffffffffffffffff811115614a4557614a44613d65565b5b614a51878288016149b0565b91505092959194509250565b5f8060408385031215614a7357614a72613d61565b5b5f614a8085828601613f92565b9250506020614a9185828601613f92565b9150509250929050565b5f60c083015f8301518482035f860152614ab58282614260565b91505060208301518482036020860152614acf8282614260565b91505060408301518482036040860152614ae98282614260565b91505060608301518482036060860152614b038282614260565b91505060808301518482036080860152614b1d8282614260565b91505060a083015184820360a0860152614b378282614260565b9150508091505092915050565b5f6020820190508181035f830152614b5c8184614a9b565b905092915050565b7f4e487b71000000000000000000000000000000000000000000000000000000005f52602260045260245ffd5b5f6002820490506001821680614ba857607f821691505b602082108103614bbb57614bba614b64565b5b50919050565b7f596f7520617265206e6f7420616e20617574686f72697a656420656d706c6f795f8201527f6572000000000000000000000000000000000000000000000000000000000000602082015250565b5f614c1b602283613e26565b9150614c2682614bc1565b604082019050919050565b5f6020820190508181035f830152614c4881614c0f565b9050919050565b7f496e76616c6964207573657220616464726573730000000000000000000000005f82015250565b5f614c83601483613e26565b9150614c8e82614c4f565b602082019050919050565b5f6020820190508181035f830152614cb081614c77565b9050919050565b7f4e487b71000000000000000000000000000000000000000000000000000000005f52601160045260245ffd5b5f614cee82613ec6565b91507fffffffffffffffffffffffffffffffffffffffffffffffffffffffffffffffff8203614d2057614d1f614cb7565b5b600182019050919050565b5f819050815f5260205f209050919050565b5f6020601f8301049050919050565b5f82821b905092915050565b5f60088302614d877fffffffffffffffffffffffffffffffffffffffffffffffffffffffffffffffff82614d4c565b614d918683614d4c565b95508019841693508086168417925050509392505050565b5f819050919050565b5f614dcc614dc7614dc284613ec6565b614da9565b613ec6565b9050919050565b5f819050919050565b614de583614db2565b614df9614df182614dd3565b848454614d58565b825550505050565b5f90565b614e0d614e01565b614e18818484614ddc565b505050565b5b81811015614e3b57614e305f82614e05565b600181019050614e1e565b5050565b601f821115614e8057614e5181614d2b565b614e5a84614d3d565b81016020851015614e69578190505b614e7d614e7585614d3d565b830182614e1d565b50505b505050565b5f82821c905092915050565b5f614ea05f1984600802614e85565b1980831691505092915050565b5f614eb88383614e91565b9150826002028217905092915050565b614ed182613e1c565b67ffffffffffffffff811115614eea57614ee9613fec565b5b614ef48254614b91565b614eff828285614e3f565b5f60209050601f831160018114614f30575f8415614f1e578287015190505b614f288582614ead565b865550614f8f565b601f198416614f3e86614d2b565b5f5b82811015614f6557848901518255600182019150602085019450602081019050614f40565b86831015614f825784890151614f7e601f891682614e91565b8355505b6001600288020188555050505b505050505050565b7f4e487b71000000000000000000000000000000000000000000000000000000005f52602160045260245ffd5b5f8154614fd081614b91565b614fda8186613e26565b9450600182165f8114614ff4576001811461500a5761503c565b60ff19831686528115156020028601935061503c565b61501385614d2b565b5f5b8381101561503457815481890152600182019150602081019050615015565b808801955050505b50505092915050565b5f6040820190508181035f83015261505d8185614fc4565b905081810360208301526150718184613e6e565b90509392505050565b7f4e487b71000000000000000000000000000000000000000000000000000000005f52603260045260245ffd5b5f60ff82169050919050565b5f6150bd826150a7565b915060ff82036150d0576150cf614cb7565b5b600182019050919050565b5f6060820190506150ee5f830186613f54565b6150fb6020830185614752565b6151086040830184613f54565b949350505050565b7f576f726b20657870657269656e636520646f6573206e6f7420657869737400005f82015250565b5f615144601e83613e26565b915061514f82615110565b602082019050919050565b5f6020820190508181035f83015261517181615138565b9050919050565b5f60a0820190508181035f8301526151908188613e6e565b905081810360208301526151a48187613e6e565b905081810360408301526151b88186613e6e565b905081810360608301526151cc8185613e6e565b905081810360808301526151e08184613e6e565b90509695505050505050565b5f81905092915050565b5f61520082613e1c565b61520a81856151ec565b935061521a818560208601613e36565b80840191505092915050565b5f61523182856151f6565b915061523d82846151f6565b91508190509392505050565b7f596f7520617265206e6f7420616e20617574686f72697a656420756e697665725f8201527f7369747900000000000000000000000000000000000000000000000000000000602082015250565b5f6152a3602483613e26565b91506152ae82615249565b604082019050919050565b5f6020820190508181035f8301526152d081615297565b9050919050565b7f496e76616c69642073747564656e7420616464726573730000000000000000005f82015250565b5f61530b601783613e26565b9150615316826152d7565b602082019050919050565b5f6020820190508181035f830152615338816152ff565b9050919050565b7f44656772656520646f6573206e6f7420657869737400000000000000000000005f82015250565b5f615373601583613e26565b915061537e8261533f565b602082019050919050565b5f6020820190508181035f8301526153a081615367565b9050919050565b5f81519050919050565b5f82825260208201905092915050565b5f6153cb826153a7565b6153d581856153b1565b93506153e5818560208601613e36565b6153ee81613e5e565b840191505092915050565b5f60808201905061540c5f830187613f54565b6154196020830186613f54565b6154266040830185614752565b818103606083015261543881846153c1565b905095945050505050565b5f8151905061545181613d94565b92915050565b5f6020828403121561546c5761546b613d61565b5b5f61547984828501615443565b91505092915050565b5f6040820190506154955f830185613f54565b6154a26020830184614752565b9392505050565b7f4e487b71000000000000000000000000000000000000000000000000000000005f52601260045260245ffdfea2646970667358221220e00ace3c37e8577a2ef5dc2a6eed6f521ca2478b249f797dcb14e853010170d564736f6c63430008140033",
			"opcodes": "PUSH1 0x80 PUSH1 0x40 MSTORE CALLVALUE DUP1 ISZERO PUSH3 0x10 JUMPI PUSH0 DUP1 REVERT JUMPDEST POP CALLER PUSH1 0x40 MLOAD DUP1 PUSH1 0x40 ADD PUSH1 0x40 MSTORE DUP1 PUSH1 0xE DUP2 MSTORE PUSH1 0x20 ADD PUSH32 0x557365725265636F7264734E4654000000000000000000000000000000000000 DUP2 MSTORE POP PUSH1 0x40 MLOAD DUP1 PUSH1 0x40 ADD PUSH1 0x40 MSTORE DUP1 PUSH1 0x5 DUP2 MSTORE PUSH1 0x20 ADD PUSH32 0x55524E4654000000000000000000000000000000000000000000000000000000 DUP2 MSTORE POP DUP2 PUSH0 SWAP1 DUP2 PUSH3 0x8E SWAP2 SWAP1 PUSH3 0x45D JUMP JUMPDEST POP DUP1 PUSH1 0x1 SWAP1 DUP2 PUSH3 0xA0 SWAP2 SWAP1 PUSH3 0x45D JUMP JUMPDEST POP POP POP PUSH0 PUSH20 0xFFFFFFFFFFFFFFFFFFFFFFFFFFFFFFFFFFFFFFFF AND DUP2 PUSH20 0xFFFFFFFFFFFFFFFFFFFFFFFFFFFFFFFFFFFFFFFF AND SUB PUSH3 0x116 JUMPI PUSH0 PUSH1 0x40 MLOAD PUSH32 0x1E4FBDF700000000000000000000000000000000000000000000000000000000 DUP2 MSTORE PUSH1 0x4 ADD PUSH3 0x10D SWAP2 SWAP1 PUSH3 0x584 JUMP JUMPDEST PUSH1 0x40 MLOAD DUP1 SWAP2 SUB SWAP1 REVERT JUMPDEST PUSH3 0x127 DUP2 PUSH3 0x136 PUSH1 0x20 SHL PUSH1 0x20 SHR JUMP JUMPDEST POP PUSH1 0x1 PUSH1 0xE DUP2 SWAP1 SSTORE POP PUSH3 0x59F JUMP JUMPDEST PUSH0 PUSH1 0x7 PUSH0 SWAP1 SLOAD SWAP1 PUSH2 0x100 EXP SWAP1 DIV PUSH20 0xFFFFFFFFFFFFFFFFFFFFFFFFFFFFFFFFFFFFFFFF AND SWAP1 POP DUP2 PUSH1 0x7 PUSH0 PUSH2 0x100 EXP DUP2 SLOAD DUP2 PUSH20 0xFFFFFFFFFFFFFFFFFFFFFFFFFFFFFFFFFFFFFFFF MUL NOT AND SWAP1 DUP4 PUSH20 0xFFFFFFFFFFFFFFFFFFFFFFFFFFFFFFFFFFFFFFFF AND MUL OR SWAP1 SSTORE POP DUP2 PUSH20 0xFFFFFFFFFFFFFFFFFFFFFFFFFFFFFFFFFFFFFFFF AND DUP2 PUSH20 0xFFFFFFFFFFFFFFFFFFFFFFFFFFFFFFFFFFFFFFFF AND PUSH32 0x8BE0079C531659141344CD1FD0A4F28419497F9722A3DAAFE3B4186F6B6457E0 PUSH1 0x40 MLOAD PUSH1 0x40 MLOAD DUP1 SWAP2 SUB SWAP1 LOG3 POP POP JUMP JUMPDEST PUSH0 DUP2 MLOAD SWAP1 POP SWAP2 SWAP1 POP JUMP JUMPDEST PUSH32 0x4E487B7100000000000000000000000000000000000000000000000000000000 PUSH0 MSTORE PUSH1 0x41 PUSH1 0x4 MSTORE PUSH1 0x24 PUSH0 REVERT JUMPDEST PUSH32 0x4E487B7100000000000000000000000000000000000000000000000000000000 PUSH0 MSTORE PUSH1 0x22 PUSH1 0x4 MSTORE PUSH1 0x24 PUSH0 REVERT JUMPDEST PUSH0 PUSH1 0x2 DUP3 DIV SWAP1 POP PUSH1 0x1 DUP3 AND DUP1 PUSH3 0x275 JUMPI PUSH1 0x7F DUP3 AND SWAP2 POP JUMPDEST PUSH1 0x20 DUP3 LT DUP2 SUB PUSH3 0x28B JUMPI PUSH3 0x28A PUSH3 0x230 JUMP JUMPDEST JUMPDEST POP SWAP2 SWAP1 POP JUMP JUMPDEST PUSH0 DUP2 SWAP1 POP DUP2 PUSH0 MSTORE PUSH1 0x20 PUSH0 KECCAK256 SWAP1 POP SWAP2 SWAP1 POP JUMP JUMPDEST PUSH0 PUSH1 0x20 PUSH1 0x1F DUP4 ADD DIV SWAP1 POP SWAP2 SWAP1 POP JUMP JUMPDEST PUSH0 DUP3 DUP3 SHL SWAP1 POP SWAP3 SWAP2 POP POP JUMP JUMPDEST PUSH0 PUSH1 0x8 DUP4 MUL PUSH3 0x2EF PUSH32 0xFFFFFFFFFFFFFFFFFFFFFFFFFFFFFFFFFFFFFFFFFFFFFFFFFFFFFFFFFFFFFFFF DUP3 PUSH3 0x2B2 JUMP JUMPDEST PUSH3 0x2FB DUP7 DUP4 PUSH3 0x2B2 JUMP JUMPDEST SWAP6 POP DUP1 NOT DUP5 AND SWAP4 POP DUP1 DUP7 AND DUP5 OR SWAP3 POP POP POP SWAP4 SWAP3 POP POP POP JUMP JUMPDEST PUSH0 DUP2 SWAP1 POP SWAP2 SWAP1 POP JUMP JUMPDEST PUSH0 DUP2 SWAP1 POP SWAP2 SWAP1 POP JUMP JUMPDEST PUSH0 PUSH3 0x345 PUSH3 0x33F PUSH3 0x339 DUP5 PUSH3 0x313 JUMP JUMPDEST PUSH3 0x31C JUMP JUMPDEST PUSH3 0x313 JUMP JUMPDEST SWAP1 POP SWAP2 SWAP1 POP JUMP JUMPDEST PUSH0 DUP2 SWAP1 POP SWAP2 SWAP1 POP JUMP JUMPDEST PUSH3 0x360 DUP4 PUSH3 0x325 JUMP JUMPDEST PUSH3 0x378 PUSH3 0x36F DUP3 PUSH3 0x34C JUMP JUMPDEST DUP5 DUP5 SLOAD PUSH3 0x2BE JUMP JUMPDEST DUP3 SSTORE POP POP POP POP JUMP JUMPDEST PUSH0 SWAP1 JUMP JUMPDEST PUSH3 0x38E PUSH3 0x380 JUMP JUMPDEST PUSH3 0x39B DUP2 DUP5 DUP5 PUSH3 0x355 JUMP JUMPDEST POP POP POP JUMP JUMPDEST JUMPDEST DUP2 DUP2 LT ISZERO PUSH3 0x3C2 JUMPI PUSH3 0x3B6 PUSH0 DUP3 PUSH3 0x384 JUMP JUMPDEST PUSH1 0x1 DUP2 ADD SWAP1 POP PUSH3 0x3A1 JUMP JUMPDEST POP POP JUMP JUMPDEST PUSH1 0x1F DUP3 GT ISZERO PUSH3 0x411 JUMPI PUSH3 0x3DB DUP2 PUSH3 0x291 JUMP JUMPDEST PUSH3 0x3E6 DUP5 PUSH3 0x2A3 JUMP JUMPDEST DUP2 ADD PUSH1 0x20 DUP6 LT ISZERO PUSH3 0x3F6 JUMPI DUP2 SWAP1 POP JUMPDEST PUSH3 0x40E PUSH3 0x405 DUP6 PUSH3 0x2A3 JUMP JUMPDEST DUP4 ADD DUP3 PUSH3 0x3A0 JUMP JUMPDEST POP POP JUMPDEST POP POP POP JUMP JUMPDEST PUSH0 DUP3 DUP3 SHR SWAP1 POP SWAP3 SWAP2 POP POP JUMP JUMPDEST PUSH0 PUSH3 0x433 PUSH0 NOT DUP5 PUSH1 0x8 MUL PUSH3 0x416 JUMP JUMPDEST NOT DUP1 DUP4 AND SWAP2 POP POP SWAP3 SWAP2 POP POP JUMP JUMPDEST PUSH0 PUSH3 0x44D DUP4 DUP4 PUSH3 0x422 JUMP JUMPDEST SWAP2 POP DUP3 PUSH1 0x2 MUL DUP3 OR SWAP1 POP SWAP3 SWAP2 POP POP JUMP JUMPDEST PUSH3 0x468 DUP3 PUSH3 0x1F9 JUMP JUMPDEST PUSH8 0xFFFFFFFFFFFFFFFF DUP2 GT ISZERO PUSH3 0x484 JUMPI PUSH3 0x483 PUSH3 0x203 JUMP JUMPDEST JUMPDEST PUSH3 0x490 DUP3 SLOAD PUSH3 0x25D JUMP JUMPDEST PUSH3 0x49D DUP3 DUP3 DUP6 PUSH3 0x3C6 JUMP JUMPDEST PUSH0 PUSH1 0x20 SWAP1 POP PUSH1 0x1F DUP4 GT PUSH1 0x1 DUP2 EQ PUSH3 0x4D3 JUMPI PUSH0 DUP5 ISZERO PUSH3 0x4BE JUMPI DUP3 DUP8 ADD MLOAD SWAP1 POP JUMPDEST PUSH3 0x4CA DUP6 DUP3 PUSH3 0x440 JUMP JUMPDEST DUP7 SSTORE POP PUSH3 0x539 JUMP JUMPDEST PUSH1 0x1F NOT DUP5 AND PUSH3 0x4E3 DUP7 PUSH3 0x291 JUMP JUMPDEST PUSH0 JUMPDEST DUP3 DUP2 LT ISZERO PUSH3 0x50C JUMPI DUP5 DUP10 ADD MLOAD DUP3 SSTORE PUSH1 0x1 DUP3 ADD SWAP2 POP PUSH1 0x20 DUP6 ADD SWAP5 POP PUSH1 0x20 DUP2 ADD SWAP1 POP PUSH3 0x4E5 JUMP JUMPDEST DUP7 DUP4 LT ISZERO PUSH3 0x52C JUMPI DUP5 DUP10 ADD MLOAD PUSH3 0x528 PUSH1 0x1F DUP10 AND DUP3 PUSH3 0x422 JUMP JUMPDEST DUP4 SSTORE POP JUMPDEST PUSH1 0x1 PUSH1 0x2 DUP9 MUL ADD DUP9 SSTORE POP POP POP JUMPDEST POP POP POP POP POP POP JUMP JUMPDEST PUSH0 PUSH20 0xFFFFFFFFFFFFFFFFFFFFFFFFFFFFFFFFFFFFFFFF DUP3 AND SWAP1 POP SWAP2 SWAP1 POP JUMP JUMPDEST PUSH0 PUSH3 0x56C DUP3 PUSH3 0x541 JUMP JUMPDEST SWAP1 POP SWAP2 SWAP1 POP JUMP JUMPDEST PUSH3 0x57E DUP2 PUSH3 0x560 JUMP JUMPDEST DUP3 MSTORE POP POP JUMP JUMPDEST PUSH0 PUSH1 0x20 DUP3 ADD SWAP1 POP PUSH3 0x599 PUSH0 DUP4 ADD DUP5 PUSH3 0x573 JUMP JUMPDEST SWAP3 SWAP2 POP POP JUMP JUMPDEST PUSH2 0x550C DUP1 PUSH3 0x5AD PUSH0 CODECOPY PUSH0 RETURN INVALID PUSH1 0x80 PUSH1 0x40 MSTORE CALLVALUE DUP1 ISZERO PUSH2 0xF JUMPI PUSH0 DUP1 REVERT JUMPDEST POP PUSH1 0x4 CALLDATASIZE LT PUSH2 0x1C2 JUMPI PUSH0 CALLDATALOAD PUSH1 0xE0 SHR DUP1 PUSH4 0x715018A6 GT PUSH2 0xF7 JUMPI DUP1 PUSH4 0xC87B56DD GT PUSH2 0x95 JUMPI DUP1 PUSH4 0xE985E9C5 GT PUSH2 0x6F JUMPI DUP1 PUSH4 0xE985E9C5 EQ PUSH2 0x510 JUMPI DUP1 PUSH4 0xF01365C4 EQ PUSH2 0x540 JUMPI DUP1 PUSH4 0xF2FDE38B EQ PUSH2 0x55C JUMPI DUP1 PUSH4 0xF7928FB3 EQ PUSH2 0x578 JUMPI PUSH2 0x1C2 JUMP JUMPDEST DUP1 PUSH4 0xC87B56DD EQ PUSH2 0x4A8 JUMPI DUP1 PUSH4 0xD0397245 EQ PUSH2 0x4D8 JUMPI DUP1 PUSH4 0xE4EE8755 EQ PUSH2 0x4F4 JUMPI PUSH2 0x1C2 JUMP JUMPDEST DUP1 PUSH4 0xA22CB465 GT PUSH2 0xD1 JUMPI DUP1 PUSH4 0xA22CB465 EQ PUSH2 0x438 JUMPI DUP1 PUSH4 0xAF33F3BD EQ PUSH2 0x454 JUMPI DUP1 PUSH4 0xB043E032 EQ PUSH2 0x470 JUMPI DUP1 PUSH4 0xB88D4FDE EQ PUSH2 0x48C JUMPI PUSH2 0x1C2 JUMP JUMPDEST DUP1 PUSH4 0x715018A6 EQ PUSH2 0x3F2 JUMPI DUP1 PUSH4 0x8DA5CB5B EQ PUSH2 0x3FC JUMPI DUP1 PUSH4 0x95D89B41 EQ PUSH2 0x41A JUMPI PUSH2 0x1C2 JUMP JUMPDEST DUP1 PUSH4 0x23B872DD GT PUSH2 0x164 JUMPI DUP1 PUSH4 0x42842E0E GT PUSH2 0x13E JUMPI DUP1 PUSH4 0x42842E0E EQ PUSH2 0x346 JUMPI DUP1 PUSH4 0x6352211E EQ PUSH2 0x362 JUMPI DUP1 PUSH4 0x6AF4F601 EQ PUSH2 0x392 JUMPI DUP1 PUSH4 0x70A08231 EQ PUSH2 0x3C2 JUMPI PUSH2 0x1C2 JUMP JUMPDEST DUP1 PUSH4 0x23B872DD EQ PUSH2 0x2CA JUMPI DUP1 PUSH4 0x2E26376A EQ PUSH2 0x2E6 JUMPI DUP1 PUSH4 0x3BD1FB94 EQ PUSH2 0x316 JUMPI PUSH2 0x1C2 JUMP JUMPDEST DUP1 PUSH4 0x95EA7B3 GT PUSH2 0x1A0 JUMPI DUP1 PUSH4 0x95EA7B3 EQ PUSH2 0x244 JUMPI DUP1 PUSH4 0xB7157BB EQ PUSH2 0x260 JUMPI DUP1 PUSH4 0xFE258B4 EQ PUSH2 0x27C JUMPI DUP1 PUSH4 0x15DAD91A EQ PUSH2 0x298 JUMPI PUSH2 0x1C2 JUMP JUMPDEST DUP1 PUSH4 0x1FFC9A7 EQ PUSH2 0x1C6 JUMPI DUP1 PUSH4 0x6FDDE03 EQ PUSH2 0x1F6 JUMPI DUP1 PUSH4 0x81812FC EQ PUSH2 0x214 JUMPI JUMPDEST PUSH0 DUP1 REVERT JUMPDEST PUSH2 0x1E0 PUSH1 0x4 DUP1 CALLDATASIZE SUB DUP2 ADD SWAP1 PUSH2 0x1DB SWAP2 SWAP1 PUSH2 0x3DBE JUMP JUMPDEST PUSH2 0x5A8 JUMP JUMPDEST PUSH1 0x40 MLOAD PUSH2 0x1ED SWAP2 SWAP1 PUSH2 0x3E03 JUMP JUMPDEST PUSH1 0x40 MLOAD DUP1 SWAP2 SUB SWAP1 RETURN JUMPDEST PUSH2 0x1FE PUSH2 0x608 JUMP JUMPDEST PUSH1 0x40 MLOAD PUSH2 0x20B SWAP2 SWAP1 PUSH2 0x3EA6 JUMP JUMPDEST PUSH1 0x40 MLOAD DUP1 SWAP2 SUB SWAP1 RETURN JUMPDEST PUSH2 0x22E PUSH1 0x4 DUP1 CALLDATASIZE SUB DUP2 ADD SWAP1 PUSH2 0x229 SWAP2 SWAP1 PUSH2 0x3EF9 JUMP JUMPDEST PUSH2 0x697 JUMP JUMPDEST PUSH1 0x40 MLOAD PUSH2 0x23B SWAP2 SWAP1 PUSH2 0x3F63 JUMP JUMPDEST PUSH1 0x40 MLOAD DUP1 SWAP2 SUB SWAP1 RETURN JUMPDEST PUSH2 0x25E PUSH1 0x4 DUP1 CALLDATASIZE SUB DUP2 ADD SWAP1 PUSH2 0x259 SWAP2 SWAP1 PUSH2 0x3FA6 JUMP JUMPDEST PUSH2 0x6B2 JUMP JUMPDEST STOP JUMPDEST PUSH2 0x27A PUSH1 0x4 DUP1 CALLDATASIZE SUB DUP2 ADD SWAP1 PUSH2 0x275 SWAP2 SWAP1 PUSH2 0x4110 JUMP JUMPDEST PUSH2 0x6C8 JUMP JUMPDEST STOP JUMPDEST PUSH2 0x296 PUSH1 0x4 DUP1 CALLDATASIZE SUB DUP2 ADD SWAP1 PUSH2 0x291 SWAP2 SWAP1 PUSH2 0x4225 JUMP JUMPDEST PUSH2 0xADE JUMP JUMPDEST STOP JUMPDEST PUSH2 0x2B2 PUSH1 0x4 DUP1 CALLDATASIZE SUB DUP2 ADD SWAP1 PUSH2 0x2AD SWAP2 SWAP1 PUSH2 0x4225 JUMP JUMPDEST PUSH2 0xB31 JUMP JUMPDEST PUSH1 0x40 MLOAD PUSH2 0x2C1 SWAP4 SWAP3 SWAP2 SWAP1 PUSH2 0x45EF JUMP JUMPDEST PUSH1 0x40 MLOAD DUP1 SWAP2 SUB SWAP1 RETURN JUMPDEST PUSH2 0x2E4 PUSH1 0x4 DUP1 CALLDATASIZE SUB DUP2 ADD SWAP1 PUSH2 0x2DF SWAP2 SWAP1 PUSH2 0x4639 JUMP JUMPDEST PUSH2 0x1905 JUMP JUMPDEST STOP JUMPDEST PUSH2 0x300 PUSH1 0x4 DUP1 CALLDATASIZE SUB DUP2 ADD SWAP1 PUSH2 0x2FB SWAP2 SWAP1 PUSH2 0x4225 JUMP JUMPDEST PUSH2 0x1A04 JUMP JUMPDEST PUSH1 0x40 MLOAD PUSH2 0x30D SWAP2 SWAP1 PUSH2 0x3E03 JUMP JUMPDEST PUSH1 0x40 MLOAD DUP1 SWAP2 SUB SWAP1 RETURN JUMPDEST PUSH2 0x330 PUSH1 0x4 DUP1 CALLDATASIZE SUB DUP2 ADD SWAP1 PUSH2 0x32B SWAP2 SWAP1 PUSH2 0x3EF9 JUMP JUMPDEST PUSH2 0x1A58 JUMP JUMPDEST PUSH1 0x40 MLOAD PUSH2 0x33D SWAP2 SWAP1 PUSH2 0x4732 JUMP JUMPDEST PUSH1 0x40 MLOAD DUP1 SWAP2 SUB SWAP1 RETURN JUMPDEST PUSH2 0x360 PUSH1 0x4 DUP1 CALLDATASIZE SUB DUP2 ADD SWAP1 PUSH2 0x35B SWAP2 SWAP1 PUSH2 0x4639 JUMP JUMPDEST PUSH2 0x1E43 JUMP JUMPDEST STOP JUMPDEST PUSH2 0x37C PUSH1 0x4 DUP1 CALLDATASIZE SUB DUP2 ADD SWAP1 PUSH2 0x377 SWAP2 SWAP1 PUSH2 0x3EF9 JUMP JUMPDEST PUSH2 0x1E62 JUMP JUMPDEST PUSH1 0x40 MLOAD PUSH2 0x389 SWAP2 SWAP1 PUSH2 0x3F63 JUMP JUMPDEST PUSH1 0x40 MLOAD DUP1 SWAP2 SUB SWAP1 RETURN JUMPDEST PUSH2 0x3AC PUSH1 0x4 DUP1 CALLDATASIZE SUB DUP2 ADD SWAP1 PUSH2 0x3A7 SWAP2 SWAP1 PUSH2 0x4225 JUMP JUMPDEST PUSH2 0x1E73 JUMP JUMPDEST PUSH1 0x40 MLOAD PUSH2 0x3B9 SWAP2 SWAP1 PUSH2 0x3E03 JUMP JUMPDEST PUSH1 0x40 MLOAD DUP1 SWAP2 SUB SWAP1 RETURN JUMPDEST PUSH2 0x3DC PUSH1 0x4 DUP1 CALLDATASIZE SUB DUP2 ADD SWAP1 PUSH2 0x3D7 SWAP2 SWAP1 PUSH2 0x4225 JUMP JUMPDEST PUSH2 0x1EC7 JUMP JUMPDEST PUSH1 0x40 MLOAD PUSH2 0x3E9 SWAP2 SWAP1 PUSH2 0x4761 JUMP JUMPDEST PUSH1 0x40 MLOAD DUP1 SWAP2 SUB SWAP1 RETURN JUMPDEST PUSH2 0x3FA PUSH2 0x1F7D JUMP JUMPDEST STOP JUMPDEST PUSH2 0x404 PUSH2 0x1F90 JUMP JUMPDEST PUSH1 0x40 MLOAD PUSH2 0x411 SWAP2 SWAP1 PUSH2 0x3F63 JUMP JUMPDEST PUSH1 0x40 MLOAD DUP1 SWAP2 SUB SWAP1 RETURN JUMPDEST PUSH2 0x422 PUSH2 0x1FB8 JUMP JUMPDEST PUSH1 0x40 MLOAD PUSH2 0x42F SWAP2 SWAP1 PUSH2 0x3EA6 JUMP JUMPDEST PUSH1 0x40 MLOAD DUP1 SWAP2 SUB SWAP1 RETURN JUMPDEST PUSH2 0x452 PUSH1 0x4 DUP1 CALLDATASIZE SUB DUP2 ADD SWAP1 PUSH2 0x44D SWAP2 SWAP1 PUSH2 0x47A4 JUMP JUMPDEST PUSH2 0x2048 JUMP JUMPDEST STOP JUMPDEST PUSH2 0x46E PUSH1 0x4 DUP1 CALLDATASIZE SUB DUP2 ADD SWAP1 PUSH2 0x469 SWAP2 SWAP1 PUSH2 0x47E2 JUMP JUMPDEST PUSH2 0x205E JUMP JUMPDEST STOP JUMPDEST PUSH2 0x48A PUSH1 0x4 DUP1 CALLDATASIZE SUB DUP2 ADD SWAP1 PUSH2 0x485 SWAP2 SWAP1 PUSH2 0x483C JUMP JUMPDEST PUSH2 0x20B5 JUMP JUMPDEST STOP JUMPDEST PUSH2 0x4A6 PUSH1 0x4 DUP1 CALLDATASIZE SUB DUP2 ADD SWAP1 PUSH2 0x4A1 SWAP2 SWAP1 PUSH2 0x49DD JUMP JUMPDEST PUSH2 0x21E5 JUMP JUMPDEST STOP JUMPDEST PUSH2 0x4C2 PUSH1 0x4 DUP1 CALLDATASIZE SUB DUP2 ADD SWAP1 PUSH2 0x4BD SWAP2 SWAP1 PUSH2 0x3EF9 JUMP JUMPDEST PUSH2 0x220A JUMP JUMPDEST PUSH1 0x40 MLOAD PUSH2 0x4CF SWAP2 SWAP1 PUSH2 0x3EA6 JUMP JUMPDEST PUSH1 0x40 MLOAD DUP1 SWAP2 SUB SWAP1 RETURN JUMPDEST PUSH2 0x4F2 PUSH1 0x4 DUP1 CALLDATASIZE SUB DUP2 ADD SWAP1 PUSH2 0x4ED SWAP2 SWAP1 PUSH2 0x47E2 JUMP JUMPDEST PUSH2 0x2315 JUMP JUMPDEST STOP JUMPDEST PUSH2 0x50E PUSH1 0x4 DUP1 CALLDATASIZE SUB DUP2 ADD SWAP1 PUSH2 0x509 SWAP2 SWAP1 PUSH2 0x4225 JUMP JUMPDEST PUSH2 0x236C JUMP JUMPDEST STOP JUMPDEST PUSH2 0x52A PUSH1 0x4 DUP1 CALLDATASIZE SUB DUP2 ADD SWAP1 PUSH2 0x525 SWAP2 SWAP1 PUSH2 0x4A5D JUMP JUMPDEST PUSH2 0x23BF JUMP JUMPDEST PUSH1 0x40 MLOAD PUSH2 0x537 SWAP2 SWAP1 PUSH2 0x3E03 JUMP JUMPDEST PUSH1 0x40 MLOAD DUP1 SWAP2 SUB SWAP1 RETURN JUMPDEST PUSH2 0x55A PUSH1 0x4 DUP1 CALLDATASIZE SUB DUP2 ADD SWAP1 PUSH2 0x555 SWAP2 SWAP1 PUSH2 0x4110 JUMP JUMPDEST PUSH2 0x244D JUMP JUMPDEST STOP JUMPDEST PUSH2 0x576 PUSH1 0x4 DUP1 CALLDATASIZE SUB DUP2 ADD SWAP1 PUSH2 0x571 SWAP2 SWAP1 PUSH2 0x4225 JUMP JUMPDEST PUSH2 0x2825 JUMP JUMPDEST STOP JUMPDEST PUSH2 0x592 PUSH1 0x4 DUP1 CALLDATASIZE SUB DUP2 ADD SWAP1 PUSH2 0x58D SWAP2 SWAP1 PUSH2 0x3EF9 JUMP JUMPDEST PUSH2 0x28A9 JUMP JUMPDEST PUSH1 0x40 MLOAD PUSH2 0x59F SWAP2 SWAP1 PUSH2 0x4B44 JUMP JUMPDEST PUSH1 0x40 MLOAD DUP1 SWAP2 SUB SWAP1 RETURN JUMPDEST PUSH0 PUSH4 0x49064906 PUSH1 0xE0 SHL PUSH28 0xFFFFFFFFFFFFFFFFFFFFFFFFFFFFFFFFFFFFFFFFFFFFFFFFFFFFFFFF NOT AND DUP3 PUSH28 0xFFFFFFFFFFFFFFFFFFFFFFFFFFFFFFFFFFFFFFFFFFFFFFFFFFFFFFFF NOT AND EQ DUP1 PUSH2 0x601 JUMPI POP PUSH2 0x600 DUP3 PUSH2 0x2C94 JUMP JUMPDEST JUMPDEST SWAP1 POP SWAP2 SWAP1 POP JUMP JUMPDEST PUSH1 0x60 PUSH0 DUP1 SLOAD PUSH2 0x616 SWAP1 PUSH2 0x4B91 JUMP JUMPDEST DUP1 PUSH1 0x1F ADD PUSH1 0x20 DUP1 SWAP2 DIV MUL PUSH1 0x20 ADD PUSH1 0x40 MLOAD SWAP1 DUP2 ADD PUSH1 0x40 MSTORE DUP1 SWAP3 SWAP2 SWAP1 DUP2 DUP2 MSTORE PUSH1 0x20 ADD DUP3 DUP1 SLOAD PUSH2 0x642 SWAP1 PUSH2 0x4B91 JUMP JUMPDEST DUP1 ISZERO PUSH2 0x68D JUMPI DUP1 PUSH1 0x1F LT PUSH2 0x664 JUMPI PUSH2 0x100 DUP1 DUP4 SLOAD DIV MUL DUP4 MSTORE SWAP2 PUSH1 0x20 ADD SWAP2 PUSH2 0x68D JUMP JUMPDEST DUP3 ADD SWAP2 SWAP1 PUSH0 MSTORE PUSH1 0x20 PUSH0 KECCAK256 SWAP1 JUMPDEST DUP2 SLOAD DUP2 MSTORE SWAP1 PUSH1 0x1 ADD SWAP1 PUSH1 0x20 ADD DUP1 DUP4 GT PUSH2 0x670 JUMPI DUP3 SWAP1 SUB PUSH1 0x1F AND DUP3 ADD SWAP2 JUMPDEST POP POP POP POP POP SWAP1 POP SWAP1 JUMP JUMPDEST PUSH0 PUSH2 0x6A1 DUP3 PUSH2 0x2D75 JUMP JUMPDEST POP PUSH2 0x6AB DUP3 PUSH2 0x2DFB JUMP JUMPDEST SWAP1 POP SWAP2 SWAP1 POP JUMP JUMPDEST PUSH2 0x6C4 DUP3 DUP3 PUSH2 0x6BF PUSH2 0x2E34 JUMP JUMPDEST PUSH2 0x2E3B JUMP JUMPDEST POP POP JUMP JUMPDEST PUSH0 PUSH1 0xB PUSH0 CALLER PUSH20 0xFFFFFFFFFFFFFFFFFFFFFFFFFFFFFFFFFFFFFFFF AND PUSH20 0xFFFFFFFFFFFFFFFFFFFFFFFFFFFFFFFFFFFFFFFF AND DUP2 MSTORE PUSH1 0x20 ADD SWAP1 DUP2 MSTORE PUSH1 0x20 ADD PUSH0 KECCAK256 DUP1 SLOAD PUSH2 0x711 SWAP1 PUSH2 0x4B91 JUMP JUMPDEST SWAP1 POP GT PUSH2 0x753 JUMPI PUSH1 0x40 MLOAD PUSH32 0x8C379A000000000000000000000000000000000000000000000000000000000 DUP2 MSTORE PUSH1 0x4 ADD PUSH2 0x74A SWAP1 PUSH2 0x4C31 JUMP JUMPDEST PUSH1 0x40 MLOAD DUP1 SWAP2 SUB SWAP1 REVERT JUMPDEST PUSH0 PUSH20 0xFFFFFFFFFFFFFFFFFFFFFFFFFFFFFFFFFFFFFFFF AND DUP7 PUSH20 0xFFFFFFFFFFFFFFFFFFFFFFFFFFFFFFFFFFFFFFFF AND SUB PUSH2 0x7C1 JUMPI PUSH1 0x40 MLOAD PUSH32 0x8C379A000000000000000000000000000000000000000000000000000000000 DUP2 MSTORE PUSH1 0x4 ADD PUSH2 0x7B8 SWAP1 PUSH2 0x4C99 JUMP JUMPDEST PUSH1 0x40 MLOAD DUP1 SWAP2 SUB SWAP1 REVERT JUMPDEST PUSH0 PUSH1 0xE SLOAD SWAP1 POP PUSH1 0xE PUSH0 DUP2 SLOAD DUP1 SWAP3 SWAP2 SWAP1 PUSH2 0x7D9 SWAP1 PUSH2 0x4CE4 JUMP JUMPDEST SWAP2 SWAP1 POP SSTORE POP PUSH1 0x40 MLOAD DUP1 PUSH1 0xC0 ADD PUSH1 0x40 MSTORE DUP1 DUP8 DUP2 MSTORE PUSH1 0x20 ADD PUSH1 0xB PUSH0 CALLER PUSH20 0xFFFFFFFFFFFFFFFFFFFFFFFFFFFFFFFFFFFFFFFF AND PUSH20 0xFFFFFFFFFFFFFFFFFFFFFFFFFFFFFFFFFFFFFFFF AND DUP2 MSTORE PUSH1 0x20 ADD SWAP1 DUP2 MSTORE PUSH1 0x20 ADD PUSH0 KECCAK256 DUP1 SLOAD PUSH2 0x837 SWAP1 PUSH2 0x4B91 JUMP JUMPDEST DUP1 PUSH1 0x1F ADD PUSH1 0x20 DUP1 SWAP2 DIV MUL PUSH1 0x20 ADD PUSH1 0x40 MLOAD SWAP1 DUP2 ADD PUSH1 0x40 MSTORE DUP1 SWAP3 SWAP2 SWAP1 DUP2 DUP2 MSTORE PUSH1 0x20 ADD DUP3 DUP1 SLOAD PUSH2 0x863 SWAP1 PUSH2 0x4B91 JUMP JUMPDEST DUP1 ISZERO PUSH2 0x8AE JUMPI DUP1 PUSH1 0x1F LT PUSH2 0x885 JUMPI PUSH2 0x100 DUP1 DUP4 SLOAD DIV MUL DUP4 MSTORE SWAP2 PUSH1 0x20 ADD SWAP2 PUSH2 0x8AE JUMP JUMPDEST DUP3 ADD SWAP2 SWAP1 PUSH0 MSTORE PUSH1 0x20 PUSH0 KECCAK256 SWAP1 JUMPDEST DUP2 SLOAD DUP2 MSTORE SWAP1 PUSH1 0x1 ADD SWAP1 PUSH1 0x20 ADD DUP1 DUP4 GT PUSH2 0x891 JUMPI DUP3 SWAP1 SUB PUSH1 0x1F AND DUP3 ADD SWAP2 JUMPDEST POP POP POP POP POP DUP2 MSTORE PUSH1 0x20 ADD DUP7 DUP2 MSTORE PUSH1 0x20 ADD DUP6 DUP2 MSTORE PUSH1 0x20 ADD DUP5 DUP2 MSTORE PUSH1 0x20 ADD DUP4 DUP2 MSTORE POP PUSH1 0x9 PUSH0 DUP4 DUP2 MSTORE PUSH1 0x20 ADD SWAP1 DUP2 MSTORE PUSH1 0x20 ADD PUSH0 KECCAK256 PUSH0 DUP3 ADD MLOAD DUP2 PUSH0 ADD SWAP1 DUP2 PUSH2 0x8F2 SWAP2 SWAP1 PUSH2 0x4EC8 JUMP JUMPDEST POP PUSH1 0x20 DUP3 ADD MLOAD DUP2 PUSH1 0x1 ADD SWAP1 DUP2 PUSH2 0x908 SWAP2 SWAP1 PUSH2 0x4EC8 JUMP JUMPDEST POP PUSH1 0x40 DUP3 ADD MLOAD DUP2 PUSH1 0x2 ADD SWAP1 DUP2 PUSH2 0x91E SWAP2 SWAP1 PUSH2 0x4EC8 JUMP JUMPDEST POP PUSH1 0x60 DUP3 ADD MLOAD DUP2 PUSH1 0x3 ADD SWAP1 DUP2 PUSH2 0x934 SWAP2 SWAP1 PUSH2 0x4EC8 JUMP JUMPDEST POP PUSH1 0x80 DUP3 ADD MLOAD DUP2 PUSH1 0x4 ADD SWAP1 DUP2 PUSH2 0x94A SWAP2 SWAP1 PUSH2 0x4EC8 JUMP JUMPDEST POP PUSH1 0xA0 DUP3 ADD MLOAD DUP2 PUSH1 0x5 ADD SWAP1 DUP2 PUSH2 0x960 SWAP2 SWAP1 PUSH2 0x4EC8 JUMP JUMPDEST POP SWAP1 POP POP PUSH2 0x96E DUP8 DUP3 PUSH2 0x2E4D JUMP JUMPDEST PUSH1 0xC PUSH0 DUP9 PUSH20 0xFFFFFFFFFFFFFFFFFFFFFFFFFFFFFFFFFFFFFFFF AND PUSH20 0xFFFFFFFFFFFFFFFFFFFFFFFFFFFFFFFFFFFFFFFF AND DUP2 MSTORE PUSH1 0x20 ADD SWAP1 DUP2 MSTORE PUSH1 0x20 ADD PUSH0 KECCAK256 PUSH1 0x40 MLOAD DUP1 PUSH1 0x40 ADD PUSH1 0x40 MSTORE DUP1 PUSH1 0x1 DUP1 DUP2 GT ISZERO PUSH2 0x9C9 JUMPI PUSH2 0x9C8 PUSH2 0x4F97 JUMP JUMPDEST JUMPDEST DUP2 MSTORE PUSH1 0x20 ADD DUP4 DUP2 MSTORE POP SWAP1 DUP1 PUSH1 0x1 DUP2 SLOAD ADD DUP1 DUP3 SSTORE DUP1 SWAP2 POP POP PUSH1 0x1 SWAP1 SUB SWAP1 PUSH0 MSTORE PUSH1 0x20 PUSH0 KECCAK256 SWAP1 PUSH1 0x2 MUL ADD PUSH0 SWAP1 SWAP2 SWAP1 SWAP2 SWAP1 SWAP2 POP PUSH0 DUP3 ADD MLOAD DUP2 PUSH0 ADD PUSH0 PUSH2 0x100 EXP DUP2 SLOAD DUP2 PUSH1 0xFF MUL NOT AND SWAP1 DUP4 PUSH1 0x1 DUP2 GT ISZERO PUSH2 0xA20 JUMPI PUSH2 0xA1F PUSH2 0x4F97 JUMP JUMPDEST JUMPDEST MUL OR SWAP1 SSTORE POP PUSH1 0x20 DUP3 ADD MLOAD DUP2 PUSH1 0x1 ADD SSTORE POP POP CALLER PUSH20 0xFFFFFFFFFFFFFFFFFFFFFFFFFFFFFFFFFFFFFFFF AND DUP8 PUSH20 0xFFFFFFFFFFFFFFFFFFFFFFFFFFFFFFFFFFFFFFFF AND DUP3 PUSH32 0xFBC896FFBF3CF61FED3D39EDEFD60C02B1C49DB9C1C110A37DF9634DA6A158CE PUSH1 0xB PUSH0 CALLER PUSH20 0xFFFFFFFFFFFFFFFFFFFFFFFFFFFFFFFFFFFFFFFF AND PUSH20 0xFFFFFFFFFFFFFFFFFFFFFFFFFFFFFFFFFFFFFFFF AND DUP2 MSTORE PUSH1 0x20 ADD SWAP1 DUP2 MSTORE PUSH1 0x20 ADD PUSH0 KECCAK256 DUP10 PUSH1 0x40 MLOAD PUSH2 0xACD SWAP3 SWAP2 SWAP1 PUSH2 0x5045 JUMP JUMPDEST PUSH1 0x40 MLOAD DUP1 SWAP2 SUB SWAP1 LOG4 POP POP POP POP POP POP POP JUMP JUMPDEST PUSH2 0xAE6 PUSH2 0x2E6A JUMP JUMPDEST PUSH1 0xB PUSH0 DUP3 PUSH20 0xFFFFFFFFFFFFFFFFFFFFFFFFFFFFFFFFFFFFFFFF AND PUSH20 0xFFFFFFFFFFFFFFFFFFFFFFFFFFFFFFFFFFFFFFFF AND DUP2 MSTORE PUSH1 0x20 ADD SWAP1 DUP2 MSTORE PUSH1 0x20 ADD PUSH0 KECCAK256 PUSH0 PUSH2 0xB2E SWAP2 SWAP1 PUSH2 0x3C65 JUMP JUMPDEST POP JUMP JUMPDEST PUSH2 0xB39 PUSH2 0x3CA2 JUMP JUMPDEST PUSH1 0x60 DUP1 PUSH1 0xD PUSH0 DUP6 PUSH20 0xFFFFFFFFFFFFFFFFFFFFFFFFFFFFFFFFFFFFFFFF AND PUSH20 0xFFFFFFFFFFFFFFFFFFFFFFFFFFFFFFFFFFFFFFFF AND DUP2 MSTORE PUSH1 0x20 ADD SWAP1 DUP2 MSTORE PUSH1 0x20 ADD PUSH0 KECCAK256 PUSH1 0x40 MLOAD DUP1 PUSH1 0xA0 ADD PUSH1 0x40 MSTORE SWAP1 DUP2 PUSH0 DUP3 ADD DUP1 SLOAD PUSH2 0xB93 SWAP1 PUSH2 0x4B91 JUMP JUMPDEST DUP1 PUSH1 0x1F ADD PUSH1 0x20 DUP1 SWAP2 DIV MUL PUSH1 0x20 ADD PUSH1 0x40 MLOAD SWAP1 DUP2 ADD PUSH1 0x40 MSTORE DUP1 SWAP3 SWAP2 SWAP1 DUP2 DUP2 MSTORE PUSH1 0x20 ADD DUP3 DUP1 SLOAD PUSH2 0xBBF SWAP1 PUSH2 0x4B91 JUMP JUMPDEST DUP1 ISZERO PUSH2 0xC0A JUMPI DUP1 PUSH1 0x1F LT PUSH2 0xBE1 JUMPI PUSH2 0x100 DUP1 DUP4 SLOAD DIV MUL DUP4 MSTORE SWAP2 PUSH1 0x20 ADD SWAP2 PUSH2 0xC0A JUMP JUMPDEST DUP3 ADD SWAP2 SWAP1 PUSH0 MSTORE PUSH1 0x20 PUSH0 KECCAK256 SWAP1 JUMPDEST DUP2 SLOAD DUP2 MSTORE SWAP1 PUSH1 0x1 ADD SWAP1 PUSH1 0x20 ADD DUP1 DUP4 GT PUSH2 0xBED JUMPI DUP3 SWAP1 SUB PUSH1 0x1F AND DUP3 ADD SWAP2 JUMPDEST POP POP POP POP POP DUP2 MSTORE PUSH1 0x20 ADD PUSH1 0x1 DUP3 ADD DUP1 SLOAD PUSH2 0xC23 SWAP1 PUSH2 0x4B91 JUMP JUMPDEST DUP1 PUSH1 0x1F ADD PUSH1 0x20 DUP1 SWAP2 DIV MUL PUSH1 0x20 ADD PUSH1 0x40 MLOAD SWAP1 DUP2 ADD PUSH1 0x40 MSTORE DUP1 SWAP3 SWAP2 SWAP1 DUP2 DUP2 MSTORE PUSH1 0x20 ADD DUP3 DUP1 SLOAD PUSH2 0xC4F SWAP1 PUSH2 0x4B91 JUMP JUMPDEST DUP1 ISZERO PUSH2 0xC9A JUMPI DUP1 PUSH1 0x1F LT PUSH2 0xC71 JUMPI PUSH2 0x100 DUP1 DUP4 SLOAD DIV MUL DUP4 MSTORE SWAP2 PUSH1 0x20 ADD SWAP2 PUSH2 0xC9A JUMP JUMPDEST DUP3 ADD SWAP2 SWAP1 PUSH0 MSTORE PUSH1 0x20 PUSH0 KECCAK256 SWAP1 JUMPDEST DUP2 SLOAD DUP2 MSTORE SWAP1 PUSH1 0x1 ADD SWAP1 PUSH1 0x20 ADD DUP1 DUP4 GT PUSH2 0xC7D JUMPI DUP3 SWAP1 SUB PUSH1 0x1F AND DUP3 ADD SWAP2 JUMPDEST POP POP POP POP POP DUP2 MSTORE PUSH1 0x20 ADD PUSH1 0x2 DUP3 ADD DUP1 SLOAD PUSH2 0xCB3 SWAP1 PUSH2 0x4B91 JUMP JUMPDEST DUP1 PUSH1 0x1F ADD PUSH1 0x20 DUP1 SWAP2 DIV MUL PUSH1 0x20 ADD PUSH1 0x40 MLOAD SWAP1 DUP2 ADD PUSH1 0x40 MSTORE DUP1 SWAP3 SWAP2 SWAP1 DUP2 DUP2 MSTORE PUSH1 0x20 ADD DUP3 DUP1 SLOAD PUSH2 0xCDF SWAP1 PUSH2 0x4B91 JUMP JUMPDEST DUP1 ISZERO PUSH2 0xD2A JUMPI DUP1 PUSH1 0x1F LT PUSH2 0xD01 JUMPI PUSH2 0x100 DUP1 DUP4 SLOAD DIV MUL DUP4 MSTORE SWAP2 PUSH1 0x20 ADD SWAP2 PUSH2 0xD2A JUMP JUMPDEST DUP3 ADD SWAP2 SWAP1 PUSH0 MSTORE PUSH1 0x20 PUSH0 KECCAK256 SWAP1 JUMPDEST DUP2 SLOAD DUP2 MSTORE SWAP1 PUSH1 0x1 ADD SWAP1 PUSH1 0x20 ADD DUP1 DUP4 GT PUSH2 0xD0D JUMPI DUP3 SWAP1 SUB PUSH1 0x1F AND DUP3 ADD SWAP2 JUMPDEST POP POP POP POP POP DUP2 MSTORE PUSH1 0x20 ADD PUSH1 0x3 DUP3 ADD DUP1 SLOAD PUSH2 0xD43 SWAP1 PUSH2 0x4B91 JUMP JUMPDEST DUP1 PUSH1 0x1F ADD PUSH1 0x20 DUP1 SWAP2 DIV MUL PUSH1 0x20 ADD PUSH1 0x40 MLOAD SWAP1 DUP2 ADD PUSH1 0x40 MSTORE DUP1 SWAP3 SWAP2 SWAP1 DUP2 DUP2 MSTORE PUSH1 0x20 ADD DUP3 DUP1 SLOAD PUSH2 0xD6F SWAP1 PUSH2 0x4B91 JUMP JUMPDEST DUP1 ISZERO PUSH2 0xDBA JUMPI DUP1 PUSH1 0x1F LT PUSH2 0xD91 JUMPI PUSH2 0x100 DUP1 DUP4 SLOAD DIV MUL DUP4 MSTORE SWAP2 PUSH1 0x20 ADD SWAP2 PUSH2 0xDBA JUMP JUMPDEST DUP3 ADD SWAP2 SWAP1 PUSH0 MSTORE PUSH1 0x20 PUSH0 KECCAK256 SWAP1 JUMPDEST DUP2 SLOAD DUP2 MSTORE SWAP1 PUSH1 0x1 ADD SWAP1 PUSH1 0x20 ADD DUP1 DUP4 GT PUSH2 0xD9D JUMPI DUP3 SWAP1 SUB PUSH1 0x1F AND DUP3 ADD SWAP2 JUMPDEST POP POP POP POP POP DUP2 MSTORE PUSH1 0x20 ADD PUSH1 0x4 DUP3 ADD DUP1 SLOAD PUSH2 0xDD3 SWAP1 PUSH2 0x4B91 JUMP JUMPDEST DUP1 PUSH1 0x1F ADD PUSH1 0x20 DUP1 SWAP2 DIV MUL PUSH1 0x20 ADD PUSH1 0x40 MLOAD SWAP1 DUP2 ADD PUSH1 0x40 MSTORE DUP1 SWAP3 SWAP2 SWAP1 DUP2 DUP2 MSTORE PUSH1 0x20 ADD DUP3 DUP1 SLOAD PUSH2 0xDFF SWAP1 PUSH2 0x4B91 JUMP JUMPDEST DUP1 ISZERO PUSH2 0xE4A JUMPI DUP1 PUSH1 0x1F LT PUSH2 0xE21 JUMPI PUSH2 0x100 DUP1 DUP4 SLOAD DIV MUL DUP4 MSTORE SWAP2 PUSH1 0x20 ADD SWAP2 PUSH2 0xE4A JUMP JUMPDEST DUP3 ADD SWAP2 SWAP1 PUSH0 MSTORE PUSH1 0x20 PUSH0 KECCAK256 SWAP1 JUMPDEST DUP2 SLOAD DUP2 MSTORE SWAP1 PUSH1 0x1 ADD SWAP1 PUSH1 0x20 ADD DUP1 DUP4 GT PUSH2 0xE2D JUMPI DUP3 SWAP1 SUB PUSH1 0x1F AND DUP3 ADD SWAP2 JUMPDEST POP POP POP POP POP DUP2 MSTORE POP POP SWAP3 POP PUSH0 PUSH1 0xC PUSH0 DUP7 PUSH20 0xFFFFFFFFFFFFFFFFFFFFFFFFFFFFFFFFFFFFFFFF AND PUSH20 0xFFFFFFFFFFFFFFFFFFFFFFFFFFFFFFFFFFFFFFFF AND DUP2 MSTORE PUSH1 0x20 ADD SWAP1 DUP2 MSTORE PUSH1 0x20 ADD PUSH0 KECCAK256 DUP1 SLOAD DUP1 PUSH1 0x20 MUL PUSH1 0x20 ADD PUSH1 0x40 MLOAD SWAP1 DUP2 ADD PUSH1 0x40 MSTORE DUP1 SWAP3 SWAP2 SWAP1 DUP2 DUP2 MSTORE PUSH1 0x20 ADD PUSH0 SWAP1 JUMPDEST DUP3 DUP3 LT ISZERO PUSH2 0xF25 JUMPI DUP4 DUP3 SWAP1 PUSH0 MSTORE PUSH1 0x20 PUSH0 KECCAK256 SWAP1 PUSH1 0x2 MUL ADD PUSH1 0x40 MLOAD DUP1 PUSH1 0x40 ADD PUSH1 0x40 MSTORE SWAP1 DUP2 PUSH0 DUP3 ADD PUSH0 SWAP1 SLOAD SWAP1 PUSH2 0x100 EXP SWAP1 DIV PUSH1 0xFF AND PUSH1 0x1 DUP2 GT ISZERO PUSH2 0xEF6 JUMPI PUSH2 0xEF5 PUSH2 0x4F97 JUMP JUMPDEST JUMPDEST PUSH1 0x1 DUP2 GT ISZERO PUSH2 0xF08 JUMPI PUSH2 0xF07 PUSH2 0x4F97 JUMP JUMPDEST JUMPDEST DUP2 MSTORE PUSH1 0x20 ADD PUSH1 0x1 DUP3 ADD SLOAD DUP2 MSTORE POP POP DUP2 MSTORE PUSH1 0x20 ADD SWAP1 PUSH1 0x1 ADD SWAP1 PUSH2 0xEB2 JUMP JUMPDEST POP POP POP POP SWAP1 POP PUSH0 DUP1 PUSH0 JUMPDEST DUP4 MLOAD DUP2 LT ISZERO PUSH2 0xFFE JUMPI PUSH0 PUSH1 0x1 DUP2 GT ISZERO PUSH2 0xF4B JUMPI PUSH2 0xF4A PUSH2 0x4F97 JUMP JUMPDEST JUMPDEST DUP5 DUP3 DUP2 MLOAD DUP2 LT PUSH2 0xF5E JUMPI PUSH2 0xF5D PUSH2 0x507A JUMP JUMPDEST JUMPDEST PUSH1 0x20 MUL PUSH1 0x20 ADD ADD MLOAD PUSH0 ADD MLOAD PUSH1 0x1 DUP2 GT ISZERO PUSH2 0xF7B JUMPI PUSH2 0xF7A PUSH2 0x4F97 JUMP JUMPDEST JUMPDEST SUB PUSH2 0xF93 JUMPI DUP3 DUP1 PUSH2 0xF8B SWAP1 PUSH2 0x50B3 JUMP JUMPDEST SWAP4 POP POP PUSH2 0xFEB JUMP JUMPDEST PUSH1 0x1 DUP1 DUP2 GT ISZERO PUSH2 0xFA6 JUMPI PUSH2 0xFA5 PUSH2 0x4F97 JUMP JUMPDEST JUMPDEST DUP5 DUP3 DUP2 MLOAD DUP2 LT PUSH2 0xFB9 JUMPI PUSH2 0xFB8 PUSH2 0x507A JUMP JUMPDEST JUMPDEST PUSH1 0x20 MUL PUSH1 0x20 ADD ADD MLOAD PUSH0 ADD MLOAD PUSH1 0x1 DUP2 GT ISZERO PUSH2 0xFD6 JUMPI PUSH2 0xFD5 PUSH2 0x4F97 JUMP JUMPDEST JUMPDEST SUB PUSH2 0xFEA JUMPI DUP2 DUP1 PUSH2 0xFE6 SWAP1 PUSH2 0x50B3 JUMP JUMPDEST SWAP3 POP POP JUMPDEST JUMPDEST DUP1 DUP1 PUSH2 0xFF6 SWAP1 PUSH2 0x4CE4 JUMP JUMPDEST SWAP2 POP POP PUSH2 0xF2F JUMP JUMPDEST POP DUP2 PUSH1 0xFF AND PUSH8 0xFFFFFFFFFFFFFFFF DUP2 GT ISZERO PUSH2 0x101C JUMPI PUSH2 0x101B PUSH2 0x3FEC JUMP JUMPDEST JUMPDEST PUSH1 0x40 MLOAD SWAP1 DUP1 DUP3 MSTORE DUP1 PUSH1 0x20 MUL PUSH1 0x20 ADD DUP3 ADD PUSH1 0x40 MSTORE DUP1 ISZERO PUSH2 0x1055 JUMPI DUP2 PUSH1 0x20 ADD JUMPDEST PUSH2 0x1042 PUSH2 0x3CD1 JUMP JUMPDEST DUP2 MSTORE PUSH1 0x20 ADD SWAP1 PUSH1 0x1 SWAP1 SUB SWAP1 DUP2 PUSH2 0x103A JUMPI SWAP1 POP JUMPDEST POP SWAP5 POP DUP1 PUSH1 0xFF AND PUSH8 0xFFFFFFFFFFFFFFFF DUP2 GT ISZERO PUSH2 0x1075 JUMPI PUSH2 0x1074 PUSH2 0x3FEC JUMP JUMPDEST JUMPDEST PUSH1 0x40 MLOAD SWAP1 DUP1 DUP3 MSTORE DUP1 PUSH1 0x20 MUL PUSH1 0x20 ADD DUP3 ADD PUSH1 0x40 MSTORE DUP1 ISZERO PUSH2 0x10AE JUMPI DUP2 PUSH1 0x20 ADD JUMPDEST PUSH2 0x109B PUSH2 0x3D07 JUMP JUMPDEST DUP2 MSTORE PUSH1 0x20 ADD SWAP1 PUSH1 0x1 SWAP1 SUB SWAP1 DUP2 PUSH2 0x1093 JUMPI SWAP1 POP JUMPDEST POP SWAP4 POP PUSH0 DUP1 PUSH0 JUMPDEST DUP6 MLOAD DUP2 LT ISZERO PUSH2 0x18F8 JUMPI PUSH0 PUSH1 0x1 DUP2 GT ISZERO PUSH2 0x10D1 JUMPI PUSH2 0x10D0 PUSH2 0x4F97 JUMP JUMPDEST JUMPDEST DUP7 DUP3 DUP2 MLOAD DUP2 LT PUSH2 0x10E4 JUMPI PUSH2 0x10E3 PUSH2 0x507A JUMP JUMPDEST JUMPDEST PUSH1 0x20 MUL PUSH1 0x20 ADD ADD MLOAD PUSH0 ADD MLOAD PUSH1 0x1 DUP2 GT ISZERO PUSH2 0x1101 JUMPI PUSH2 0x1100 PUSH2 0x4F97 JUMP JUMPDEST JUMPDEST SUB PUSH2 0x14D3 JUMPI PUSH1 0x8 PUSH0 DUP8 DUP4 DUP2 MLOAD DUP2 LT PUSH2 0x111C JUMPI PUSH2 0x111B PUSH2 0x507A JUMP JUMPDEST JUMPDEST PUSH1 0x20 MUL PUSH1 0x20 ADD ADD MLOAD PUSH1 0x20 ADD MLOAD DUP2 MSTORE PUSH1 0x20 ADD SWAP1 DUP2 MSTORE PUSH1 0x20 ADD PUSH0 KECCAK256 PUSH1 0x40 MLOAD DUP1 PUSH1 0xC0 ADD PUSH1 0x40 MSTORE SWAP1 DUP2 PUSH0 DUP3 ADD DUP1 SLOAD PUSH2 0x114F SWAP1 PUSH2 0x4B91 JUMP JUMPDEST DUP1 PUSH1 0x1F ADD PUSH1 0x20 DUP1 SWAP2 DIV MUL PUSH1 0x20 ADD PUSH1 0x40 MLOAD SWAP1 DUP2 ADD PUSH1 0x40 MSTORE DUP1 SWAP3 SWAP2 SWAP1 DUP2 DUP2 MSTORE PUSH1 0x20 ADD DUP3 DUP1 SLOAD PUSH2 0x117B SWAP1 PUSH2 0x4B91 JUMP JUMPDEST DUP1 ISZERO PUSH2 0x11C6 JUMPI DUP1 PUSH1 0x1F LT PUSH2 0x119D JUMPI PUSH2 0x100 DUP1 DUP4 SLOAD DIV MUL DUP4 MSTORE SWAP2 PUSH1 0x20 ADD SWAP2 PUSH2 0x11C6 JUMP JUMPDEST DUP3 ADD SWAP2 SWAP1 PUSH0 MSTORE PUSH1 0x20 PUSH0 KECCAK256 SWAP1 JUMPDEST DUP2 SLOAD DUP2 MSTORE SWAP1 PUSH1 0x1 ADD SWAP1 PUSH1 0x20 ADD DUP1 DUP4 GT PUSH2 0x11A9 JUMPI DUP3 SWAP1 SUB PUSH1 0x1F AND DUP3 ADD SWAP2 JUMPDEST POP POP POP POP POP DUP2 MSTORE PUSH1 0x20 ADD PUSH1 0x1 DUP3 ADD DUP1 SLOAD PUSH2 0x11DF SWAP1 PUSH2 0x4B91 JUMP JUMPDEST DUP1 PUSH1 0x1F ADD PUSH1 0x20 DUP1 SWAP2 DIV MUL PUSH1 0x20 ADD PUSH1 0x40 MLOAD SWAP1 DUP2 ADD PUSH1 0x40 MSTORE DUP1 SWAP3 SWAP2 SWAP1 DUP2 DUP2 MSTORE PUSH1 0x20 ADD DUP3 DUP1 SLOAD PUSH2 0x120B SWAP1 PUSH2 0x4B91 JUMP JUMPDEST DUP1 ISZERO PUSH2 0x1256 JUMPI DUP1 PUSH1 0x1F LT PUSH2 0x122D JUMPI PUSH2 0x100 DUP1 DUP4 SLOAD DIV MUL DUP4 MSTORE SWAP2 PUSH1 0x20 ADD SWAP2 PUSH2 0x1256 JUMP JUMPDEST DUP3 ADD SWAP2 SWAP1 PUSH0 MSTORE PUSH1 0x20 PUSH0 KECCAK256 SWAP1 JUMPDEST DUP2 SLOAD DUP2 MSTORE SWAP1 PUSH1 0x1 ADD SWAP1 PUSH1 0x20 ADD DUP1 DUP4 GT PUSH2 0x1239 JUMPI DUP3 SWAP1 SUB PUSH1 0x1F AND DUP3 ADD SWAP2 JUMPDEST POP POP POP POP POP DUP2 MSTORE PUSH1 0x20 ADD PUSH1 0x2 DUP3 ADD DUP1 SLOAD PUSH2 0x126F SWAP1 PUSH2 0x4B91 JUMP JUMPDEST DUP1 PUSH1 0x1F ADD PUSH1 0x20 DUP1 SWAP2 DIV MUL PUSH1 0x20 ADD PUSH1 0x40 MLOAD SWAP1 DUP2 ADD PUSH1 0x40 MSTORE DUP1 SWAP3 SWAP2 SWAP1 DUP2 DUP2 MSTORE PUSH1 0x20 ADD DUP3 DUP1 SLOAD PUSH2 0x129B SWAP1 PUSH2 0x4B91 JUMP JUMPDEST DUP1 ISZERO PUSH2 0x12E6 JUMPI DUP1 PUSH1 0x1F LT PUSH2 0x12BD JUMPI PUSH2 0x100 DUP1 DUP4 SLOAD DIV MUL DUP4 MSTORE SWAP2 PUSH1 0x20 ADD SWAP2 PUSH2 0x12E6 JUMP JUMPDEST DUP3 ADD SWAP2 SWAP1 PUSH0 MSTORE PUSH1 0x20 PUSH0 KECCAK256 SWAP1 JUMPDEST DUP2 SLOAD DUP2 MSTORE SWAP1 PUSH1 0x1 ADD SWAP1 PUSH1 0x20 ADD DUP1 DUP4 GT PUSH2 0x12C9 JUMPI DUP3 SWAP1 SUB PUSH1 0x1F AND DUP3 ADD SWAP2 JUMPDEST POP POP POP POP POP DUP2 MSTORE PUSH1 0x20 ADD PUSH1 0x3 DUP3 ADD DUP1 SLOAD PUSH2 0x12FF SWAP1 PUSH2 0x4B91 JUMP JUMPDEST DUP1 PUSH1 0x1F ADD PUSH1 0x20 DUP1 SWAP2 DIV MUL PUSH1 0x20 ADD PUSH1 0x40 MLOAD SWAP1 DUP2 ADD PUSH1 0x40 MSTORE DUP1 SWAP3 SWAP2 SWAP1 DUP2 DUP2 MSTORE PUSH1 0x20 ADD DUP3 DUP1 SLOAD PUSH2 0x132B SWAP1 PUSH2 0x4B91 JUMP JUMPDEST DUP1 ISZERO PUSH2 0x1376 JUMPI DUP1 PUSH1 0x1F LT PUSH2 0x134D JUMPI PUSH2 0x100 DUP1 DUP4 SLOAD DIV MUL DUP4 MSTORE SWAP2 PUSH1 0x20 ADD SWAP2 PUSH2 0x1376 JUMP JUMPDEST DUP3 ADD SWAP2 SWAP1 PUSH0 MSTORE PUSH1 0x20 PUSH0 KECCAK256 SWAP1 JUMPDEST DUP2 SLOAD DUP2 MSTORE SWAP1 PUSH1 0x1 ADD SWAP1 PUSH1 0x20 ADD DUP1 DUP4 GT PUSH2 0x1359 JUMPI DUP3 SWAP1 SUB PUSH1 0x1F AND DUP3 ADD SWAP2 JUMPDEST POP POP POP POP POP DUP2 MSTORE PUSH1 0x20 ADD PUSH1 0x4 DUP3 ADD DUP1 SLOAD PUSH2 0x138F SWAP1 PUSH2 0x4B91 JUMP JUMPDEST DUP1 PUSH1 0x1F ADD PUSH1 0x20 DUP1 SWAP2 DIV MUL PUSH1 0x20 ADD PUSH1 0x40 MLOAD SWAP1 DUP2 ADD PUSH1 0x40 MSTORE DUP1 SWAP3 SWAP2 SWAP1 DUP2 DUP2 MSTORE PUSH1 0x20 ADD DUP3 DUP1 SLOAD PUSH2 0x13BB SWAP1 PUSH2 0x4B91 JUMP JUMPDEST DUP1 ISZERO PUSH2 0x1406 JUMPI DUP1 PUSH1 0x1F LT PUSH2 0x13DD JUMPI PUSH2 0x100 DUP1 DUP4 SLOAD DIV MUL DUP4 MSTORE SWAP2 PUSH1 0x20 ADD SWAP2 PUSH2 0x1406 JUMP JUMPDEST DUP3 ADD SWAP2 SWAP1 PUSH0 MSTORE PUSH1 0x20 PUSH0 KECCAK256 SWAP1 JUMPDEST DUP2 SLOAD DUP2 MSTORE SWAP1 PUSH1 0x1 ADD SWAP1 PUSH1 0x20 ADD DUP1 DUP4 GT PUSH2 0x13E9 JUMPI DUP3 SWAP1 SUB PUSH1 0x1F AND DUP3 ADD SWAP2 JUMPDEST POP POP POP POP POP DUP2 MSTORE PUSH1 0x20 ADD PUSH1 0x5 DUP3 ADD DUP1 SLOAD PUSH2 0x141F SWAP1 PUSH2 0x4B91 JUMP JUMPDEST DUP1 PUSH1 0x1F ADD PUSH1 0x20 DUP1 SWAP2 DIV MUL PUSH1 0x20 ADD PUSH1 0x40 MLOAD SWAP1 DUP2 ADD PUSH1 0x40 MSTORE DUP1 SWAP3 SWAP2 SWAP1 DUP2 DUP2 MSTORE PUSH1 0x20 ADD DUP3 DUP1 SLOAD PUSH2 0x144B SWAP1 PUSH2 0x4B91 JUMP JUMPDEST DUP1 ISZERO PUSH2 0x1496 JUMPI DUP1 PUSH1 0x1F LT PUSH2 0x146D JUMPI PUSH2 0x100 DUP1 DUP4 SLOAD DIV MUL DUP4 MSTORE SWAP2 PUSH1 0x20 ADD SWAP2 PUSH2 0x1496 JUMP JUMPDEST DUP3 ADD SWAP2 SWAP1 PUSH0 MSTORE PUSH1 0x20 PUSH0 KECCAK256 SWAP1 JUMPDEST DUP2 SLOAD DUP2 MSTORE SWAP1 PUSH1 0x1 ADD SWAP1 PUSH1 0x20 ADD DUP1 DUP4 GT PUSH2 0x1479 JUMPI DUP3 SWAP1 SUB PUSH1 0x1F AND DUP3 ADD SWAP2 JUMPDEST POP POP POP POP POP DUP2 MSTORE POP POP DUP9 DUP5 PUSH1 0xFF AND DUP2 MLOAD DUP2 LT PUSH2 0x14B5 JUMPI PUSH2 0x14B4 PUSH2 0x507A JUMP JUMPDEST JUMPDEST PUSH1 0x20 MUL PUSH1 0x20 ADD ADD DUP2 SWAP1 MSTORE POP DUP3 DUP1 PUSH2 0x14CB SWAP1 PUSH2 0x50B3 JUMP JUMPDEST SWAP4 POP POP PUSH2 0x18E5 JUMP JUMPDEST PUSH1 0x1 DUP1 DUP2 GT ISZERO PUSH2 0x14E6 JUMPI PUSH2 0x14E5 PUSH2 0x4F97 JUMP JUMPDEST JUMPDEST DUP7 DUP3 DUP2 MLOAD DUP2 LT PUSH2 0x14F9 JUMPI PUSH2 0x14F8 PUSH2 0x507A JUMP JUMPDEST JUMPDEST PUSH1 0x20 MUL PUSH1 0x20 ADD ADD MLOAD PUSH0 ADD MLOAD PUSH1 0x1 DUP2 GT ISZERO PUSH2 0x1516 JUMPI PUSH2 0x1515 PUSH2 0x4F97 JUMP JUMPDEST JUMPDEST SUB PUSH2 0x18E4 JUMPI PUSH1 0x9 PUSH0 DUP8 DUP4 DUP2 MLOAD DUP2 LT PUSH2 0x1531 JUMPI PUSH2 0x1530 PUSH2 0x507A JUMP JUMPDEST JUMPDEST PUSH1 0x20 MUL PUSH1 0x20 ADD ADD MLOAD PUSH1 0x20 ADD MLOAD DUP2 MSTORE PUSH1 0x20 ADD SWAP1 DUP2 MSTORE PUSH1 0x20 ADD PUSH0 KECCAK256 PUSH1 0x40 MLOAD DUP1 PUSH1 0xC0 ADD PUSH1 0x40 MSTORE SWAP1 DUP2 PUSH0 DUP3 ADD DUP1 SLOAD PUSH2 0x1564 SWAP1 PUSH2 0x4B91 JUMP JUMPDEST DUP1 PUSH1 0x1F ADD PUSH1 0x20 DUP1 SWAP2 DIV MUL PUSH1 0x20 ADD PUSH1 0x40 MLOAD SWAP1 DUP2 ADD PUSH1 0x40 MSTORE DUP1 SWAP3 SWAP2 SWAP1 DUP2 DUP2 MSTORE PUSH1 0x20 ADD DUP3 DUP1 SLOAD PUSH2 0x1590 SWAP1 PUSH2 0x4B91 JUMP JUMPDEST DUP1 ISZERO PUSH2 0x15DB JUMPI DUP1 PUSH1 0x1F LT PUSH2 0x15B2 JUMPI PUSH2 0x100 DUP1 DUP4 SLOAD DIV MUL DUP4 MSTORE SWAP2 PUSH1 0x20 ADD SWAP2 PUSH2 0x15DB JUMP JUMPDEST DUP3 ADD SWAP2 SWAP1 PUSH0 MSTORE PUSH1 0x20 PUSH0 KECCAK256 SWAP1 JUMPDEST DUP2 SLOAD DUP2 MSTORE SWAP1 PUSH1 0x1 ADD SWAP1 PUSH1 0x20 ADD DUP1 DUP4 GT PUSH2 0x15BE JUMPI DUP3 SWAP1 SUB PUSH1 0x1F AND DUP3 ADD SWAP2 JUMPDEST POP POP POP POP POP DUP2 MSTORE PUSH1 0x20 ADD PUSH1 0x1 DUP3 ADD DUP1 SLOAD PUSH2 0x15F4 SWAP1 PUSH2 0x4B91 JUMP JUMPDEST DUP1 PUSH1 0x1F ADD PUSH1 0x20 DUP1 SWAP2 DIV MUL PUSH1 0x20 ADD PUSH1 0x40 MLOAD SWAP1 DUP2 ADD PUSH1 0x40 MSTORE DUP1 SWAP3 SWAP2 SWAP1 DUP2 DUP2 MSTORE PUSH1 0x20 ADD DUP3 DUP1 SLOAD PUSH2 0x1620 SWAP1 PUSH2 0x4B91 JUMP JUMPDEST DUP1 ISZERO PUSH2 0x166B JUMPI DUP1 PUSH1 0x1F LT PUSH2 0x1642 JUMPI PUSH2 0x100 DUP1 DUP4 SLOAD DIV MUL DUP4 MSTORE SWAP2 PUSH1 0x20 ADD SWAP2 PUSH2 0x166B JUMP JUMPDEST DUP3 ADD SWAP2 SWAP1 PUSH0 MSTORE PUSH1 0x20 PUSH0 KECCAK256 SWAP1 JUMPDEST DUP2 SLOAD DUP2 MSTORE SWAP1 PUSH1 0x1 ADD SWAP1 PUSH1 0x20 ADD DUP1 DUP4 GT PUSH2 0x164E JUMPI DUP3 SWAP1 SUB PUSH1 0x1F AND DUP3 ADD SWAP2 JUMPDEST POP POP POP POP POP DUP2 MSTORE PUSH1 0x20 ADD PUSH1 0x2 DUP3 ADD DUP1 SLOAD PUSH2 0x1684 SWAP1 PUSH2 0x4B91 JUMP JUMPDEST DUP1 PUSH1 0x1F ADD PUSH1 0x20 DUP1 SWAP2 DIV MUL PUSH1 0x20 ADD PUSH1 0x40 MLOAD SWAP1 DUP2 ADD PUSH1 0x40 MSTORE DUP1 SWAP3 SWAP2 SWAP1 DUP2 DUP2 MSTORE PUSH1 0x20 ADD DUP3 DUP1 SLOAD PUSH2 0x16B0 SWAP1 PUSH2 0x4B91 JUMP JUMPDEST DUP1 ISZERO PUSH2 0x16FB JUMPI DUP1 PUSH1 0x1F LT PUSH2 0x16D2 JUMPI PUSH2 0x100 DUP1 DUP4 SLOAD DIV MUL DUP4 MSTORE SWAP2 PUSH1 0x20 ADD SWAP2 PUSH2 0x16FB JUMP JUMPDEST DUP3 ADD SWAP2 SWAP1 PUSH0 MSTORE PUSH1 0x20 PUSH0 KECCAK256 SWAP1 JUMPDEST DUP2 SLOAD DUP2 MSTORE SWAP1 PUSH1 0x1 ADD SWAP1 PUSH1 0x20 ADD DUP1 DUP4 GT PUSH2 0x16DE JUMPI DUP3 SWAP1 SUB PUSH1 0x1F AND DUP3 ADD SWAP2 JUMPDEST POP POP POP POP POP DUP2 MSTORE PUSH1 0x20 ADD PUSH1 0x3 DUP3 ADD DUP1 SLOAD PUSH2 0x1714 SWAP1 PUSH2 0x4B91 JUMP JUMPDEST DUP1 PUSH1 0x1F ADD PUSH1 0x20 DUP1 SWAP2 DIV MUL PUSH1 0x20 ADD PUSH1 0x40 MLOAD SWAP1 DUP2 ADD PUSH1 0x40 MSTORE DUP1 SWAP3 SWAP2 SWAP1 DUP2 DUP2 MSTORE PUSH1 0x20 ADD DUP3 DUP1 SLOAD PUSH2 0x1740 SWAP1 PUSH2 0x4B91 JUMP JUMPDEST DUP1 ISZERO PUSH2 0x178B JUMPI DUP1 PUSH1 0x1F LT PUSH2 0x1762 JUMPI PUSH2 0x100 DUP1 DUP4 SLOAD DIV MUL DUP4 MSTORE SWAP2 PUSH1 0x20 ADD SWAP2 PUSH2 0x178B JUMP JUMPDEST DUP3 ADD SWAP2 SWAP1 PUSH0 MSTORE PUSH1 0x20 PUSH0 KECCAK256 SWAP1 JUMPDEST DUP2 SLOAD DUP2 MSTORE SWAP1 PUSH1 0x1 ADD SWAP1 PUSH1 0x20 ADD DUP1 DUP4 GT PUSH2 0x176E JUMPI DUP3 SWAP1 SUB PUSH1 0x1F AND DUP3 ADD SWAP2 JUMPDEST POP POP POP POP POP DUP2 MSTORE PUSH1 0x20 ADD PUSH1 0x4 DUP3 ADD DUP1 SLOAD PUSH2 0x17A4 SWAP1 PUSH2 0x4B91 JUMP JUMPDEST DUP1 PUSH1 0x1F ADD PUSH1 0x20 DUP1 SWAP2 DIV MUL PUSH1 0x20 ADD PUSH1 0x40 MLOAD SWAP1 DUP2 ADD PUSH1 0x40 MSTORE DUP1 SWAP3 SWAP2 SWAP1 DUP2 DUP2 MSTORE PUSH1 0x20 ADD DUP3 DUP1 SLOAD PUSH2 0x17D0 SWAP1 PUSH2 0x4B91 JUMP JUMPDEST DUP1 ISZERO PUSH2 0x181B JUMPI DUP1 PUSH1 0x1F LT PUSH2 0x17F2 JUMPI PUSH2 0x100 DUP1 DUP4 SLOAD DIV MUL DUP4 MSTORE SWAP2 PUSH1 0x20 ADD SWAP2 PUSH2 0x181B JUMP JUMPDEST DUP3 ADD SWAP2 SWAP1 PUSH0 MSTORE PUSH1 0x20 PUSH0 KECCAK256 SWAP1 JUMPDEST DUP2 SLOAD DUP2 MSTORE SWAP1 PUSH1 0x1 ADD SWAP1 PUSH1 0x20 ADD DUP1 DUP4 GT PUSH2 0x17FE JUMPI DUP3 SWAP1 SUB PUSH1 0x1F AND DUP3 ADD SWAP2 JUMPDEST POP POP POP POP POP DUP2 MSTORE PUSH1 0x20 ADD PUSH1 0x5 DUP3 ADD DUP1 SLOAD PUSH2 0x1834 SWAP1 PUSH2 0x4B91 JUMP JUMPDEST DUP1 PUSH1 0x1F ADD PUSH1 0x20 DUP1 SWAP2 DIV MUL PUSH1 0x20 ADD PUSH1 0x40 MLOAD SWAP1 DUP2 ADD PUSH1 0x40 MSTORE DUP1 SWAP3 SWAP2 SWAP1 DUP2 DUP2 MSTORE PUSH1 0x20 ADD DUP3 DUP1 SLOAD PUSH2 0x1860 SWAP1 PUSH2 0x4B91 JUMP JUMPDEST DUP1 ISZERO PUSH2 0x18AB JUMPI DUP1 PUSH1 0x1F LT PUSH2 0x1882 JUMPI PUSH2 0x100 DUP1 DUP4 SLOAD DIV MUL DUP4 MSTORE SWAP2 PUSH1 0x20 ADD SWAP2 PUSH2 0x18AB JUMP JUMPDEST DUP3 ADD SWAP2 SWAP1 PUSH0 MSTORE PUSH1 0x20 PUSH0 KECCAK256 SWAP1 JUMPDEST DUP2 SLOAD DUP2 MSTORE SWAP1 PUSH1 0x1 ADD SWAP1 PUSH1 0x20 ADD DUP1 DUP4 GT PUSH2 0x188E JUMPI DUP3 SWAP1 SUB PUSH1 0x1F AND DUP3 ADD SWAP2 JUMPDEST POP POP POP POP POP DUP2 MSTORE POP POP DUP8 DUP4 PUSH1 0xFF AND DUP2 MLOAD DUP2 LT PUSH2 0x18CA JUMPI PUSH2 0x18C9 PUSH2 0x507A JUMP JUMPDEST JUMPDEST PUSH1 0x20 MUL PUSH1 0x20 ADD ADD DUP2 SWAP1 MSTORE POP DUP2 DUP1 PUSH2 0x18E0 SWAP1 PUSH2 0x50B3 JUMP JUMPDEST SWAP3 POP POP JUMPDEST JUMPDEST DUP1 DUP1 PUSH2 0x18F0 SWAP1 PUSH2 0x4CE4 JUMP JUMPDEST SWAP2 POP POP PUSH2 0x10B5 JUMP JUMPDEST POP POP POP POP POP POP SWAP2 SWAP4 SWAP1 SWAP3 POP JUMP JUMPDEST PUSH0 PUSH20 0xFFFFFFFFFFFFFFFFFFFFFFFFFFFFFFFFFFFFFFFF AND DUP3 PUSH20 0xFFFFFFFFFFFFFFFFFFFFFFFFFFFFFFFFFFFFFFFF AND SUB PUSH2 0x1975 JUMPI PUSH0 PUSH1 0x40 MLOAD PUSH32 0x64A0AE9200000000000000000000000000000000000000000000000000000000 DUP2 MSTORE PUSH1 0x4 ADD PUSH2 0x196C SWAP2 SWAP1 PUSH2 0x3F63 JUMP JUMPDEST PUSH1 0x40 MLOAD DUP1 SWAP2 SUB SWAP1 REVERT JUMPDEST PUSH0 PUSH2 0x1988 DUP4 DUP4 PUSH2 0x1983 PUSH2 0x2E34 JUMP JUMPDEST PUSH2 0x2EF1 JUMP JUMPDEST SWAP1 POP DUP4 PUSH20 0xFFFFFFFFFFFFFFFFFFFFFFFFFFFFFFFFFFFFFFFF AND DUP2 PUSH20 0xFFFFFFFFFFFFFFFFFFFFFFFFFFFFFFFFFFFFFFFF AND EQ PUSH2 0x19FE JUMPI DUP4 DUP3 DUP3 PUSH1 0x40 MLOAD PUSH32 0x64283D7B00000000000000000000000000000000000000000000000000000000 DUP2 MSTORE PUSH1 0x4 ADD PUSH2 0x19F5 SWAP4 SWAP3 SWAP2 SWAP1 PUSH2 0x50DB JUMP JUMPDEST PUSH1 0x40 MLOAD DUP1 SWAP2 SUB SWAP1 REVERT JUMPDEST POP POP POP POP JUMP JUMPDEST PUSH0 DUP1 PUSH1 0xA PUSH0 DUP5 PUSH20 0xFFFFFFFFFFFFFFFFFFFFFFFFFFFFFFFFFFFFFFFF AND PUSH20 0xFFFFFFFFFFFFFFFFFFFFFFFFFFFFFFFFFFFFFFFF AND DUP2 MSTORE PUSH1 0x20 ADD SWAP1 DUP2 MSTORE PUSH1 0x20 ADD PUSH0 KECCAK256 DUP1 SLOAD PUSH2 0x1A4E SWAP1 PUSH2 0x4B91 JUMP JUMPDEST SWAP1 POP GT SWAP1 POP SWAP2 SWAP1 POP JUMP JUMPDEST PUSH2 0x1A60 PUSH2 0x3D07 JUMP JUMPDEST PUSH0 PUSH1 0x9 PUSH0 DUP5 DUP2 MSTORE PUSH1 0x20 ADD SWAP1 DUP2 MSTORE PUSH1 0x20 ADD PUSH0 KECCAK256 PUSH0 ADD DUP1 SLOAD PUSH2 0x1A7F SWAP1 PUSH2 0x4B91 JUMP JUMPDEST SWAP1 POP GT PUSH2 0x1AC1 JUMPI PUSH1 0x40 MLOAD PUSH32 0x8C379A000000000000000000000000000000000000000000000000000000000 DUP2 MSTORE PUSH1 0x4 ADD PUSH2 0x1AB8 SWAP1 PUSH2 0x515A JUMP JUMPDEST PUSH1 0x40 MLOAD DUP1 SWAP2 SUB SWAP1 REVERT JUMPDEST PUSH1 0x9 PUSH0 DUP4 DUP2 MSTORE PUSH1 0x20 ADD SWAP1 DUP2 MSTORE PUSH1 0x20 ADD PUSH0 KECCAK256 PUSH1 0x40 MLOAD DUP1 PUSH1 0xC0 ADD PUSH1 0x40 MSTORE SWAP1 DUP2 PUSH0 DUP3 ADD DUP1 SLOAD PUSH2 0x1AEC SWAP1 PUSH2 0x4B91 JUMP JUMPDEST DUP1 PUSH1 0x1F ADD PUSH1 0x20 DUP1 SWAP2 DIV MUL PUSH1 0x20 ADD PUSH1 0x40 MLOAD SWAP1 DUP2 ADD PUSH1 0x40 MSTORE DUP1 SWAP3 SWAP2 SWAP1 DUP2 DUP2 MSTORE PUSH1 0x20 ADD DUP3 DUP1 SLOAD PUSH2 0x1B18 SWAP1 PUSH2 0x4B91 JUMP JUMPDEST DUP1 ISZERO PUSH2 0x1B63 JUMPI DUP1 PUSH1 0x1F LT PUSH2 0x1B3A JUMPI PUSH2 0x100 DUP1 DUP4 SLOAD DIV MUL DUP4 MSTORE SWAP2 PUSH1 0x20 ADD SWAP2 PUSH2 0x1B63 JUMP JUMPDEST DUP3 ADD SWAP2 SWAP1 PUSH0 MSTORE PUSH1 0x20 PUSH0 KECCAK256 SWAP1 JUMPDEST DUP2 SLOAD DUP2 MSTORE SWAP1 PUSH1 0x1 ADD SWAP1 PUSH1 0x20 ADD DUP1 DUP4 GT PUSH2 0x1B46 JUMPI DUP3 SWAP1 SUB PUSH1 0x1F AND DUP3 ADD SWAP2 JUMPDEST POP POP POP POP POP DUP2 MSTORE PUSH1 0x20 ADD PUSH1 0x1 DUP3 ADD DUP1 SLOAD PUSH2 0x1B7C SWAP1 PUSH2 0x4B91 JUMP JUMPDEST DUP1 PUSH1 0x1F ADD PUSH1 0x20 DUP1 SWAP2 DIV MUL PUSH1 0x20 ADD PUSH1 0x40 MLOAD SWAP1 DUP2 ADD PUSH1 0x40 MSTORE DUP1 SWAP3 SWAP2 SWAP1 DUP2 DUP2 MSTORE PUSH1 0x20 ADD DUP3 DUP1 SLOAD PUSH2 0x1BA8 SWAP1 PUSH2 0x4B91 JUMP JUMPDEST DUP1 ISZERO PUSH2 0x1BF3 JUMPI DUP1 PUSH1 0x1F LT PUSH2 0x1BCA JUMPI PUSH2 0x100 DUP1 DUP4 SLOAD DIV MUL DUP4 MSTORE SWAP2 PUSH1 0x20 ADD SWAP2 PUSH2 0x1BF3 JUMP JUMPDEST DUP3 ADD SWAP2 SWAP1 PUSH0 MSTORE PUSH1 0x20 PUSH0 KECCAK256 SWAP1 JUMPDEST DUP2 SLOAD DUP2 MSTORE SWAP1 PUSH1 0x1 ADD SWAP1 PUSH1 0x20 ADD DUP1 DUP4 GT PUSH2 0x1BD6 JUMPI DUP3 SWAP1 SUB PUSH1 0x1F AND DUP3 ADD SWAP2 JUMPDEST POP POP POP POP POP DUP2 MSTORE PUSH1 0x20 ADD PUSH1 0x2 DUP3 ADD DUP1 SLOAD PUSH2 0x1C0C SWAP1 PUSH2 0x4B91 JUMP JUMPDEST DUP1 PUSH1 0x1F ADD PUSH1 0x20 DUP1 SWAP2 DIV MUL PUSH1 0x20 ADD PUSH1 0x40 MLOAD SWAP1 DUP2 ADD PUSH1 0x40 MSTORE DUP1 SWAP3 SWAP2 SWAP1 DUP2 DUP2 MSTORE PUSH1 0x20 ADD DUP3 DUP1 SLOAD PUSH2 0x1C38 SWAP1 PUSH2 0x4B91 JUMP JUMPDEST DUP1 ISZERO PUSH2 0x1C83 JUMPI DUP1 PUSH1 0x1F LT PUSH2 0x1C5A JUMPI PUSH2 0x100 DUP1 DUP4 SLOAD DIV MUL DUP4 MSTORE SWAP2 PUSH1 0x20 ADD SWAP2 PUSH2 0x1C83 JUMP JUMPDEST DUP3 ADD SWAP2 SWAP1 PUSH0 MSTORE PUSH1 0x20 PUSH0 KECCAK256 SWAP1 JUMPDEST DUP2 SLOAD DUP2 MSTORE SWAP1 PUSH1 0x1 ADD SWAP1 PUSH1 0x20 ADD DUP1 DUP4 GT PUSH2 0x1C66 JUMPI DUP3 SWAP1 SUB PUSH1 0x1F AND DUP3 ADD SWAP2 JUMPDEST POP POP POP POP POP DUP2 MSTORE PUSH1 0x20 ADD PUSH1 0x3 DUP3 ADD DUP1 SLOAD PUSH2 0x1C9C SWAP1 PUSH2 0x4B91 JUMP JUMPDEST DUP1 PUSH1 0x1F ADD PUSH1 0x20 DUP1 SWAP2 DIV MUL PUSH1 0x20 ADD PUSH1 0x40 MLOAD SWAP1 DUP2 ADD PUSH1 0x40 MSTORE DUP1 SWAP3 SWAP2 SWAP1 DUP2 DUP2 MSTORE PUSH1 0x20 ADD DUP3 DUP1 SLOAD PUSH2 0x1CC8 SWAP1 PUSH2 0x4B91 JUMP JUMPDEST DUP1 ISZERO PUSH2 0x1D13 JUMPI DUP1 PUSH1 0x1F LT PUSH2 0x1CEA JUMPI PUSH2 0x100 DUP1 DUP4 SLOAD DIV MUL DUP4 MSTORE SWAP2 PUSH1 0x20 ADD SWAP2 PUSH2 0x1D13 JUMP JUMPDEST DUP3 ADD SWAP2 SWAP1 PUSH0 MSTORE PUSH1 0x20 PUSH0 KECCAK256 SWAP1 JUMPDEST DUP2 SLOAD DUP2 MSTORE SWAP1 PUSH1 0x1 ADD SWAP1 PUSH1 0x20 ADD DUP1 DUP4 GT PUSH2 0x1CF6 JUMPI DUP3 SWAP1 SUB PUSH1 0x1F AND DUP3 ADD SWAP2 JUMPDEST POP POP POP POP POP DUP2 MSTORE PUSH1 0x20 ADD PUSH1 0x4 DUP3 ADD DUP1 SLOAD PUSH2 0x1D2C SWAP1 PUSH2 0x4B91 JUMP JUMPDEST DUP1 PUSH1 0x1F ADD PUSH1 0x20 DUP1 SWAP2 DIV MUL PUSH1 0x20 ADD PUSH1 0x40 MLOAD SWAP1 DUP2 ADD PUSH1 0x40 MSTORE DUP1 SWAP3 SWAP2 SWAP1 DUP2 DUP2 MSTORE PUSH1 0x20 ADD DUP3 DUP1 SLOAD PUSH2 0x1D58 SWAP1 PUSH2 0x4B91 JUMP JUMPDEST DUP1 ISZERO PUSH2 0x1DA3 JUMPI DUP1 PUSH1 0x1F LT PUSH2 0x1D7A JUMPI PUSH2 0x100 DUP1 DUP4 SLOAD DIV MUL DUP4 MSTORE SWAP2 PUSH1 0x20 ADD SWAP2 PUSH2 0x1DA3 JUMP JUMPDEST DUP3 ADD SWAP2 SWAP1 PUSH0 MSTORE PUSH1 0x20 PUSH0 KECCAK256 SWAP1 JUMPDEST DUP2 SLOAD DUP2 MSTORE SWAP1 PUSH1 0x1 ADD SWAP1 PUSH1 0x20 ADD DUP1 DUP4 GT PUSH2 0x1D86 JUMPI DUP3 SWAP1 SUB PUSH1 0x1F AND DUP3 ADD SWAP2 JUMPDEST POP POP POP POP POP DUP2 MSTORE PUSH1 0x20 ADD PUSH1 0x5 DUP3 ADD DUP1 SLOAD PUSH2 0x1DBC SWAP1 PUSH2 0x4B91 JUMP JUMPDEST DUP1 PUSH1 0x1F ADD PUSH1 0x20 DUP1 SWAP2 DIV MUL PUSH1 0x20 ADD PUSH1 0x40 MLOAD SWAP1 DUP2 ADD PUSH1 0x40 MSTORE DUP1 SWAP3 SWAP2 SWAP1 DUP2 DUP2 MSTORE PUSH1 0x20 ADD DUP3 DUP1 SLOAD PUSH2 0x1DE8 SWAP1 PUSH2 0x4B91 JUMP JUMPDEST DUP1 ISZERO PUSH2 0x1E33 JUMPI DUP1 PUSH1 0x1F LT PUSH2 0x1E0A JUMPI PUSH2 0x100 DUP1 DUP4 SLOAD DIV MUL DUP4 MSTORE SWAP2 PUSH1 0x20 ADD SWAP2 PUSH2 0x1E33 JUMP JUMPDEST DUP3 ADD SWAP2 SWAP1 PUSH0 MSTORE PUSH1 0x20 PUSH0 KECCAK256 SWAP1 JUMPDEST DUP2 SLOAD DUP2 MSTORE SWAP1 PUSH1 0x1 ADD SWAP1 PUSH1 0x20 ADD DUP1 DUP4 GT PUSH2 0x1E16 JUMPI DUP3 SWAP1 SUB PUSH1 0x1F AND DUP3 ADD SWAP2 JUMPDEST POP POP POP POP POP DUP2 MSTORE POP POP SWAP1 POP SWAP2 SWAP1 POP JUMP JUMPDEST PUSH2 0x1E5D DUP4 DUP4 DUP4 PUSH1 0x40 MLOAD DUP1 PUSH1 0x20 ADD PUSH1 0x40 MSTORE DUP1 PUSH0 DUP2 MSTORE POP PUSH2 0x21E5 JUMP JUMPDEST POP POP POP JUMP JUMPDEST PUSH0 PUSH2 0x1E6C DUP3 PUSH2 0x2D75 JUMP JUMPDEST SWAP1 POP SWAP2 SWAP1 POP JUMP JUMPDEST PUSH0 DUP1 PUSH1 0xB PUSH0 DUP5 PUSH20 0xFFFFFFFFFFFFFFFFFFFFFFFFFFFFFFFFFFFFFFFF AND PUSH20 0xFFFFFFFFFFFFFFFFFFFFFFFFFFFFFFFFFFFFFFFF AND DUP2 MSTORE PUSH1 0x20 ADD SWAP1 DUP2 MSTORE PUSH1 0x20 ADD PUSH0 KECCAK256 DUP1 SLOAD PUSH2 0x1EBD SWAP1 PUSH2 0x4B91 JUMP JUMPDEST SWAP1 POP GT SWAP1 POP SWAP2 SWAP1 POP JUMP JUMPDEST PUSH0 DUP1 PUSH20 0xFFFFFFFFFFFFFFFFFFFFFFFFFFFFFFFFFFFFFFFF AND DUP3 PUSH20 0xFFFFFFFFFFFFFFFFFFFFFFFFFFFFFFFFFFFFFFFF AND SUB PUSH2 0x1F38 JUMPI PUSH0 PUSH1 0x40 MLOAD PUSH32 0x89C62B6400000000000000000000000000000000000000000000000000000000 DUP2 MSTORE PUSH1 0x4 ADD PUSH2 0x1F2F SWAP2 SWAP1 PUSH2 0x3F63 JUMP JUMPDEST PUSH1 0x40 MLOAD DUP1 SWAP2 SUB SWAP1 REVERT JUMPDEST PUSH1 0x3 PUSH0 DUP4 PUSH20 0xFFFFFFFFFFFFFFFFFFFFFFFFFFFFFFFFFFFFFFFF AND PUSH20 0xFFFFFFFFFFFFFFFFFFFFFFFFFFFFFFFFFFFFFFFF AND DUP2 MSTORE PUSH1 0x20 ADD SWAP1 DUP2 MSTORE PUSH1 0x20 ADD PUSH0 KECCAK256 SLOAD SWAP1 POP SWAP2 SWAP1 POP JUMP JUMPDEST PUSH2 0x1F85 PUSH2 0x2E6A JUMP JUMPDEST PUSH2 0x1F8E PUSH0 PUSH2 0x30FC JUMP JUMPDEST JUMP JUMPDEST PUSH0 PUSH1 0x7 PUSH0 SWAP1 SLOAD SWAP1 PUSH2 0x100 EXP SWAP1 DIV PUSH20 0xFFFFFFFFFFFFFFFFFFFFFFFFFFFFFFFFFFFFFFFF AND SWAP1 POP SWAP1 JUMP JUMPDEST PUSH1 0x60 PUSH1 0x1 DUP1 SLOAD PUSH2 0x1FC7 SWAP1 PUSH2 0x4B91 JUMP JUMPDEST DUP1 PUSH1 0x1F ADD PUSH1 0x20 DUP1 SWAP2 DIV MUL PUSH1 0x20 ADD PUSH1 0x40 MLOAD SWAP1 DUP2 ADD PUSH1 0x40 MSTORE DUP1 SWAP3 SWAP2 SWAP1 DUP2 DUP2 MSTORE PUSH1 0x20 ADD DUP3 DUP1 SLOAD PUSH2 0x1FF3 SWAP1 PUSH2 0x4B91 JUMP JUMPDEST DUP1 ISZERO PUSH2 0x203E JUMPI DUP1 PUSH1 0x1F LT PUSH2 0x2015 JUMPI PUSH2 0x100 DUP1 DUP4 SLOAD DIV MUL DUP4 MSTORE SWAP2 PUSH1 0x20 ADD SWAP2 PUSH2 0x203E JUMP JUMPDEST DUP3 ADD SWAP2 SWAP1 PUSH0 MSTORE PUSH1 0x20 PUSH0 KECCAK256 SWAP1 JUMPDEST DUP2 SLOAD DUP2 MSTORE SWAP1 PUSH1 0x1 ADD SWAP1 PUSH1 0x20 ADD DUP1 DUP4 GT PUSH2 0x2021 JUMPI DUP3 SWAP1 SUB PUSH1 0x1F AND DUP3 ADD SWAP2 JUMPDEST POP POP POP POP POP SWAP1 POP SWAP1 JUMP JUMPDEST PUSH2 0x205A PUSH2 0x2053 PUSH2 0x2E34 JUMP JUMPDEST DUP4 DUP4 PUSH2 0x31BF JUMP JUMPDEST POP POP JUMP JUMPDEST PUSH2 0x2066 PUSH2 0x2E6A JUMP JUMPDEST DUP1 PUSH1 0xB PUSH0 DUP5 PUSH20 0xFFFFFFFFFFFFFFFFFFFFFFFFFFFFFFFFFFFFFFFF AND PUSH20 0xFFFFFFFFFFFFFFFFFFFFFFFFFFFFFFFFFFFFFFFF AND DUP2 MSTORE PUSH1 0x20 ADD SWAP1 DUP2 MSTORE PUSH1 0x20 ADD PUSH0 KECCAK256 SWAP1 DUP2 PUSH2 0x20B0 SWAP2 SWAP1 PUSH2 0x4EC8 JUMP JUMPDEST POP POP POP JUMP JUMPDEST PUSH1 0x40 MLOAD DUP1 PUSH1 0xA0 ADD PUSH1 0x40 MSTORE DUP1 DUP7 DUP2 MSTORE PUSH1 0x20 ADD DUP6 DUP2 MSTORE PUSH1 0x20 ADD DUP5 DUP2 MSTORE PUSH1 0x20 ADD DUP4 DUP2 MSTORE PUSH1 0x20 ADD DUP3 DUP2 MSTORE POP PUSH1 0xD PUSH0 CALLER PUSH20 0xFFFFFFFFFFFFFFFFFFFFFFFFFFFFFFFFFFFFFFFF AND PUSH20 0xFFFFFFFFFFFFFFFFFFFFFFFFFFFFFFFFFFFFFFFF AND DUP2 MSTORE PUSH1 0x20 ADD SWAP1 DUP2 MSTORE PUSH1 0x20 ADD PUSH0 KECCAK256 PUSH0 DUP3 ADD MLOAD DUP2 PUSH0 ADD SWAP1 DUP2 PUSH2 0x212C SWAP2 SWAP1 PUSH2 0x4EC8 JUMP JUMPDEST POP PUSH1 0x20 DUP3 ADD MLOAD DUP2 PUSH1 0x1 ADD SWAP1 DUP2 PUSH2 0x2142 SWAP2 SWAP1 PUSH2 0x4EC8 JUMP JUMPDEST POP PUSH1 0x40 DUP3 ADD MLOAD DUP2 PUSH1 0x2 ADD SWAP1 DUP2 PUSH2 0x2158 SWAP2 SWAP1 PUSH2 0x4EC8 JUMP JUMPDEST POP PUSH1 0x60 DUP3 ADD MLOAD DUP2 PUSH1 0x3 ADD SWAP1 DUP2 PUSH2 0x216E SWAP2 SWAP1 PUSH2 0x4EC8 JUMP JUMPDEST POP PUSH1 0x80 DUP3 ADD MLOAD DUP2 PUSH1 0x4 ADD SWAP1 DUP2 PUSH2 0x2184 SWAP2 SWAP1 PUSH2 0x4EC8 JUMP JUMPDEST POP SWAP1 POP POP CALLER PUSH20 0xFFFFFFFFFFFFFFFFFFFFFFFFFFFFFFFFFFFFFFFF AND PUSH32 0x5844F757D4048A08453BF1DC9D4A8A1A67DF216D9CECC54D3E4F10BE32ADC931 DUP7 DUP7 DUP7 DUP7 DUP7 PUSH1 0x40 MLOAD PUSH2 0x21D6 SWAP6 SWAP5 SWAP4 SWAP3 SWAP2 SWAP1 PUSH2 0x5178 JUMP JUMPDEST PUSH1 0x40 MLOAD DUP1 SWAP2 SUB SWAP1 LOG2 POP POP POP POP POP JUMP JUMPDEST PUSH2 0x21F0 DUP5 DUP5 DUP5 PUSH2 0x1905 JUMP JUMPDEST PUSH2 0x2204 PUSH2 0x21FB PUSH2 0x2E34 JUMP JUMPDEST DUP6 DUP6 DUP6 DUP6 PUSH2 0x3328 JUMP JUMPDEST POP POP POP POP JUMP JUMPDEST PUSH1 0x60 PUSH2 0x2215 DUP3 PUSH2 0x2D75 JUMP JUMPDEST POP PUSH0 PUSH1 0x6 PUSH0 DUP5 DUP2 MSTORE PUSH1 0x20 ADD SWAP1 DUP2 MSTORE PUSH1 0x20 ADD PUSH0 KECCAK256 DUP1 SLOAD PUSH2 0x2233 SWAP1 PUSH2 0x4B91 JUMP JUMPDEST DUP1 PUSH1 0x1F ADD PUSH1 0x20 DUP1 SWAP2 DIV MUL PUSH1 0x20 ADD PUSH1 0x40 MLOAD SWAP1 DUP2 ADD PUSH1 0x40 MSTORE DUP1 SWAP3 SWAP2 SWAP1 DUP2 DUP2 MSTORE PUSH1 0x20 ADD DUP3 DUP1 SLOAD PUSH2 0x225F SWAP1 PUSH2 0x4B91 JUMP JUMPDEST DUP1 ISZERO PUSH2 0x22AA JUMPI DUP1 PUSH1 0x1F LT PUSH2 0x2281 JUMPI PUSH2 0x100 DUP1 DUP4 SLOAD DIV MUL DUP4 MSTORE SWAP2 PUSH1 0x20 ADD SWAP2 PUSH2 0x22AA JUMP JUMPDEST DUP3 ADD SWAP2 SWAP1 PUSH0 MSTORE PUSH1 0x20 PUSH0 KECCAK256 SWAP1 JUMPDEST DUP2 SLOAD DUP2 MSTORE SWAP1 PUSH1 0x1 ADD SWAP1 PUSH1 0x20 ADD DUP1 DUP4 GT PUSH2 0x228D JUMPI DUP3 SWAP1 SUB PUSH1 0x1F AND DUP3 ADD SWAP2 JUMPDEST POP POP POP POP POP SWAP1 POP PUSH0 PUSH2 0x22BA PUSH2 0x34D4 JUMP JUMPDEST SWAP1 POP PUSH0 DUP2 MLOAD SUB PUSH2 0x22CE JUMPI DUP2 SWAP3 POP POP POP PUSH2 0x2310 JUMP JUMPDEST PUSH0 DUP3 MLOAD GT ISZERO PUSH2 0x2302 JUMPI DUP1 DUP3 PUSH1 0x40 MLOAD PUSH1 0x20 ADD PUSH2 0x22EA SWAP3 SWAP2 SWAP1 PUSH2 0x5226 JUMP JUMPDEST PUSH1 0x40 MLOAD PUSH1 0x20 DUP2 DUP4 SUB SUB DUP2 MSTORE SWAP1 PUSH1 0x40 MSTORE SWAP3 POP POP POP PUSH2 0x2310 JUMP JUMPDEST PUSH2 0x230B DUP5 PUSH2 0x34EA JUMP JUMPDEST SWAP3 POP POP POP JUMPDEST SWAP2 SWAP1 POP JUMP JUMPDEST PUSH2 0x231D PUSH2 0x2E6A JUMP JUMPDEST DUP1 PUSH1 0xA PUSH0 DUP5 PUSH20 0xFFFFFFFFFFFFFFFFFFFFFFFFFFFFFFFFFFFFFFFF AND PUSH20 0xFFFFFFFFFFFFFFFFFFFFFFFFFFFFFFFFFFFFFFFF AND DUP2 MSTORE PUSH1 0x20 ADD SWAP1 DUP2 MSTORE PUSH1 0x20 ADD PUSH0 KECCAK256 SWAP1 DUP2 PUSH2 0x2367 SWAP2 SWAP1 PUSH2 0x4EC8 JUMP JUMPDEST POP POP POP JUMP JUMPDEST PUSH2 0x2374 PUSH2 0x2E6A JUMP JUMPDEST PUSH1 0xA PUSH0 DUP3 PUSH20 0xFFFFFFFFFFFFFFFFFFFFFFFFFFFFFFFFFFFFFFFF AND PUSH20 0xFFFFFFFFFFFFFFFFFFFFFFFFFFFFFFFFFFFFFFFF AND DUP2 MSTORE PUSH1 0x20 ADD SWAP1 DUP2 MSTORE PUSH1 0x20 ADD PUSH0 KECCAK256 PUSH0 PUSH2 0x23BC SWAP2 SWAP1 PUSH2 0x3C65 JUMP JUMPDEST POP JUMP JUMPDEST PUSH0 PUSH1 0x5 PUSH0 DUP5 PUSH20 0xFFFFFFFFFFFFFFFFFFFFFFFFFFFFFFFFFFFFFFFF AND PUSH20 0xFFFFFFFFFFFFFFFFFFFFFFFFFFFFFFFFFFFFFFFF AND DUP2 MSTORE PUSH1 0x20 ADD SWAP1 DUP2 MSTORE PUSH1 0x20 ADD PUSH0 KECCAK256 PUSH0 DUP4 PUSH20 0xFFFFFFFFFFFFFFFFFFFFFFFFFFFFFFFFFFFFFFFF AND PUSH20 0xFFFFFFFFFFFFFFFFFFFFFFFFFFFFFFFFFFFFFFFF AND DUP2 MSTORE PUSH1 0x20 ADD SWAP1 DUP2 MSTORE PUSH1 0x20 ADD PUSH0 KECCAK256 PUSH0 SWAP1 SLOAD SWAP1 PUSH2 0x100 EXP SWAP1 DIV PUSH1 0xFF AND SWAP1 POP SWAP3 SWAP2 POP POP JUMP JUMPDEST PUSH0 PUSH1 0xA PUSH0 CALLER PUSH20 0xFFFFFFFFFFFFFFFFFFFFFFFFFFFFFFFFFFFFFFFF AND PUSH20 0xFFFFFFFFFFFFFFFFFFFFFFFFFFFFFFFFFFFFFFFF AND DUP2 MSTORE PUSH1 0x20 ADD SWAP1 DUP2 MSTORE PUSH1 0x20 ADD PUSH0 KECCAK256 DUP1 SLOAD PUSH2 0x2496 SWAP1 PUSH2 0x4B91 JUMP JUMPDEST SWAP1 POP GT PUSH2 0x24D8 JUMPI PUSH1 0x40 MLOAD PUSH32 0x8C379A000000000000000000000000000000000000000000000000000000000 DUP2 MSTORE PUSH1 0x4 ADD PUSH2 0x24CF SWAP1 PUSH2 0x52B9 JUMP JUMPDEST PUSH1 0x40 MLOAD DUP1 SWAP2 SUB SWAP1 REVERT JUMPDEST PUSH0 PUSH20 0xFFFFFFFFFFFFFFFFFFFFFFFFFFFFFFFFFFFFFFFF AND DUP7 PUSH20 0xFFFFFFFFFFFFFFFFFFFFFFFFFFFFFFFFFFFFFFFF AND SUB PUSH2 0x2546 JUMPI PUSH1 0x40 MLOAD PUSH32 0x8C379A000000000000000000000000000000000000000000000000000000000 DUP2 MSTORE PUSH1 0x4 ADD PUSH2 0x253D SWAP1 PUSH2 0x5321 JUMP JUMPDEST PUSH1 0x40 MLOAD DUP1 SWAP2 SUB SWAP1 REVERT JUMPDEST PUSH0 PUSH1 0xE SLOAD SWAP1 POP PUSH1 0xE PUSH0 DUP2 SLOAD DUP1 SWAP3 SWAP2 SWAP1 PUSH2 0x255E SWAP1 PUSH2 0x4CE4 JUMP JUMPDEST SWAP2 SWAP1 POP SSTORE POP PUSH1 0x40 MLOAD DUP1 PUSH1 0xC0 ADD PUSH1 0x40 MSTORE DUP1 DUP8 DUP2 MSTORE PUSH1 0x20 ADD DUP7 DUP2 MSTORE PUSH1 0x20 ADD PUSH1 0xA PUSH0 CALLER PUSH20 0xFFFFFFFFFFFFFFFFFFFFFFFFFFFFFFFFFFFFFFFF AND PUSH20 0xFFFFFFFFFFFFFFFFFFFFFFFFFFFFFFFFFFFFFFFF AND DUP2 MSTORE PUSH1 0x20 ADD SWAP1 DUP2 MSTORE PUSH1 0x20 ADD PUSH0 KECCAK256 DUP1 SLOAD PUSH2 0x25C2 SWAP1 PUSH2 0x4B91 JUMP JUMPDEST DUP1 PUSH1 0x1F ADD PUSH1 0x20 DUP1 SWAP2 DIV MUL PUSH1 0x20 ADD PUSH1 0x40 MLOAD SWAP1 DUP2 ADD PUSH1 0x40 MSTORE DUP1 SWAP3 SWAP2 SWAP1 DUP2 DUP2 MSTORE PUSH1 0x20 ADD DUP3 DUP1 SLOAD PUSH2 0x25EE SWAP1 PUSH2 0x4B91 JUMP JUMPDEST DUP1 ISZERO PUSH2 0x2639 JUMPI DUP1 PUSH1 0x1F LT PUSH2 0x2610 JUMPI PUSH2 0x100 DUP1 DUP4 SLOAD DIV MUL DUP4 MSTORE SWAP2 PUSH1 0x20 ADD SWAP2 PUSH2 0x2639 JUMP JUMPDEST DUP3 ADD SWAP2 SWAP1 PUSH0 MSTORE PUSH1 0x20 PUSH0 KECCAK256 SWAP1 JUMPDEST DUP2 SLOAD DUP2 MSTORE SWAP1 PUSH1 0x1 ADD SWAP1 PUSH1 0x20 ADD DUP1 DUP4 GT PUSH2 0x261C JUMPI DUP3 SWAP1 SUB PUSH1 0x1F AND DUP3 ADD SWAP2 JUMPDEST POP POP POP POP POP DUP2 MSTORE PUSH1 0x20 ADD DUP6 DUP2 MSTORE PUSH1 0x20 ADD DUP5 DUP2 MSTORE PUSH1 0x20 ADD DUP4 DUP2 MSTORE POP PUSH1 0x8 PUSH0 DUP4 DUP2 MSTORE PUSH1 0x20 ADD SWAP1 DUP2 MSTORE PUSH1 0x20 ADD PUSH0 KECCAK256 PUSH0 DUP3 ADD MLOAD DUP2 PUSH0 ADD SWAP1 DUP2 PUSH2 0x2677 SWAP2 SWAP1 PUSH2 0x4EC8 JUMP JUMPDEST POP PUSH1 0x20 DUP3 ADD MLOAD DUP2 PUSH1 0x1 ADD SWAP1 DUP2 PUSH2 0x268D SWAP2 SWAP1 PUSH2 0x4EC8 JUMP JUMPDEST POP PUSH1 0x40 DUP3 ADD MLOAD DUP2 PUSH1 0x2 ADD SWAP1 DUP2 PUSH2 0x26A3 SWAP2 SWAP1 PUSH2 0x4EC8 JUMP JUMPDEST POP PUSH1 0x60 DUP3 ADD MLOAD DUP2 PUSH1 0x3 ADD SWAP1 DUP2 PUSH2 0x26B9 SWAP2 SWAP1 PUSH2 0x4EC8 JUMP JUMPDEST POP PUSH1 0x80 DUP3 ADD MLOAD DUP2 PUSH1 0x4 ADD SWAP1 DUP2 PUSH2 0x26CF SWAP2 SWAP1 PUSH2 0x4EC8 JUMP JUMPDEST POP PUSH1 0xA0 DUP3 ADD MLOAD DUP2 PUSH1 0x5 ADD SWAP1 DUP2 PUSH2 0x26E5 SWAP2 SWAP1 PUSH2 0x4EC8 JUMP JUMPDEST POP SWAP1 POP POP PUSH2 0x26F3 DUP8 DUP3 PUSH2 0x2E4D JUMP JUMPDEST PUSH1 0xC PUSH0 DUP9 PUSH20 0xFFFFFFFFFFFFFFFFFFFFFFFFFFFFFFFFFFFFFFFF AND PUSH20 0xFFFFFFFFFFFFFFFFFFFFFFFFFFFFFFFFFFFFFFFF AND DUP2 MSTORE PUSH1 0x20 ADD SWAP1 DUP2 MSTORE PUSH1 0x20 ADD PUSH0 KECCAK256 PUSH1 0x40 MLOAD DUP1 PUSH1 0x40 ADD PUSH1 0x40 MSTORE DUP1 PUSH0 PUSH1 0x1 DUP2 GT ISZERO PUSH2 0x274E JUMPI PUSH2 0x274D PUSH2 0x4F97 JUMP JUMPDEST JUMPDEST DUP2 MSTORE PUSH1 0x20 ADD DUP4 DUP2 MSTORE POP SWAP1 DUP1 PUSH1 0x1 DUP2 SLOAD ADD DUP1 DUP3 SSTORE DUP1 SWAP2 POP POP PUSH1 0x1 SWAP1 SUB SWAP1 PUSH0 MSTORE PUSH1 0x20 PUSH0 KECCAK256 SWAP1 PUSH1 0x2 MUL ADD PUSH0 SWAP1 SWAP2 SWAP1 SWAP2 SWAP1 SWAP2 POP PUSH0 DUP3 ADD MLOAD DUP2 PUSH0 ADD PUSH0 PUSH2 0x100 EXP DUP2 SLOAD DUP2 PUSH1 0xFF MUL NOT AND SWAP1 DUP4 PUSH1 0x1 DUP2 GT ISZERO PUSH2 0x27A5 JUMPI PUSH2 0x27A4 PUSH2 0x4F97 JUMP JUMPDEST JUMPDEST MUL OR SWAP1 SSTORE POP PUSH1 0x20 DUP3 ADD MLOAD DUP2 PUSH1 0x1 ADD SSTORE POP POP CALLER PUSH20 0xFFFFFFFFFFFFFFFFFFFFFFFFFFFFFFFFFFFFFFFF AND DUP8 PUSH20 0xFFFFFFFFFFFFFFFFFFFFFFFFFFFFFFFFFFFFFFFF AND DUP3 PUSH32 0xA7199AD442402C318A75CA3A3F4026FDE9254C26FE5B35662381A8274DD71EB0 DUP8 PUSH1 0x40 MLOAD PUSH2 0x2814 SWAP2 SWAP1 PUSH2 0x3EA6 JUMP JUMPDEST PUSH1 0x40 MLOAD DUP1 SWAP2 SUB SWAP1 LOG4 POP POP POP POP POP POP POP JUMP JUMPDEST PUSH2 0x282D PUSH2 0x2E6A JUMP JUMPDEST PUSH0 PUSH20 0xFFFFFFFFFFFFFFFFFFFFFFFFFFFFFFFFFFFFFFFF AND DUP2 PUSH20 0xFFFFFFFFFFFFFFFFFFFFFFFFFFFFFFFFFFFFFFFF AND SUB PUSH2 0x289D JUMPI PUSH0 PUSH1 0x40 MLOAD PUSH32 0x1E4FBDF700000000000000000000000000000000000000000000000000000000 DUP2 MSTORE PUSH1 0x4 ADD PUSH2 0x2894 SWAP2 SWAP1 PUSH2 0x3F63 JUMP JUMPDEST PUSH1 0x40 MLOAD DUP1 SWAP2 SUB SWAP1 REVERT JUMPDEST PUSH2 0x28A6 DUP2 PUSH2 0x30FC JUMP JUMPDEST POP JUMP JUMPDEST PUSH2 0x28B1 PUSH2 0x3CD1 JUMP JUMPDEST PUSH0 PUSH1 0x8 PUSH0 DUP5 DUP2 MSTORE PUSH1 0x20 ADD SWAP1 DUP2 MSTORE PUSH1 0x20 ADD PUSH0 KECCAK256 PUSH0 ADD DUP1 SLOAD PUSH2 0x28D0 SWAP1 PUSH2 0x4B91 JUMP JUMPDEST SWAP1 POP GT PUSH2 0x2912 JUMPI PUSH1 0x40 MLOAD PUSH32 0x8C379A000000000000000000000000000000000000000000000000000000000 DUP2 MSTORE PUSH1 0x4 ADD PUSH2 0x2909 SWAP1 PUSH2 0x5389 JUMP JUMPDEST PUSH1 0x40 MLOAD DUP1 SWAP2 SUB SWAP1 REVERT JUMPDEST PUSH1 0x8 PUSH0 DUP4 DUP2 MSTORE PUSH1 0x20 ADD SWAP1 DUP2 MSTORE PUSH1 0x20 ADD PUSH0 KECCAK256 PUSH1 0x40 MLOAD DUP1 PUSH1 0xC0 ADD PUSH1 0x40 MSTORE SWAP1 DUP2 PUSH0 DUP3 ADD DUP1 SLOAD PUSH2 0x293D SWAP1 PUSH2 0x4B91 JUMP JUMPDEST DUP1 PUSH1 0x1F ADD PUSH1 0x20 DUP1 SWAP2 DIV MUL PUSH1 0x20 ADD PUSH1 0x40 MLOAD SWAP1 DUP2 ADD PUSH1 0x40 MSTORE DUP1 SWAP3 SWAP2 SWAP1 DUP2 DUP2 MSTORE PUSH1 0x20 ADD DUP3 DUP1 SLOAD PUSH2 0x2969 SWAP1 PUSH2 0x4B91 JUMP JUMPDEST DUP1 ISZERO PUSH2 0x29B4 JUMPI DUP1 PUSH1 0x1F LT PUSH2 0x298B JUMPI PUSH2 0x100 DUP1 DUP4 SLOAD DIV MUL DUP4 MSTORE SWAP2 PUSH1 0x20 ADD SWAP2 PUSH2 0x29B4 JUMP JUMPDEST DUP3 ADD SWAP2 SWAP1 PUSH0 MSTORE PUSH1 0x20 PUSH0 KECCAK256 SWAP1 JUMPDEST DUP2 SLOAD DUP2 MSTORE SWAP1 PUSH1 0x1 ADD SWAP1 PUSH1 0x20 ADD DUP1 DUP4 GT PUSH2 0x2997 JUMPI DUP3 SWAP1 SUB PUSH1 0x1F AND DUP3 ADD SWAP2 JUMPDEST POP POP POP POP POP DUP2 MSTORE PUSH1 0x20 ADD PUSH1 0x1 DUP3 ADD DUP1 SLOAD PUSH2 0x29CD SWAP1 PUSH2 0x4B91 JUMP JUMPDEST DUP1 PUSH1 0x1F ADD PUSH1 0x20 DUP1 SWAP2 DIV MUL PUSH1 0x20 ADD PUSH1 0x40 MLOAD SWAP1 DUP2 ADD PUSH1 0x40 MSTORE DUP1 SWAP3 SWAP2 SWAP1 DUP2 DUP2 MSTORE PUSH1 0x20 ADD DUP3 DUP1 SLOAD PUSH2 0x29F9 SWAP1 PUSH2 0x4B91 JUMP JUMPDEST DUP1 ISZERO PUSH2 0x2A44 JUMPI DUP1 PUSH1 0x1F LT PUSH2 0x2A1B JUMPI PUSH2 0x100 DUP1 DUP4 SLOAD DIV MUL DUP4 MSTORE SWAP2 PUSH1 0x20 ADD SWAP2 PUSH2 0x2A44 JUMP JUMPDEST DUP3 ADD SWAP2 SWAP1 PUSH0 MSTORE PUSH1 0x20 PUSH0 KECCAK256 SWAP1 JUMPDEST DUP2 SLOAD DUP2 MSTORE SWAP1 PUSH1 0x1 ADD SWAP1 PUSH1 0x20 ADD DUP1 DUP4 GT PUSH2 0x2A27 JUMPI DUP3 SWAP1 SUB PUSH1 0x1F AND DUP3 ADD SWAP2 JUMPDEST POP POP POP POP POP DUP2 MSTORE PUSH1 0x20 ADD PUSH1 0x2 DUP3 ADD DUP1 SLOAD PUSH2 0x2A5D SWAP1 PUSH2 0x4B91 JUMP JUMPDEST DUP1 PUSH1 0x1F ADD PUSH1 0x20 DUP1 SWAP2 DIV MUL PUSH1 0x20 ADD PUSH1 0x40 MLOAD SWAP1 DUP2 ADD PUSH1 0x40 MSTORE DUP1 SWAP3 SWAP2 SWAP1 DUP2 DUP2 MSTORE PUSH1 0x20 ADD DUP3 DUP1 SLOAD PUSH2 0x2A89 SWAP1 PUSH2 0x4B91 JUMP JUMPDEST DUP1 ISZERO PUSH2 0x2AD4 JUMPI DUP1 PUSH1 0x1F LT PUSH2 0x2AAB JUMPI PUSH2 0x100 DUP1 DUP4 SLOAD DIV MUL DUP4 MSTORE SWAP2 PUSH1 0x20 ADD SWAP2 PUSH2 0x2AD4 JUMP JUMPDEST DUP3 ADD SWAP2 SWAP1 PUSH0 MSTORE PUSH1 0x20 PUSH0 KECCAK256 SWAP1 JUMPDEST DUP2 SLOAD DUP2 MSTORE SWAP1 PUSH1 0x1 ADD SWAP1 PUSH1 0x20 ADD DUP1 DUP4 GT PUSH2 0x2AB7 JUMPI DUP3 SWAP1 SUB PUSH1 0x1F AND DUP3 ADD SWAP2 JUMPDEST POP POP POP POP POP DUP2 MSTORE PUSH1 0x20 ADD PUSH1 0x3 DUP3 ADD DUP1 SLOAD PUSH2 0x2AED SWAP1 PUSH2 0x4B91 JUMP JUMPDEST DUP1 PUSH1 0x1F ADD PUSH1 0x20 DUP1 SWAP2 DIV MUL PUSH1 0x20 ADD PUSH1 0x40 MLOAD SWAP1 DUP2 ADD PUSH1 0x40 MSTORE DUP1 SWAP3 SWAP2 SWAP1 DUP2 DUP2 MSTORE PUSH1 0x20 ADD DUP3 DUP1 SLOAD PUSH2 0x2B19 SWAP1 PUSH2 0x4B91 JUMP JUMPDEST DUP1 ISZERO PUSH2 0x2B64 JUMPI DUP1 PUSH1 0x1F LT PUSH2 0x2B3B JUMPI PUSH2 0x100 DUP1 DUP4 SLOAD DIV MUL DUP4 MSTORE SWAP2 PUSH1 0x20 ADD SWAP2 PUSH2 0x2B64 JUMP JUMPDEST DUP3 ADD SWAP2 SWAP1 PUSH0 MSTORE PUSH1 0x20 PUSH0 KECCAK256 SWAP1 JUMPDEST DUP2 SLOAD DUP2 MSTORE SWAP1 PUSH1 0x1 ADD SWAP1 PUSH1 0x20 ADD DUP1 DUP4 GT PUSH2 0x2B47 JUMPI DUP3 SWAP1 SUB PUSH1 0x1F AND DUP3 ADD SWAP2 JUMPDEST POP POP POP POP POP DUP2 MSTORE PUSH1 0x20 ADD PUSH1 0x4 DUP3 ADD DUP1 SLOAD PUSH2 0x2B7D SWAP1 PUSH2 0x4B91 JUMP JUMPDEST DUP1 PUSH1 0x1F ADD PUSH1 0x20 DUP1 SWAP2 DIV MUL PUSH1 0x20 ADD PUSH1 0x40 MLOAD SWAP1 DUP2 ADD PUSH1 0x40 MSTORE DUP1 SWAP3 SWAP2 SWAP1 DUP2 DUP2 MSTORE PUSH1 0x20 ADD DUP3 DUP1 SLOAD PUSH2 0x2BA9 SWAP1 PUSH2 0x4B91 JUMP JUMPDEST DUP1 ISZERO PUSH2 0x2BF4 JUMPI DUP1 PUSH1 0x1F LT PUSH2 0x2BCB JUMPI PUSH2 0x100 DUP1 DUP4 SLOAD DIV MUL DUP4 MSTORE SWAP2 PUSH1 0x20 ADD SWAP2 PUSH2 0x2BF4 JUMP JUMPDEST DUP3 ADD SWAP2 SWAP1 PUSH0 MSTORE PUSH1 0x20 PUSH0 KECCAK256 SWAP1 JUMPDEST DUP2 SLOAD DUP2 MSTORE SWAP1 PUSH1 0x1 ADD SWAP1 PUSH1 0x20 ADD DUP1 DUP4 GT PUSH2 0x2BD7 JUMPI DUP3 SWAP1 SUB PUSH1 0x1F AND DUP3 ADD SWAP2 JUMPDEST POP POP POP POP POP DUP2 MSTORE PUSH1 0x20 ADD PUSH1 0x5 DUP3 ADD DUP1 SLOAD PUSH2 0x2C0D SWAP1 PUSH2 0x4B91 JUMP JUMPDEST DUP1 PUSH1 0x1F ADD PUSH1 0x20 DUP1 SWAP2 DIV MUL PUSH1 0x20 ADD PUSH1 0x40 MLOAD SWAP1 DUP2 ADD PUSH1 0x40 MSTORE DUP1 SWAP3 SWAP2 SWAP1 DUP2 DUP2 MSTORE PUSH1 0x20 ADD DUP3 DUP1 SLOAD PUSH2 0x2C39 SWAP1 PUSH2 0x4B91 JUMP JUMPDEST DUP1 ISZERO PUSH2 0x2C84 JUMPI DUP1 PUSH1 0x1F LT PUSH2 0x2C5B JUMPI PUSH2 0x100 DUP1 DUP4 SLOAD DIV MUL DUP4 MSTORE SWAP2 PUSH1 0x20 ADD SWAP2 PUSH2 0x2C84 JUMP JUMPDEST DUP3 ADD SWAP2 SWAP1 PUSH0 MSTORE PUSH1 0x20 PUSH0 KECCAK256 SWAP1 JUMPDEST DUP2 SLOAD DUP2 MSTORE SWAP1 PUSH1 0x1 ADD SWAP1 PUSH1 0x20 ADD DUP1 DUP4 GT PUSH2 0x2C67 JUMPI DUP3 SWAP1 SUB PUSH1 0x1F AND DUP3 ADD SWAP2 JUMPDEST POP POP POP POP POP DUP2 MSTORE POP POP SWAP1 POP SWAP2 SWAP1 POP JUMP JUMPDEST PUSH0 PUSH32 0x80AC58CD00000000000000000000000000000000000000000000000000000000 PUSH28 0xFFFFFFFFFFFFFFFFFFFFFFFFFFFFFFFFFFFFFFFFFFFFFFFFFFFFFFFF NOT AND DUP3 PUSH28 0xFFFFFFFFFFFFFFFFFFFFFFFFFFFFFFFFFFFFFFFFFFFFFFFFFFFFFFFF NOT AND EQ DUP1 PUSH2 0x2D5E JUMPI POP PUSH32 0x5B5E139F00000000000000000000000000000000000000000000000000000000 PUSH28 0xFFFFFFFFFFFFFFFFFFFFFFFFFFFFFFFFFFFFFFFFFFFFFFFFFFFFFFFF NOT AND DUP3 PUSH28 0xFFFFFFFFFFFFFFFFFFFFFFFFFFFFFFFFFFFFFFFFFFFFFFFFFFFFFFFF NOT AND EQ JUMPDEST DUP1 PUSH2 0x2D6E JUMPI POP PUSH2 0x2D6D DUP3 PUSH2 0x3550 JUMP JUMPDEST JUMPDEST SWAP1 POP SWAP2 SWAP1 POP JUMP JUMPDEST PUSH0 DUP1 PUSH2 0x2D80 DUP4 PUSH2 0x35B9 JUMP JUMPDEST SWAP1 POP PUSH0 PUSH20 0xFFFFFFFFFFFFFFFFFFFFFFFFFFFFFFFFFFFFFFFF AND DUP2 PUSH20 0xFFFFFFFFFFFFFFFFFFFFFFFFFFFFFFFFFFFFFFFF AND SUB PUSH2 0x2DF2 JUMPI DUP3 PUSH1 0x40 MLOAD PUSH32 0x7E27328900000000000000000000000000000000000000000000000000000000 DUP2 MSTORE PUSH1 0x4 ADD PUSH2 0x2DE9 SWAP2 SWAP1 PUSH2 0x4761 JUMP JUMPDEST PUSH1 0x40 MLOAD DUP1 SWAP2 SUB SWAP1 REVERT JUMPDEST DUP1 SWAP2 POP POP SWAP2 SWAP1 POP JUMP JUMPDEST PUSH0 PUSH1 0x4 PUSH0 DUP4 DUP2 MSTORE PUSH1 0x20 ADD SWAP1 DUP2 MSTORE PUSH1 0x20 ADD PUSH0 KECCAK256 PUSH0 SWAP1 SLOAD SWAP1 PUSH2 0x100 EXP SWAP1 DIV PUSH20 0xFFFFFFFFFFFFFFFFFFFFFFFFFFFFFFFFFFFFFFFF AND SWAP1 POP SWAP2 SWAP1 POP JUMP JUMPDEST PUSH0 CALLER SWAP1 POP SWAP1 JUMP JUMPDEST PUSH2 0x2E48 DUP4 DUP4 DUP4 PUSH1 0x1 PUSH2 0x35F2 JUMP JUMPDEST POP POP POP JUMP JUMPDEST PUSH2 0x2E66 DUP3 DUP3 PUSH1 0x40 MLOAD DUP1 PUSH1 0x20 ADD PUSH1 0x40 MSTORE DUP1 PUSH0 DUP2 MSTORE POP PUSH2 0x37B1 JUMP JUMPDEST POP POP JUMP JUMPDEST PUSH2 0x2E72 PUSH2 0x2E34 JUMP JUMPDEST PUSH20 0xFFFFFFFFFFFFFFFFFFFFFFFFFFFFFFFFFFFFFFFF AND PUSH2 0x2E90 PUSH2 0x1F90 JUMP JUMPDEST PUSH20 0xFFFFFFFFFFFFFFFFFFFFFFFFFFFFFFFFFFFFFFFF AND EQ PUSH2 0x2EEF JUMPI PUSH2 0x2EB3 PUSH2 0x2E34 JUMP JUMPDEST PUSH1 0x40 MLOAD PUSH32 0x118CDAA700000000000000000000000000000000000000000000000000000000 DUP2 MSTORE PUSH1 0x4 ADD PUSH2 0x2EE6 SWAP2 SWAP1 PUSH2 0x3F63 JUMP JUMPDEST PUSH1 0x40 MLOAD DUP1 SWAP2 SUB SWAP1 REVERT JUMPDEST JUMP JUMPDEST PUSH0 DUP1 PUSH2 0x2EFC DUP5 PUSH2 0x35B9 JUMP JUMPDEST SWAP1 POP PUSH0 PUSH20 0xFFFFFFFFFFFFFFFFFFFFFFFFFFFFFFFFFFFFFFFF AND DUP4 PUSH20 0xFFFFFFFFFFFFFFFFFFFFFFFFFFFFFFFFFFFFFFFF AND EQ PUSH2 0x2F3D JUMPI PUSH2 0x2F3C DUP2 DUP5 DUP7 PUSH2 0x37D4 JUMP JUMPDEST JUMPDEST PUSH0 PUSH20 0xFFFFFFFFFFFFFFFFFFFFFFFFFFFFFFFFFFFFFFFF AND DUP2 PUSH20 0xFFFFFFFFFFFFFFFFFFFFFFFFFFFFFFFFFFFFFFFF AND EQ PUSH2 0x2FC8 JUMPI PUSH2 0x2F7C PUSH0 DUP6 PUSH0 DUP1 PUSH2 0x35F2 JUMP JUMPDEST PUSH1 0x1 PUSH1 0x3 PUSH0 DUP4 PUSH20 0xFFFFFFFFFFFFFFFFFFFFFFFFFFFFFFFFFFFFFFFF AND PUSH20 0xFFFFFFFFFFFFFFFFFFFFFFFFFFFFFFFFFFFFFFFF AND DUP2 MSTORE PUSH1 0x20 ADD SWAP1 DUP2 MSTORE PUSH1 0x20 ADD PUSH0 KECCAK256 PUSH0 DUP3 DUP3 SLOAD SUB SWAP3 POP POP DUP2 SWAP1 SSTORE POP JUMPDEST PUSH0 PUSH20 0xFFFFFFFFFFFFFFFFFFFFFFFFFFFFFFFFFFFFFFFF AND DUP6 PUSH20 0xFFFFFFFFFFFFFFFFFFFFFFFFFFFFFFFFFFFFFFFF AND EQ PUSH2 0x3047 JUMPI PUSH1 0x1 PUSH1 0x3 PUSH0 DUP8 PUSH20 0xFFFFFFFFFFFFFFFFFFFFFFFFFFFFFFFFFFFFFFFF AND PUSH20 0xFFFFFFFFFFFFFFFFFFFFFFFFFFFFFFFFFFFFFFFF AND DUP2 MSTORE PUSH1 0x20 ADD SWAP1 DUP2 MSTORE PUSH1 0x20 ADD PUSH0 KECCAK256 PUSH0 DUP3 DUP3 SLOAD ADD SWAP3 POP POP DUP2 SWAP1 SSTORE POP JUMPDEST DUP5 PUSH1 0x2 PUSH0 DUP7 DUP2 MSTORE PUSH1 0x20 ADD SWAP1 DUP2 MSTORE PUSH1 0x20 ADD PUSH0 KECCAK256 PUSH0 PUSH2 0x100 EXP DUP2 SLOAD DUP2 PUSH20 0xFFFFFFFFFFFFFFFFFFFFFFFFFFFFFFFFFFFFFFFF MUL NOT AND SWAP1 DUP4 PUSH20 0xFFFFFFFFFFFFFFFFFFFFFFFFFFFFFFFFFFFFFFFF AND MUL OR SWAP1 SSTORE POP DUP4 DUP6 PUSH20 0xFFFFFFFFFFFFFFFFFFFFFFFFFFFFFFFFFFFFFFFF AND DUP3 PUSH20 0xFFFFFFFFFFFFFFFFFFFFFFFFFFFFFFFFFFFFFFFF AND PUSH32 0xDDF252AD1BE2C89B69C2B068FC378DAA952BA7F163C4A11628F55A4DF523B3EF PUSH1 0x40 MLOAD PUSH1 0x40 MLOAD DUP1 SWAP2 SUB SWAP1 LOG4 DUP1 SWAP2 POP POP SWAP4 SWAP3 POP POP POP JUMP JUMPDEST PUSH0 PUSH1 0x7 PUSH0 SWAP1 SLOAD SWAP1 PUSH2 0x100 EXP SWAP1 DIV PUSH20 0xFFFFFFFFFFFFFFFFFFFFFFFFFFFFFFFFFFFFFFFF AND SWAP1 POP DUP2 PUSH1 0x7 PUSH0 PUSH2 0x100 EXP DUP2 SLOAD DUP2 PUSH20 0xFFFFFFFFFFFFFFFFFFFFFFFFFFFFFFFFFFFFFFFF MUL NOT AND SWAP1 DUP4 PUSH20 0xFFFFFFFFFFFFFFFFFFFFFFFFFFFFFFFFFFFFFFFF AND MUL OR SWAP1 SSTORE POP DUP2 PUSH20 0xFFFFFFFFFFFFFFFFFFFFFFFFFFFFFFFFFFFFFFFF AND DUP2 PUSH20 0xFFFFFFFFFFFFFFFFFFFFFFFFFFFFFFFFFFFFFFFF AND PUSH32 0x8BE0079C531659141344CD1FD0A4F28419497F9722A3DAAFE3B4186F6B6457E0 PUSH1 0x40 MLOAD PUSH1 0x40 MLOAD DUP1 SWAP2 SUB SWAP1 LOG3 POP POP JUMP JUMPDEST PUSH0 PUSH20 0xFFFFFFFFFFFFFFFFFFFFFFFFFFFFFFFFFFFFFFFF AND DUP3 PUSH20 0xFFFFFFFFFFFFFFFFFFFFFFFFFFFFFFFFFFFFFFFF AND SUB PUSH2 0x322F JUMPI DUP2 PUSH1 0x40 MLOAD PUSH32 0x5B08BA1800000000000000000000000000000000000000000000000000000000 DUP2 MSTORE PUSH1 0x4 ADD PUSH2 0x3226 SWAP2 SWAP1 PUSH2 0x3F63 JUMP JUMPDEST PUSH1 0x40 MLOAD DUP1 SWAP2 SUB SWAP1 REVERT JUMPDEST DUP1 PUSH1 0x5 PUSH0 DUP6 PUSH20 0xFFFFFFFFFFFFFFFFFFFFFFFFFFFFFFFFFFFFFFFF AND PUSH20 0xFFFFFFFFFFFFFFFFFFFFFFFFFFFFFFFFFFFFFFFF AND DUP2 MSTORE PUSH1 0x20 ADD SWAP1 DUP2 MSTORE PUSH1 0x20 ADD PUSH0 KECCAK256 PUSH0 DUP5 PUSH20 0xFFFFFFFFFFFFFFFFFFFFFFFFFFFFFFFFFFFFFFFF AND PUSH20 0xFFFFFFFFFFFFFFFFFFFFFFFFFFFFFFFFFFFFFFFF AND DUP2 MSTORE PUSH1 0x20 ADD SWAP1 DUP2 MSTORE PUSH1 0x20 ADD PUSH0 KECCAK256 PUSH0 PUSH2 0x100 EXP DUP2 SLOAD DUP2 PUSH1 0xFF MUL NOT AND SWAP1 DUP4 ISZERO ISZERO MUL OR SWAP1 SSTORE POP DUP2 PUSH20 0xFFFFFFFFFFFFFFFFFFFFFFFFFFFFFFFFFFFFFFFF AND DUP4 PUSH20 0xFFFFFFFFFFFFFFFFFFFFFFFFFFFFFFFFFFFFFFFF AND PUSH32 0x17307EAB39AB6107E8899845AD3D59BD9653F200F220920489CA2B5937696C31 DUP4 PUSH1 0x40 MLOAD PUSH2 0x331B SWAP2 SWAP1 PUSH2 0x3E03 JUMP JUMPDEST PUSH1 0x40 MLOAD DUP1 SWAP2 SUB SWAP1 LOG3 POP POP POP JUMP JUMPDEST PUSH0 DUP4 PUSH20 0xFFFFFFFFFFFFFFFFFFFFFFFFFFFFFFFFFFFFFFFF AND EXTCODESIZE GT ISZERO PUSH2 0x34CD JUMPI DUP3 PUSH20 0xFFFFFFFFFFFFFFFFFFFFFFFFFFFFFFFFFFFFFFFF AND PUSH4 0x150B7A02 DUP7 DUP7 DUP6 DUP6 PUSH1 0x40 MLOAD DUP6 PUSH4 0xFFFFFFFF AND PUSH1 0xE0 SHL DUP2 MSTORE PUSH1 0x4 ADD PUSH2 0x3386 SWAP5 SWAP4 SWAP3 SWAP2 SWAP1 PUSH2 0x53F9 JUMP JUMPDEST PUSH1 0x20 PUSH1 0x40 MLOAD DUP1 DUP4 SUB DUP2 PUSH0 DUP8 GAS CALL SWAP3 POP POP POP DUP1 ISZERO PUSH2 0x33C1 JUMPI POP PUSH1 0x40 MLOAD RETURNDATASIZE PUSH1 0x1F NOT PUSH1 0x1F DUP3 ADD AND DUP3 ADD DUP1 PUSH1 0x40 MSTORE POP DUP2 ADD SWAP1 PUSH2 0x33BE SWAP2 SWAP1 PUSH2 0x5457 JUMP JUMPDEST PUSH1 0x1 JUMPDEST PUSH2 0x3442 JUMPI RETURNDATASIZE DUP1 PUSH0 DUP2 EQ PUSH2 0x33EF JUMPI PUSH1 0x40 MLOAD SWAP2 POP PUSH1 0x1F NOT PUSH1 0x3F RETURNDATASIZE ADD AND DUP3 ADD PUSH1 0x40 MSTORE RETURNDATASIZE DUP3 MSTORE RETURNDATASIZE PUSH0 PUSH1 0x20 DUP5 ADD RETURNDATACOPY PUSH2 0x33F4 JUMP JUMPDEST PUSH1 0x60 SWAP2 POP JUMPDEST POP PUSH0 DUP2 MLOAD SUB PUSH2 0x343A JUMPI DUP4 PUSH1 0x40 MLOAD PUSH32 0x64A0AE9200000000000000000000000000000000000000000000000000000000 DUP2 MSTORE PUSH1 0x4 ADD PUSH2 0x3431 SWAP2 SWAP1 PUSH2 0x3F63 JUMP JUMPDEST PUSH1 0x40 MLOAD DUP1 SWAP2 SUB SWAP1 REVERT JUMPDEST DUP1 MLOAD DUP2 PUSH1 0x20 ADD REVERT JUMPDEST PUSH4 0x150B7A02 PUSH1 0xE0 SHL PUSH28 0xFFFFFFFFFFFFFFFFFFFFFFFFFFFFFFFFFFFFFFFFFFFFFFFFFFFFFFFF NOT AND DUP2 PUSH28 0xFFFFFFFFFFFFFFFFFFFFFFFFFFFFFFFFFFFFFFFFFFFFFFFFFFFFFFFF NOT AND EQ PUSH2 0x34CB JUMPI DUP4 PUSH1 0x40 MLOAD PUSH32 0x64A0AE9200000000000000000000000000000000000000000000000000000000 DUP2 MSTORE PUSH1 0x4 ADD PUSH2 0x34C2 SWAP2 SWAP1 PUSH2 0x3F63 JUMP JUMPDEST PUSH1 0x40 MLOAD DUP1 SWAP2 SUB SWAP1 REVERT JUMPDEST POP JUMPDEST POP POP POP POP POP JUMP JUMPDEST PUSH1 0x60 PUSH1 0x40 MLOAD DUP1 PUSH1 0x20 ADD PUSH1 0x40 MSTORE DUP1 PUSH0 DUP2 MSTORE POP SWAP1 POP SWAP1 JUMP JUMPDEST PUSH1 0x60 PUSH2 0x34F5 DUP3 PUSH2 0x2D75 JUMP JUMPDEST POP PUSH0 PUSH2 0x34FF PUSH2 0x34D4 JUMP JUMPDEST SWAP1 POP PUSH0 DUP2 MLOAD GT PUSH2 0x351D JUMPI PUSH1 0x40 MLOAD DUP1 PUSH1 0x20 ADD PUSH1 0x40 MSTORE DUP1 PUSH0 DUP2 MSTORE POP PUSH2 0x3548 JUMP JUMPDEST DUP1 PUSH2 0x3527 DUP5 PUSH2 0x3897 JUMP JUMPDEST PUSH1 0x40 MLOAD PUSH1 0x20 ADD PUSH2 0x3538 SWAP3 SWAP2 SWAP1 PUSH2 0x5226 JUMP JUMPDEST PUSH1 0x40 MLOAD PUSH1 0x20 DUP2 DUP4 SUB SUB DUP2 MSTORE SWAP1 PUSH1 0x40 MSTORE JUMPDEST SWAP2 POP POP SWAP2 SWAP1 POP JUMP JUMPDEST PUSH0 PUSH32 0x1FFC9A700000000000000000000000000000000000000000000000000000000 PUSH28 0xFFFFFFFFFFFFFFFFFFFFFFFFFFFFFFFFFFFFFFFFFFFFFFFFFFFFFFFF NOT AND DUP3 PUSH28 0xFFFFFFFFFFFFFFFFFFFFFFFFFFFFFFFFFFFFFFFFFFFFFFFFFFFFFFFF NOT AND EQ SWAP1 POP SWAP2 SWAP1 POP JUMP JUMPDEST PUSH0 PUSH1 0x2 PUSH0 DUP4 DUP2 MSTORE PUSH1 0x20 ADD SWAP1 DUP2 MSTORE PUSH1 0x20 ADD PUSH0 KECCAK256 PUSH0 SWAP1 SLOAD SWAP1 PUSH2 0x100 EXP SWAP1 DIV PUSH20 0xFFFFFFFFFFFFFFFFFFFFFFFFFFFFFFFFFFFFFFFF AND SWAP1 POP SWAP2 SWAP1 POP JUMP JUMPDEST DUP1 DUP1 PUSH2 0x362A JUMPI POP PUSH0 PUSH20 0xFFFFFFFFFFFFFFFFFFFFFFFFFFFFFFFFFFFFFFFF AND DUP3 PUSH20 0xFFFFFFFFFFFFFFFFFFFFFFFFFFFFFFFFFFFFFFFF AND EQ ISZERO JUMPDEST ISZERO PUSH2 0x375C JUMPI PUSH0 PUSH2 0x3639 DUP5 PUSH2 0x2D75 JUMP JUMPDEST SWAP1 POP PUSH0 PUSH20 0xFFFFFFFFFFFFFFFFFFFFFFFFFFFFFFFFFFFFFFFF AND DUP4 PUSH20 0xFFFFFFFFFFFFFFFFFFFFFFFFFFFFFFFFFFFFFFFF AND EQ ISZERO DUP1 ISZERO PUSH2 0x36A3 JUMPI POP DUP3 PUSH20 0xFFFFFFFFFFFFFFFFFFFFFFFFFFFFFFFFFFFFFFFF AND DUP2 PUSH20 0xFFFFFFFFFFFFFFFFFFFFFFFFFFFFFFFFFFFFFFFF AND EQ ISZERO JUMPDEST DUP1 ISZERO PUSH2 0x36B6 JUMPI POP PUSH2 0x36B4 DUP2 DUP5 PUSH2 0x23BF JUMP JUMPDEST ISZERO JUMPDEST ISZERO PUSH2 0x36F8 JUMPI DUP3 PUSH1 0x40 MLOAD PUSH32 0xA9FBF51F00000000000000000000000000000000000000000000000000000000 DUP2 MSTORE PUSH1 0x4 ADD PUSH2 0x36EF SWAP2 SWAP1 PUSH2 0x3F63 JUMP JUMPDEST PUSH1 0x40 MLOAD DUP1 SWAP2 SUB SWAP1 REVERT JUMPDEST DUP2 ISZERO PUSH2 0x375A JUMPI DUP4 DUP6 PUSH20 0xFFFFFFFFFFFFFFFFFFFFFFFFFFFFFFFFFFFFFFFF AND DUP3 PUSH20 0xFFFFFFFFFFFFFFFFFFFFFFFFFFFFFFFFFFFFFFFF AND PUSH32 0x8C5BE1E5EBEC7D5BD14F71427D1E84F3DD0314C0F7B2291E5B200AC8C7C3B925 PUSH1 0x40 MLOAD PUSH1 0x40 MLOAD DUP1 SWAP2 SUB SWAP1 LOG4 JUMPDEST POP JUMPDEST DUP4 PUSH1 0x4 PUSH0 DUP6 DUP2 MSTORE PUSH1 0x20 ADD SWAP1 DUP2 MSTORE PUSH1 0x20 ADD PUSH0 KECCAK256 PUSH0 PUSH2 0x100 EXP DUP2 SLOAD DUP2 PUSH20 0xFFFFFFFFFFFFFFFFFFFFFFFFFFFFFFFFFFFFFFFF MUL NOT AND SWAP1 DUP4 PUSH20 0xFFFFFFFFFFFFFFFFFFFFFFFFFFFFFFFFFFFFFFFF AND MUL OR SWAP1 SSTORE POP POP POP POP POP JUMP JUMPDEST PUSH2 0x37BB DUP4 DUP4 PUSH2 0x3961 JUMP JUMPDEST PUSH2 0x37CF PUSH2 0x37C6 PUSH2 0x2E34 JUMP JUMPDEST PUSH0 DUP6 DUP6 DUP6 PUSH2 0x3328 JUMP JUMPDEST POP POP POP JUMP JUMPDEST PUSH2 0x37DF DUP4 DUP4 DUP4 PUSH2 0x3A54 JUMP JUMPDEST PUSH2 0x3892 JUMPI PUSH0 PUSH20 0xFFFFFFFFFFFFFFFFFFFFFFFFFFFFFFFFFFFFFFFF AND DUP4 PUSH20 0xFFFFFFFFFFFFFFFFFFFFFFFFFFFFFFFFFFFFFFFF AND SUB PUSH2 0x3853 JUMPI DUP1 PUSH1 0x40 MLOAD PUSH32 0x7E27328900000000000000000000000000000000000000000000000000000000 DUP2 MSTORE PUSH1 0x4 ADD PUSH2 0x384A SWAP2 SWAP1 PUSH2 0x4761 JUMP JUMPDEST PUSH1 0x40 MLOAD DUP1 SWAP2 SUB SWAP1 REVERT JUMPDEST DUP2 DUP2 PUSH1 0x40 MLOAD PUSH32 0x177E802F00000000000000000000000000000000000000000000000000000000 DUP2 MSTORE PUSH1 0x4 ADD PUSH2 0x3889 SWAP3 SWAP2 SWAP1 PUSH2 0x5482 JUMP JUMPDEST PUSH1 0x40 MLOAD DUP1 SWAP2 SUB SWAP1 REVERT JUMPDEST POP POP POP JUMP JUMPDEST PUSH1 0x60 PUSH0 PUSH1 0x1 PUSH2 0x38A5 DUP5 PUSH2 0x3B14 JUMP JUMPDEST ADD SWAP1 POP PUSH0 DUP2 PUSH8 0xFFFFFFFFFFFFFFFF DUP2 GT ISZERO PUSH2 0x38C3 JUMPI PUSH2 0x38C2 PUSH2 0x3FEC JUMP JUMPDEST JUMPDEST PUSH1 0x40 MLOAD SWAP1 DUP1 DUP3 MSTORE DUP1 PUSH1 0x1F ADD PUSH1 0x1F NOT AND PUSH1 0x20 ADD DUP3 ADD PUSH1 0x40 MSTORE DUP1 ISZERO PUSH2 0x38F5 JUMPI DUP2 PUSH1 0x20 ADD PUSH1 0x1 DUP3 MUL DUP1 CALLDATASIZE DUP4 CALLDATACOPY DUP1 DUP3 ADD SWAP2 POP POP SWAP1 POP JUMPDEST POP SWAP1 POP PUSH0 DUP3 PUSH1 0x20 ADD DUP3 ADD SWAP1 POP JUMPDEST PUSH1 0x1 ISZERO PUSH2 0x3956 JUMPI DUP1 DUP1 PUSH1 0x1 SWAP1 SUB SWAP2 POP POP PUSH32 0x3031323334353637383961626364656600000000000000000000000000000000 PUSH1 0xA DUP7 MOD BYTE DUP2 MSTORE8 PUSH1 0xA DUP6 DUP2 PUSH2 0x394B JUMPI PUSH2 0x394A PUSH2 0x54A9 JUMP JUMPDEST JUMPDEST DIV SWAP5 POP PUSH0 DUP6 SUB PUSH2 0x3902 JUMPI JUMPDEST DUP2 SWAP4 POP POP POP POP SWAP2 SWAP1 POP JUMP JUMPDEST PUSH0 PUSH20 0xFFFFFFFFFFFFFFFFFFFFFFFFFFFFFFFFFFFFFFFF AND DUP3 PUSH20 0xFFFFFFFFFFFFFFFFFFFFFFFFFFFFFFFFFFFFFFFF AND SUB PUSH2 0x39D1 JUMPI PUSH0 PUSH1 0x40 MLOAD PUSH32 0x64A0AE9200000000000000000000000000000000000000000000000000000000 DUP2 MSTORE PUSH1 0x4 ADD PUSH2 0x39C8 SWAP2 SWAP1 PUSH2 0x3F63 JUMP JUMPDEST PUSH1 0x40 MLOAD DUP1 SWAP2 SUB SWAP1 REVERT JUMPDEST PUSH0 PUSH2 0x39DD DUP4 DUP4 PUSH0 PUSH2 0x2EF1 JUMP JUMPDEST SWAP1 POP PUSH0 PUSH20 0xFFFFFFFFFFFFFFFFFFFFFFFFFFFFFFFFFFFFFFFF AND DUP2 PUSH20 0xFFFFFFFFFFFFFFFFFFFFFFFFFFFFFFFFFFFFFFFF AND EQ PUSH2 0x3A4F JUMPI PUSH0 PUSH1 0x40 MLOAD PUSH32 0x73C6AC6E00000000000000000000000000000000000000000000000000000000 DUP2 MSTORE PUSH1 0x4 ADD PUSH2 0x3A46 SWAP2 SWAP1 PUSH2 0x3F63 JUMP JUMPDEST PUSH1 0x40 MLOAD DUP1 SWAP2 SUB SWAP1 REVERT JUMPDEST POP POP POP JUMP JUMPDEST PUSH0 DUP1 PUSH20 0xFFFFFFFFFFFFFFFFFFFFFFFFFFFFFFFFFFFFFFFF AND DUP4 PUSH20 0xFFFFFFFFFFFFFFFFFFFFFFFFFFFFFFFFFFFFFFFF AND EQ ISZERO DUP1 ISZERO PUSH2 0x3B0B JUMPI POP DUP3 PUSH20 0xFFFFFFFFFFFFFFFFFFFFFFFFFFFFFFFFFFFFFFFF AND DUP5 PUSH20 0xFFFFFFFFFFFFFFFFFFFFFFFFFFFFFFFFFFFFFFFF AND EQ DUP1 PUSH2 0x3ACC JUMPI POP PUSH2 0x3ACB DUP5 DUP5 PUSH2 0x23BF JUMP JUMPDEST JUMPDEST DUP1 PUSH2 0x3B0A JUMPI POP DUP3 PUSH20 0xFFFFFFFFFFFFFFFFFFFFFFFFFFFFFFFFFFFFFFFF AND PUSH2 0x3AF2 DUP4 PUSH2 0x2DFB JUMP JUMPDEST PUSH20 0xFFFFFFFFFFFFFFFFFFFFFFFFFFFFFFFFFFFFFFFF AND EQ JUMPDEST JUMPDEST SWAP1 POP SWAP4 SWAP3 POP POP POP JUMP JUMPDEST PUSH0 DUP1 PUSH0 SWAP1 POP PUSH27 0x184F03E93FF9F4DAA797ED6E38ED64BF6A1F010000000000000000 DUP4 LT PUSH2 0x3B70 JUMPI PUSH27 0x184F03E93FF9F4DAA797ED6E38ED64BF6A1F010000000000000000 DUP4 DUP2 PUSH2 0x3B66 JUMPI PUSH2 0x3B65 PUSH2 0x54A9 JUMP JUMPDEST JUMPDEST DIV SWAP3 POP PUSH1 0x40 DUP2 ADD SWAP1 POP JUMPDEST PUSH14 0x4EE2D6D415B85ACEF8100000000 DUP4 LT PUSH2 0x3BAD JUMPI PUSH14 0x4EE2D6D415B85ACEF8100000000 DUP4 DUP2 PUSH2 0x3BA3 JUMPI PUSH2 0x3BA2 PUSH2 0x54A9 JUMP JUMPDEST JUMPDEST DIV SWAP3 POP PUSH1 0x20 DUP2 ADD SWAP1 POP JUMPDEST PUSH7 0x2386F26FC10000 DUP4 LT PUSH2 0x3BDC JUMPI PUSH7 0x2386F26FC10000 DUP4 DUP2 PUSH2 0x3BD2 JUMPI PUSH2 0x3BD1 PUSH2 0x54A9 JUMP JUMPDEST JUMPDEST DIV SWAP3 POP PUSH1 0x10 DUP2 ADD SWAP1 POP JUMPDEST PUSH4 0x5F5E100 DUP4 LT PUSH2 0x3C05 JUMPI PUSH4 0x5F5E100 DUP4 DUP2 PUSH2 0x3BFB JUMPI PUSH2 0x3BFA PUSH2 0x54A9 JUMP JUMPDEST JUMPDEST DIV SWAP3 POP PUSH1 0x8 DUP2 ADD SWAP1 POP JUMPDEST PUSH2 0x2710 DUP4 LT PUSH2 0x3C2A JUMPI PUSH2 0x2710 DUP4 DUP2 PUSH2 0x3C20 JUMPI PUSH2 0x3C1F PUSH2 0x54A9 JUMP JUMPDEST JUMPDEST DIV SWAP3 POP PUSH1 0x4 DUP2 ADD SWAP1 POP JUMPDEST PUSH1 0x64 DUP4 LT PUSH2 0x3C4D JUMPI PUSH1 0x64 DUP4 DUP2 PUSH2 0x3C43 JUMPI PUSH2 0x3C42 PUSH2 0x54A9 JUMP JUMPDEST JUMPDEST DIV SWAP3 POP PUSH1 0x2 DUP2 ADD SWAP1 POP JUMPDEST PUSH1 0xA DUP4 LT PUSH2 0x3C5C JUMPI PUSH1 0x1 DUP2 ADD SWAP1 POP JUMPDEST DUP1 SWAP2 POP POP SWAP2 SWAP1 POP JUMP JUMPDEST POP DUP1 SLOAD PUSH2 0x3C71 SWAP1 PUSH2 0x4B91 JUMP JUMPDEST PUSH0 DUP3 SSTORE DUP1 PUSH1 0x1F LT PUSH2 0x3C82 JUMPI POP PUSH2 0x3C9F JUMP JUMPDEST PUSH1 0x1F ADD PUSH1 0x20 SWAP1 DIV SWAP1 PUSH0 MSTORE PUSH1 0x20 PUSH0 KECCAK256 SWAP1 DUP2 ADD SWAP1 PUSH2 0x3C9E SWAP2 SWAP1 PUSH2 0x3D3D JUMP JUMPDEST JUMPDEST POP JUMP JUMPDEST PUSH1 0x40 MLOAD DUP1 PUSH1 0xA0 ADD PUSH1 0x40 MSTORE DUP1 PUSH1 0x60 DUP2 MSTORE PUSH1 0x20 ADD PUSH1 0x60 DUP2 MSTORE PUSH1 0x20 ADD PUSH1 0x60 DUP2 MSTORE PUSH1 0x20 ADD PUSH1 0x60 DUP2 MSTORE PUSH1 0x20 ADD PUSH1 0x60 DUP2 MSTORE POP SWAP1 JUMP JUMPDEST PUSH1 0x40 MLOAD DUP1 PUSH1 0xC0 ADD PUSH1 0x40 MSTORE DUP1 PUSH1 0x60 DUP2 MSTORE PUSH1 0x20 ADD PUSH1 0x60 DUP2 MSTORE PUSH1 0x20 ADD PUSH1 0x60 DUP2 MSTORE PUSH1 0x20 ADD PUSH1 0x60 DUP2 MSTORE PUSH1 0x20 ADD PUSH1 0x60 DUP2 MSTORE PUSH1 0x20 ADD PUSH1 0x60 DUP2 MSTORE POP SWAP1 JUMP JUMPDEST PUSH1 0x40 MLOAD DUP1 PUSH1 0xC0 ADD PUSH1 0x40 MSTORE DUP1 PUSH1 0x60 DUP2 MSTORE PUSH1 0x20 ADD PUSH1 0x60 DUP2 MSTORE PUSH1 0x20 ADD PUSH1 0x60 DUP2 MSTORE PUSH1 0x20 ADD PUSH1 0x60 DUP2 MSTORE PUSH1 0x20 ADD PUSH1 0x60 DUP2 MSTORE PUSH1 0x20 ADD PUSH1 0x60 DUP2 MSTORE POP SWAP1 JUMP JUMPDEST JUMPDEST DUP1 DUP3 GT ISZERO PUSH2 0x3D54 JUMPI PUSH0 DUP2 PUSH0 SWAP1 SSTORE POP PUSH1 0x1 ADD PUSH2 0x3D3E JUMP JUMPDEST POP SWAP1 JUMP JUMPDEST PUSH0 PUSH1 0x40 MLOAD SWAP1 POP SWAP1 JUMP JUMPDEST PUSH0 DUP1 REVERT JUMPDEST PUSH0 DUP1 REVERT JUMPDEST PUSH0 PUSH32 0xFFFFFFFF00000000000000000000000000000000000000000000000000000000 DUP3 AND SWAP1 POP SWAP2 SWAP1 POP JUMP JUMPDEST PUSH2 0x3D9D DUP2 PUSH2 0x3D69 JUMP JUMPDEST DUP2 EQ PUSH2 0x3DA7 JUMPI PUSH0 DUP1 REVERT JUMPDEST POP JUMP JUMPDEST PUSH0 DUP2 CALLDATALOAD SWAP1 POP PUSH2 0x3DB8 DUP2 PUSH2 0x3D94 JUMP JUMPDEST SWAP3 SWAP2 POP POP JUMP JUMPDEST PUSH0 PUSH1 0x20 DUP3 DUP5 SUB SLT ISZERO PUSH2 0x3DD3 JUMPI PUSH2 0x3DD2 PUSH2 0x3D61 JUMP JUMPDEST JUMPDEST PUSH0 PUSH2 0x3DE0 DUP5 DUP3 DUP6 ADD PUSH2 0x3DAA JUMP JUMPDEST SWAP2 POP POP SWAP3 SWAP2 POP POP JUMP JUMPDEST PUSH0 DUP2 ISZERO ISZERO SWAP1 POP SWAP2 SWAP1 POP JUMP JUMPDEST PUSH2 0x3DFD DUP2 PUSH2 0x3DE9 JUMP JUMPDEST DUP3 MSTORE POP POP JUMP JUMPDEST PUSH0 PUSH1 0x20 DUP3 ADD SWAP1 POP PUSH2 0x3E16 PUSH0 DUP4 ADD DUP5 PUSH2 0x3DF4 JUMP JUMPDEST SWAP3 SWAP2 POP POP JUMP JUMPDEST PUSH0 DUP2 MLOAD SWAP1 POP SWAP2 SWAP1 POP JUMP JUMPDEST PUSH0 DUP3 DUP3 MSTORE PUSH1 0x20 DUP3 ADD SWAP1 POP SWAP3 SWAP2 POP POP JUMP JUMPDEST PUSH0 JUMPDEST DUP4 DUP2 LT ISZERO PUSH2 0x3E53 JUMPI DUP1 DUP3 ADD MLOAD DUP2 DUP5 ADD MSTORE PUSH1 0x20 DUP2 ADD SWAP1 POP PUSH2 0x3E38 JUMP JUMPDEST PUSH0 DUP5 DUP5 ADD MSTORE POP POP POP POP JUMP JUMPDEST PUSH0 PUSH1 0x1F NOT PUSH1 0x1F DUP4 ADD AND SWAP1 POP SWAP2 SWAP1 POP JUMP JUMPDEST PUSH0 PUSH2 0x3E78 DUP3 PUSH2 0x3E1C JUMP JUMPDEST PUSH2 0x3E82 DUP2 DUP6 PUSH2 0x3E26 JUMP JUMPDEST SWAP4 POP PUSH2 0x3E92 DUP2 DUP6 PUSH1 0x20 DUP7 ADD PUSH2 0x3E36 JUMP JUMPDEST PUSH2 0x3E9B DUP2 PUSH2 0x3E5E JUMP JUMPDEST DUP5 ADD SWAP2 POP POP SWAP3 SWAP2 POP POP JUMP JUMPDEST PUSH0 PUSH1 0x20 DUP3 ADD SWAP1 POP DUP2 DUP2 SUB PUSH0 DUP4 ADD MSTORE PUSH2 0x3EBE DUP2 DUP5 PUSH2 0x3E6E JUMP JUMPDEST SWAP1 POP SWAP3 SWAP2 POP POP JUMP JUMPDEST PUSH0 DUP2 SWAP1 POP SWAP2 SWAP1 POP JUMP JUMPDEST PUSH2 0x3ED8 DUP2 PUSH2 0x3EC6 JUMP JUMPDEST DUP2 EQ PUSH2 0x3EE2 JUMPI PUSH0 DUP1 REVERT JUMPDEST POP JUMP JUMPDEST PUSH0 DUP2 CALLDATALOAD SWAP1 POP PUSH2 0x3EF3 DUP2 PUSH2 0x3ECF JUMP JUMPDEST SWAP3 SWAP2 POP POP JUMP JUMPDEST PUSH0 PUSH1 0x20 DUP3 DUP5 SUB SLT ISZERO PUSH2 0x3F0E JUMPI PUSH2 0x3F0D PUSH2 0x3D61 JUMP JUMPDEST JUMPDEST PUSH0 PUSH2 0x3F1B DUP5 DUP3 DUP6 ADD PUSH2 0x3EE5 JUMP JUMPDEST SWAP2 POP POP SWAP3 SWAP2 POP POP JUMP JUMPDEST PUSH0 PUSH20 0xFFFFFFFFFFFFFFFFFFFFFFFFFFFFFFFFFFFFFFFF DUP3 AND SWAP1 POP SWAP2 SWAP1 POP JUMP JUMPDEST PUSH0 PUSH2 0x3F4D DUP3 PUSH2 0x3F24 JUMP JUMPDEST SWAP1 POP SWAP2 SWAP1 POP JUMP JUMPDEST PUSH2 0x3F5D DUP2 PUSH2 0x3F43 JUMP JUMPDEST DUP3 MSTORE POP POP JUMP JUMPDEST PUSH0 PUSH1 0x20 DUP3 ADD SWAP1 POP PUSH2 0x3F76 PUSH0 DUP4 ADD DUP5 PUSH2 0x3F54 JUMP JUMPDEST SWAP3 SWAP2 POP POP JUMP JUMPDEST PUSH2 0x3F85 DUP2 PUSH2 0x3F43 JUMP JUMPDEST DUP2 EQ PUSH2 0x3F8F JUMPI PUSH0 DUP1 REVERT JUMPDEST POP JUMP JUMPDEST PUSH0 DUP2 CALLDATALOAD SWAP1 POP PUSH2 0x3FA0 DUP2 PUSH2 0x3F7C JUMP JUMPDEST SWAP3 SWAP2 POP POP JUMP JUMPDEST PUSH0 DUP1 PUSH1 0x40 DUP4 DUP6 SUB SLT ISZERO PUSH2 0x3FBC JUMPI PUSH2 0x3FBB PUSH2 0x3D61 JUMP JUMPDEST JUMPDEST PUSH0 PUSH2 0x3FC9 DUP6 DUP3 DUP7 ADD PUSH2 0x3F92 JUMP JUMPDEST SWAP3 POP POP PUSH1 0x20 PUSH2 0x3FDA DUP6 DUP3 DUP7 ADD PUSH2 0x3EE5 JUMP JUMPDEST SWAP2 POP POP SWAP3 POP SWAP3 SWAP1 POP JUMP JUMPDEST PUSH0 DUP1 REVERT JUMPDEST PUSH0 DUP1 REVERT JUMPDEST PUSH32 0x4E487B7100000000000000000000000000000000000000000000000000000000 PUSH0 MSTORE PUSH1 0x41 PUSH1 0x4 MSTORE PUSH1 0x24 PUSH0 REVERT JUMPDEST PUSH2 0x4022 DUP3 PUSH2 0x3E5E JUMP JUMPDEST DUP2 ADD DUP2 DUP2 LT PUSH8 0xFFFFFFFFFFFFFFFF DUP3 GT OR ISZERO PUSH2 0x4041 JUMPI PUSH2 0x4040 PUSH2 0x3FEC JUMP JUMPDEST JUMPDEST DUP1 PUSH1 0x40 MSTORE POP POP POP JUMP JUMPDEST PUSH0 PUSH2 0x4053 PUSH2 0x3D58 JUMP JUMPDEST SWAP1 POP PUSH2 0x405F DUP3 DUP3 PUSH2 0x4019 JUMP JUMPDEST SWAP2 SWAP1 POP JUMP JUMPDEST PUSH0 PUSH8 0xFFFFFFFFFFFFFFFF DUP3 GT ISZERO PUSH2 0x407E JUMPI PUSH2 0x407D PUSH2 0x3FEC JUMP JUMPDEST JUMPDEST PUSH2 0x4087 DUP3 PUSH2 0x3E5E JUMP JUMPDEST SWAP1 POP PUSH1 0x20 DUP2 ADD SWAP1 POP SWAP2 SWAP1 POP JUMP JUMPDEST DUP3 DUP2 DUP4 CALLDATACOPY PUSH0 DUP4 DUP4 ADD MSTORE POP POP POP JUMP JUMPDEST PUSH0 PUSH2 0x40B4 PUSH2 0x40AF DUP5 PUSH2 0x4064 JUMP JUMPDEST PUSH2 0x404A JUMP JUMPDEST SWAP1 POP DUP3 DUP2 MSTORE PUSH1 0x20 DUP2 ADD DUP5 DUP5 DUP5 ADD GT ISZERO PUSH2 0x40D0 JUMPI PUSH2 0x40CF PUSH2 0x3FE8 JUMP JUMPDEST JUMPDEST PUSH2 0x40DB DUP5 DUP3 DUP6 PUSH2 0x4094 JUMP JUMPDEST POP SWAP4 SWAP3 POP POP POP JUMP JUMPDEST PUSH0 DUP3 PUSH1 0x1F DUP4 ADD SLT PUSH2 0x40F7 JUMPI PUSH2 0x40F6 PUSH2 0x3FE4 JUMP JUMPDEST JUMPDEST DUP2 CALLDATALOAD PUSH2 0x4107 DUP5 DUP3 PUSH1 0x20 DUP7 ADD PUSH2 0x40A2 JUMP JUMPDEST SWAP2 POP POP SWAP3 SWAP2 POP POP JUMP JUMPDEST PUSH0 DUP1 PUSH0 DUP1 PUSH0 DUP1 PUSH1 0xC0 DUP8 DUP10 SUB SLT ISZERO PUSH2 0x412A JUMPI PUSH2 0x4129 PUSH2 0x3D61 JUMP JUMPDEST JUMPDEST PUSH0 PUSH2 0x4137 DUP10 DUP3 DUP11 ADD PUSH2 0x3F92 JUMP JUMPDEST SWAP7 POP POP PUSH1 0x20 DUP8 ADD CALLDATALOAD PUSH8 0xFFFFFFFFFFFFFFFF DUP2 GT ISZERO PUSH2 0x4158 JUMPI PUSH2 0x4157 PUSH2 0x3D65 JUMP JUMPDEST JUMPDEST PUSH2 0x4164 DUP10 DUP3 DUP11 ADD PUSH2 0x40E3 JUMP JUMPDEST SWAP6 POP POP PUSH1 0x40 DUP8 ADD CALLDATALOAD PUSH8 0xFFFFFFFFFFFFFFFF DUP2 GT ISZERO PUSH2 0x4185 JUMPI PUSH2 0x4184 PUSH2 0x3D65 JUMP JUMPDEST JUMPDEST PUSH2 0x4191 DUP10 DUP3 DUP11 ADD PUSH2 0x40E3 JUMP JUMPDEST SWAP5 POP POP PUSH1 0x60 DUP8 ADD CALLDATALOAD PUSH8 0xFFFFFFFFFFFFFFFF DUP2 GT ISZERO PUSH2 0x41B2 JUMPI PUSH2 0x41B1 PUSH2 0x3D65 JUMP JUMPDEST JUMPDEST PUSH2 0x41BE DUP10 DUP3 DUP11 ADD PUSH2 0x40E3 JUMP JUMPDEST SWAP4 POP POP PUSH1 0x80 DUP8 ADD CALLDATALOAD PUSH8 0xFFFFFFFFFFFFFFFF DUP2 GT ISZERO PUSH2 0x41DF JUMPI PUSH2 0x41DE PUSH2 0x3D65 JUMP JUMPDEST JUMPDEST PUSH2 0x41EB DUP10 DUP3 DUP11 ADD PUSH2 0x40E3 JUMP JUMPDEST SWAP3 POP POP PUSH1 0xA0 DUP8 ADD CALLDATALOAD PUSH8 0xFFFFFFFFFFFFFFFF DUP2 GT ISZERO PUSH2 0x420C JUMPI PUSH2 0x420B PUSH2 0x3D65 JUMP JUMPDEST JUMPDEST PUSH2 0x4218 DUP10 DUP3 DUP11 ADD PUSH2 0x40E3 JUMP JUMPDEST SWAP2 POP POP SWAP3 SWAP6 POP SWAP3 SWAP6 POP SWAP3 SWAP6 JUMP JUMPDEST PUSH0 PUSH1 0x20 DUP3 DUP5 SUB SLT ISZERO PUSH2 0x423A JUMPI PUSH2 0x4239 PUSH2 0x3D61 JUMP JUMPDEST JUMPDEST PUSH0 PUSH2 0x4247 DUP5 DUP3 DUP6 ADD PUSH2 0x3F92 JUMP JUMPDEST SWAP2 POP POP SWAP3 SWAP2 POP POP JUMP JUMPDEST PUSH0 DUP3 DUP3 MSTORE PUSH1 0x20 DUP3 ADD SWAP1 POP SWAP3 SWAP2 POP POP JUMP JUMPDEST PUSH0 PUSH2 0x426A DUP3 PUSH2 0x3E1C JUMP JUMPDEST PUSH2 0x4274 DUP2 DUP6 PUSH2 0x4250 JUMP JUMPDEST SWAP4 POP PUSH2 0x4284 DUP2 DUP6 PUSH1 0x20 DUP7 ADD PUSH2 0x3E36 JUMP JUMPDEST PUSH2 0x428D DUP2 PUSH2 0x3E5E JUMP JUMPDEST DUP5 ADD SWAP2 POP POP SWAP3 SWAP2 POP POP JUMP JUMPDEST PUSH0 PUSH1 0xA0 DUP4 ADD PUSH0 DUP4 ADD MLOAD DUP5 DUP3 SUB PUSH0 DUP7 ADD MSTORE PUSH2 0x42B2 DUP3 DUP3 PUSH2 0x4260 JUMP JUMPDEST SWAP2 POP POP PUSH1 0x20 DUP4 ADD MLOAD DUP5 DUP3 SUB PUSH1 0x20 DUP7 ADD MSTORE PUSH2 0x42CC DUP3 DUP3 PUSH2 0x4260 JUMP JUMPDEST SWAP2 POP POP PUSH1 0x40 DUP4 ADD MLOAD DUP5 DUP3 SUB PUSH1 0x40 DUP7 ADD MSTORE PUSH2 0x42E6 DUP3 DUP3 PUSH2 0x4260 JUMP JUMPDEST SWAP2 POP POP PUSH1 0x60 DUP4 ADD MLOAD DUP5 DUP3 SUB PUSH1 0x60 DUP7 ADD MSTORE PUSH2 0x4300 DUP3 DUP3 PUSH2 0x4260 JUMP JUMPDEST SWAP2 POP POP PUSH1 0x80 DUP4 ADD MLOAD DUP5 DUP3 SUB PUSH1 0x80 DUP7 ADD MSTORE PUSH2 0x431A DUP3 DUP3 PUSH2 0x4260 JUMP JUMPDEST SWAP2 POP POP DUP1 SWAP2 POP POP SWAP3 SWAP2 POP POP JUMP JUMPDEST PUSH0 DUP2 MLOAD SWAP1 POP SWAP2 SWAP1 POP JUMP JUMPDEST PUSH0 DUP3 DUP3 MSTORE PUSH1 0x20 DUP3 ADD SWAP1 POP SWAP3 SWAP2 POP POP JUMP JUMPDEST PUSH0 DUP2 SWAP1 POP PUSH1 0x20 DUP3 ADD SWAP1 POP SWAP2 SWAP1 POP JUMP JUMPDEST PUSH0 PUSH1 0xC0 DUP4 ADD PUSH0 DUP4 ADD MLOAD DUP5 DUP3 SUB PUSH0 DUP7 ADD MSTORE PUSH2 0x436A DUP3 DUP3 PUSH2 0x4260 JUMP JUMPDEST SWAP2 POP POP PUSH1 0x20 DUP4 ADD MLOAD DUP5 DUP3 SUB PUSH1 0x20 DUP7 ADD MSTORE PUSH2 0x4384 DUP3 DUP3 PUSH2 0x4260 JUMP JUMPDEST SWAP2 POP POP PUSH1 0x40 DUP4 ADD MLOAD DUP5 DUP3 SUB PUSH1 0x40 DUP7 ADD MSTORE PUSH2 0x439E DUP3 DUP3 PUSH2 0x4260 JUMP JUMPDEST SWAP2 POP POP PUSH1 0x60 DUP4 ADD MLOAD DUP5 DUP3 SUB PUSH1 0x60 DUP7 ADD MSTORE PUSH2 0x43B8 DUP3 DUP3 PUSH2 0x4260 JUMP JUMPDEST SWAP2 POP POP PUSH1 0x80 DUP4 ADD MLOAD DUP5 DUP3 SUB PUSH1 0x80 DUP7 ADD MSTORE PUSH2 0x43D2 DUP3 DUP3 PUSH2 0x4260 JUMP JUMPDEST SWAP2 POP POP PUSH1 0xA0 DUP4 ADD MLOAD DUP5 DUP3 SUB PUSH1 0xA0 DUP7 ADD MSTORE PUSH2 0x43EC DUP3 DUP3 PUSH2 0x4260 JUMP JUMPDEST SWAP2 POP POP DUP1 SWAP2 POP POP SWAP3 SWAP2 POP POP JUMP JUMPDEST PUSH0 PUSH2 0x4404 DUP4 DUP4 PUSH2 0x4350 JUMP JUMPDEST SWAP1 POP SWAP3 SWAP2 POP POP JUMP JUMPDEST PUSH0 PUSH1 0x20 DUP3 ADD SWAP1 POP SWAP2 SWAP1 POP JUMP JUMPDEST PUSH0 PUSH2 0x4422 DUP3 PUSH2 0x4327 JUMP JUMPDEST PUSH2 0x442C DUP2 DUP6 PUSH2 0x4331 JUMP JUMPDEST SWAP4 POP DUP4 PUSH1 0x20 DUP3 MUL DUP6 ADD PUSH2 0x443E DUP6 PUSH2 0x4341 JUMP JUMPDEST DUP1 PUSH0 JUMPDEST DUP6 DUP2 LT ISZERO PUSH2 0x4479 JUMPI DUP5 DUP5 SUB DUP10 MSTORE DUP2 MLOAD PUSH2 0x445A DUP6 DUP3 PUSH2 0x43F9 JUMP JUMPDEST SWAP5 POP PUSH2 0x4465 DUP4 PUSH2 0x440C JUMP JUMPDEST SWAP3 POP PUSH1 0x20 DUP11 ADD SWAP10 POP POP PUSH1 0x1 DUP2 ADD SWAP1 POP PUSH2 0x4441 JUMP JUMPDEST POP DUP3 SWAP8 POP DUP8 SWAP6 POP POP POP POP POP POP SWAP3 SWAP2 POP POP JUMP JUMPDEST PUSH0 DUP2 MLOAD SWAP1 POP SWAP2 SWAP1 POP JUMP JUMPDEST PUSH0 DUP3 DUP3 MSTORE PUSH1 0x20 DUP3 ADD SWAP1 POP SWAP3 SWAP2 POP POP JUMP JUMPDEST PUSH0 DUP2 SWAP1 POP PUSH1 0x20 DUP3 ADD SWAP1 POP SWAP2 SWAP1 POP JUMP JUMPDEST PUSH0 PUSH1 0xC0 DUP4 ADD PUSH0 DUP4 ADD MLOAD DUP5 DUP3 SUB PUSH0 DUP7 ADD MSTORE PUSH2 0x44CE DUP3 DUP3 PUSH2 0x4260 JUMP JUMPDEST SWAP2 POP POP PUSH1 0x20 DUP4 ADD MLOAD DUP5 DUP3 SUB PUSH1 0x20 DUP7 ADD MSTORE PUSH2 0x44E8 DUP3 DUP3 PUSH2 0x4260 JUMP JUMPDEST SWAP2 POP POP PUSH1 0x40 DUP4 ADD MLOAD DUP5 DUP3 SUB PUSH1 0x40 DUP7 ADD MSTORE PUSH2 0x4502 DUP3 DUP3 PUSH2 0x4260 JUMP JUMPDEST SWAP2 POP POP PUSH1 0x60 DUP4 ADD MLOAD DUP5 DUP3 SUB PUSH1 0x60 DUP7 ADD MSTORE PUSH2 0x451C DUP3 DUP3 PUSH2 0x4260 JUMP JUMPDEST SWAP2 POP POP PUSH1 0x80 DUP4 ADD MLOAD DUP5 DUP3 SUB PUSH1 0x80 DUP7 ADD MSTORE PUSH2 0x4536 DUP3 DUP3 PUSH2 0x4260 JUMP JUMPDEST SWAP2 POP POP PUSH1 0xA0 DUP4 ADD MLOAD DUP5 DUP3 SUB PUSH1 0xA0 DUP7 ADD MSTORE PUSH2 0x4550 DUP3 DUP3 PUSH2 0x4260 JUMP JUMPDEST SWAP2 POP POP DUP1 SWAP2 POP POP SWAP3 SWAP2 POP POP JUMP JUMPDEST PUSH0 PUSH2 0x4568 DUP4 DUP4 PUSH2 0x44B4 JUMP JUMPDEST SWAP1 POP SWAP3 SWAP2 POP POP JUMP JUMPDEST PUSH0 PUSH1 0x20 DUP3 ADD SWAP1 POP SWAP2 SWAP1 POP JUMP JUMPDEST PUSH0 PUSH2 0x4586 DUP3 PUSH2 0x448B JUMP JUMPDEST PUSH2 0x4590 DUP2 DUP6 PUSH2 0x4495 JUMP JUMPDEST SWAP4 POP DUP4 PUSH1 0x20 DUP3 MUL DUP6 ADD PUSH2 0x45A2 DUP6 PUSH2 0x44A5 JUMP JUMPDEST DUP1 PUSH0 JUMPDEST DUP6 DUP2 LT ISZERO PUSH2 0x45DD JUMPI DUP5 DUP5 SUB DUP10 MSTORE DUP2 MLOAD PUSH2 0x45BE DUP6 DUP3 PUSH2 0x455D JUMP JUMPDEST SWAP5 POP PUSH2 0x45C9 DUP4 PUSH2 0x4570 JUMP JUMPDEST SWAP3 POP PUSH1 0x20 DUP11 ADD SWAP10 POP POP PUSH1 0x1 DUP2 ADD SWAP1 POP PUSH2 0x45A5 JUMP JUMPDEST POP DUP3 SWAP8 POP DUP8 SWAP6 POP POP POP POP POP POP SWAP3 SWAP2 POP POP JUMP JUMPDEST PUSH0 PUSH1 0x60 DUP3 ADD SWAP1 POP DUP2 DUP2 SUB PUSH0 DUP4 ADD MSTORE PUSH2 0x4607 DUP2 DUP7 PUSH2 0x4298 JUMP JUMPDEST SWAP1 POP DUP2 DUP2 SUB PUSH1 0x20 DUP4 ADD MSTORE PUSH2 0x461B DUP2 DUP6 PUSH2 0x4418 JUMP JUMPDEST SWAP1 POP DUP2 DUP2 SUB PUSH1 0x40 DUP4 ADD MSTORE PUSH2 0x462F DUP2 DUP5 PUSH2 0x457C JUMP JUMPDEST SWAP1 POP SWAP5 SWAP4 POP POP POP POP JUMP JUMPDEST PUSH0 DUP1 PUSH0 PUSH1 0x60 DUP5 DUP7 SUB SLT ISZERO PUSH2 0x4650 JUMPI PUSH2 0x464F PUSH2 0x3D61 JUMP JUMPDEST JUMPDEST PUSH0 PUSH2 0x465D DUP7 DUP3 DUP8 ADD PUSH2 0x3F92 JUMP JUMPDEST SWAP4 POP POP PUSH1 0x20 PUSH2 0x466E DUP7 DUP3 DUP8 ADD PUSH2 0x3F92 JUMP JUMPDEST SWAP3 POP POP PUSH1 0x40 PUSH2 0x467F DUP7 DUP3 DUP8 ADD PUSH2 0x3EE5 JUMP JUMPDEST SWAP2 POP POP SWAP3 POP SWAP3 POP SWAP3 JUMP JUMPDEST PUSH0 PUSH1 0xC0 DUP4 ADD PUSH0 DUP4 ADD MLOAD DUP5 DUP3 SUB PUSH0 DUP7 ADD MSTORE PUSH2 0x46A3 DUP3 DUP3 PUSH2 0x4260 JUMP JUMPDEST SWAP2 POP POP PUSH1 0x20 DUP4 ADD MLOAD DUP5 DUP3 SUB PUSH1 0x20 DUP7 ADD MSTORE PUSH2 0x46BD DUP3 DUP3 PUSH2 0x4260 JUMP JUMPDEST SWAP2 POP POP PUSH1 0x40 DUP4 ADD MLOAD DUP5 DUP3 SUB PUSH1 0x40 DUP7 ADD MSTORE PUSH2 0x46D7 DUP3 DUP3 PUSH2 0x4260 JUMP JUMPDEST SWAP2 POP POP PUSH1 0x60 DUP4 ADD MLOAD DUP5 DUP3 SUB PUSH1 0x60 DUP7 ADD MSTORE PUSH2 0x46F1 DUP3 DUP3 PUSH2 0x4260 JUMP JUMPDEST SWAP2 POP POP PUSH1 0x80 DUP4 ADD MLOAD DUP5 DUP3 SUB PUSH1 0x80 DUP7 ADD MSTORE PUSH2 0x470B DUP3 DUP3 PUSH2 0x4260 JUMP JUMPDEST SWAP2 POP POP PUSH1 0xA0 DUP4 ADD MLOAD DUP5 DUP3 SUB PUSH1 0xA0 DUP7 ADD MSTORE PUSH2 0x4725 DUP3 DUP3 PUSH2 0x4260 JUMP JUMPDEST SWAP2 POP POP DUP1 SWAP2 POP POP SWAP3 SWAP2 POP POP JUMP JUMPDEST PUSH0 PUSH1 0x20 DUP3 ADD SWAP1 POP DUP2 DUP2 SUB PUSH0 DUP4 ADD MSTORE PUSH2 0x474A DUP2 DUP5 PUSH2 0x4689 JUMP JUMPDEST SWAP1 POP SWAP3 SWAP2 POP POP JUMP JUMPDEST PUSH2 0x475B DUP2 PUSH2 0x3EC6 JUMP JUMPDEST DUP3 MSTORE POP POP JUMP JUMPDEST PUSH0 PUSH1 0x20 DUP3 ADD SWAP1 POP PUSH2 0x4774 PUSH0 DUP4 ADD DUP5 PUSH2 0x4752 JUMP JUMPDEST SWAP3 SWAP2 POP POP JUMP JUMPDEST PUSH2 0x4783 DUP2 PUSH2 0x3DE9 JUMP JUMPDEST DUP2 EQ PUSH2 0x478D JUMPI PUSH0 DUP1 REVERT JUMPDEST POP JUMP JUMPDEST PUSH0 DUP2 CALLDATALOAD SWAP1 POP PUSH2 0x479E DUP2 PUSH2 0x477A JUMP JUMPDEST SWAP3 SWAP2 POP POP JUMP JUMPDEST PUSH0 DUP1 PUSH1 0x40 DUP4 DUP6 SUB SLT ISZERO PUSH2 0x47BA JUMPI PUSH2 0x47B9 PUSH2 0x3D61 JUMP JUMPDEST JUMPDEST PUSH0 PUSH2 0x47C7 DUP6 DUP3 DUP7 ADD PUSH2 0x3F92 JUMP JUMPDEST SWAP3 POP POP PUSH1 0x20 PUSH2 0x47D8 DUP6 DUP3 DUP7 ADD PUSH2 0x4790 JUMP JUMPDEST SWAP2 POP POP SWAP3 POP SWAP3 SWAP1 POP JUMP JUMPDEST PUSH0 DUP1 PUSH1 0x40 DUP4 DUP6 SUB SLT ISZERO PUSH2 0x47F8 JUMPI PUSH2 0x47F7 PUSH2 0x3D61 JUMP JUMPDEST JUMPDEST PUSH0 PUSH2 0x4805 DUP6 DUP3 DUP7 ADD PUSH2 0x3F92 JUMP JUMPDEST SWAP3 POP POP PUSH1 0x20 DUP4 ADD CALLDATALOAD PUSH8 0xFFFFFFFFFFFFFFFF DUP2 GT ISZERO PUSH2 0x4826 JUMPI PUSH2 0x4825 PUSH2 0x3D65 JUMP JUMPDEST JUMPDEST PUSH2 0x4832 DUP6 DUP3 DUP7 ADD PUSH2 0x40E3 JUMP JUMPDEST SWAP2 POP POP SWAP3 POP SWAP3 SWAP1 POP JUMP JUMPDEST PUSH0 DUP1 PUSH0 DUP1 PUSH0 PUSH1 0xA0 DUP7 DUP9 SUB SLT ISZERO PUSH2 0x4855 JUMPI PUSH2 0x4854 PUSH2 0x3D61 JUMP JUMPDEST JUMPDEST PUSH0 DUP7 ADD CALLDATALOAD PUSH8 0xFFFFFFFFFFFFFFFF DUP2 GT ISZERO PUSH2 0x4872 JUMPI PUSH2 0x4871 PUSH2 0x3D65 JUMP JUMPDEST JUMPDEST PUSH2 0x487E DUP9 DUP3 DUP10 ADD PUSH2 0x40E3 JUMP JUMPDEST SWAP6 POP POP PUSH1 0x20 DUP7 ADD CALLDATALOAD PUSH8 0xFFFFFFFFFFFFFFFF DUP2 GT ISZERO PUSH2 0x489F JUMPI PUSH2 0x489E PUSH2 0x3D65 JUMP JUMPDEST JUMPDEST PUSH2 0x48AB DUP9 DUP3 DUP10 ADD PUSH2 0x40E3 JUMP JUMPDEST SWAP5 POP POP PUSH1 0x40 DUP7 ADD CALLDATALOAD PUSH8 0xFFFFFFFFFFFFFFFF DUP2 GT ISZERO PUSH2 0x48CC JUMPI PUSH2 0x48CB PUSH2 0x3D65 JUMP JUMPDEST JUMPDEST PUSH2 0x48D8 DUP9 DUP3 DUP10 ADD PUSH2 0x40E3 JUMP JUMPDEST SWAP4 POP POP PUSH1 0x60 DUP7 ADD CALLDATALOAD PUSH8 0xFFFFFFFFFFFFFFFF DUP2 GT ISZERO PUSH2 0x48F9 JUMPI PUSH2 0x48F8 PUSH2 0x3D65 JUMP JUMPDEST JUMPDEST PUSH2 0x4905 DUP9 DUP3 DUP10 ADD PUSH2 0x40E3 JUMP JUMPDEST SWAP3 POP POP PUSH1 0x80 DUP7 ADD CALLDATALOAD PUSH8 0xFFFFFFFFFFFFFFFF DUP2 GT ISZERO PUSH2 0x4926 JUMPI PUSH2 0x4925 PUSH2 0x3D65 JUMP JUMPDEST JUMPDEST PUSH2 0x4932 DUP9 DUP3 DUP10 ADD PUSH2 0x40E3 JUMP JUMPDEST SWAP2 POP POP SWAP3 SWAP6 POP SWAP3 SWAP6 SWAP1 SWAP4 POP JUMP JUMPDEST PUSH0 PUSH8 0xFFFFFFFFFFFFFFFF DUP3 GT ISZERO PUSH2 0x4959 JUMPI PUSH2 0x4958 PUSH2 0x3FEC JUMP JUMPDEST JUMPDEST PUSH2 0x4962 DUP3 PUSH2 0x3E5E JUMP JUMPDEST SWAP1 POP PUSH1 0x20 DUP2 ADD SWAP1 POP SWAP2 SWAP1 POP JUMP JUMPDEST PUSH0 PUSH2 0x4981 PUSH2 0x497C DUP5 PUSH2 0x493F JUMP JUMPDEST PUSH2 0x404A JUMP JUMPDEST SWAP1 POP DUP3 DUP2 MSTORE PUSH1 0x20 DUP2 ADD DUP5 DUP5 DUP5 ADD GT ISZERO PUSH2 0x499D JUMPI PUSH2 0x499C PUSH2 0x3FE8 JUMP JUMPDEST JUMPDEST PUSH2 0x49A8 DUP5 DUP3 DUP6 PUSH2 0x4094 JUMP JUMPDEST POP SWAP4 SWAP3 POP POP POP JUMP JUMPDEST PUSH0 DUP3 PUSH1 0x1F DUP4 ADD SLT PUSH2 0x49C4 JUMPI PUSH2 0x49C3 PUSH2 0x3FE4 JUMP JUMPDEST JUMPDEST DUP2 CALLDATALOAD PUSH2 0x49D4 DUP5 DUP3 PUSH1 0x20 DUP7 ADD PUSH2 0x496F JUMP JUMPDEST SWAP2 POP POP SWAP3 SWAP2 POP POP JUMP JUMPDEST PUSH0 DUP1 PUSH0 DUP1 PUSH1 0x80 DUP6 DUP8 SUB SLT ISZERO PUSH2 0x49F5 JUMPI PUSH2 0x49F4 PUSH2 0x3D61 JUMP JUMPDEST JUMPDEST PUSH0 PUSH2 0x4A02 DUP8 DUP3 DUP9 ADD PUSH2 0x3F92 JUMP JUMPDEST SWAP5 POP POP PUSH1 0x20 PUSH2 0x4A13 DUP8 DUP3 DUP9 ADD PUSH2 0x3F92 JUMP JUMPDEST SWAP4 POP POP PUSH1 0x40 PUSH2 0x4A24 DUP8 DUP3 DUP9 ADD PUSH2 0x3EE5 JUMP JUMPDEST SWAP3 POP POP PUSH1 0x60 DUP6 ADD CALLDATALOAD PUSH8 0xFFFFFFFFFFFFFFFF DUP2 GT ISZERO PUSH2 0x4A45 JUMPI PUSH2 0x4A44 PUSH2 0x3D65 JUMP JUMPDEST JUMPDEST PUSH2 0x4A51 DUP8 DUP3 DUP9 ADD PUSH2 0x49B0 JUMP JUMPDEST SWAP2 POP POP SWAP3 SWAP6 SWAP2 SWAP5 POP SWAP3 POP JUMP JUMPDEST PUSH0 DUP1 PUSH1 0x40 DUP4 DUP6 SUB SLT ISZERO PUSH2 0x4A73 JUMPI PUSH2 0x4A72 PUSH2 0x3D61 JUMP JUMPDEST JUMPDEST PUSH0 PUSH2 0x4A80 DUP6 DUP3 DUP7 ADD PUSH2 0x3F92 JUMP JUMPDEST SWAP3 POP POP PUSH1 0x20 PUSH2 0x4A91 DUP6 DUP3 DUP7 ADD PUSH2 0x3F92 JUMP JUMPDEST SWAP2 POP POP SWAP3 POP SWAP3 SWAP1 POP JUMP JUMPDEST PUSH0 PUSH1 0xC0 DUP4 ADD PUSH0 DUP4 ADD MLOAD DUP5 DUP3 SUB PUSH0 DUP7 ADD MSTORE PUSH2 0x4AB5 DUP3 DUP3 PUSH2 0x4260 JUMP JUMPDEST SWAP2 POP POP PUSH1 0x20 DUP4 ADD MLOAD DUP5 DUP3 SUB PUSH1 0x20 DUP7 ADD MSTORE PUSH2 0x4ACF DUP3 DUP3 PUSH2 0x4260 JUMP JUMPDEST SWAP2 POP POP PUSH1 0x40 DUP4 ADD MLOAD DUP5 DUP3 SUB PUSH1 0x40 DUP7 ADD MSTORE PUSH2 0x4AE9 DUP3 DUP3 PUSH2 0x4260 JUMP JUMPDEST SWAP2 POP POP PUSH1 0x60 DUP4 ADD MLOAD DUP5 DUP3 SUB PUSH1 0x60 DUP7 ADD MSTORE PUSH2 0x4B03 DUP3 DUP3 PUSH2 0x4260 JUMP JUMPDEST SWAP2 POP POP PUSH1 0x80 DUP4 ADD MLOAD DUP5 DUP3 SUB PUSH1 0x80 DUP7 ADD MSTORE PUSH2 0x4B1D DUP3 DUP3 PUSH2 0x4260 JUMP JUMPDEST SWAP2 POP POP PUSH1 0xA0 DUP4 ADD MLOAD DUP5 DUP3 SUB PUSH1 0xA0 DUP7 ADD MSTORE PUSH2 0x4B37 DUP3 DUP3 PUSH2 0x4260 JUMP JUMPDEST SWAP2 POP POP DUP1 SWAP2 POP POP SWAP3 SWAP2 POP POP JUMP JUMPDEST PUSH0 PUSH1 0x20 DUP3 ADD SWAP1 POP DUP2 DUP2 SUB PUSH0 DUP4 ADD MSTORE PUSH2 0x4B5C DUP2 DUP5 PUSH2 0x4A9B JUMP JUMPDEST SWAP1 POP SWAP3 SWAP2 POP POP JUMP JUMPDEST PUSH32 0x4E487B7100000000000000000000000000000000000000000000000000000000 PUSH0 MSTORE PUSH1 0x22 PUSH1 0x4 MSTORE PUSH1 0x24 PUSH0 REVERT JUMPDEST PUSH0 PUSH1 0x2 DUP3 DIV SWAP1 POP PUSH1 0x1 DUP3 AND DUP1 PUSH2 0x4BA8 JUMPI PUSH1 0x7F DUP3 AND SWAP2 POP JUMPDEST PUSH1 0x20 DUP3 LT DUP2 SUB PUSH2 0x4BBB JUMPI PUSH2 0x4BBA PUSH2 0x4B64 JUMP JUMPDEST JUMPDEST POP SWAP2 SWAP1 POP JUMP JUMPDEST PUSH32 0x596F7520617265206E6F7420616E20617574686F72697A656420656D706C6F79 PUSH0 DUP3 ADD MSTORE PUSH32 0x6572000000000000000000000000000000000000000000000000000000000000 PUSH1 0x20 DUP3 ADD MSTORE POP JUMP JUMPDEST PUSH0 PUSH2 0x4C1B PUSH1 0x22 DUP4 PUSH2 0x3E26 JUMP JUMPDEST SWAP2 POP PUSH2 0x4C26 DUP3 PUSH2 0x4BC1 JUMP JUMPDEST PUSH1 0x40 DUP3 ADD SWAP1 POP SWAP2 SWAP1 POP JUMP JUMPDEST PUSH0 PUSH1 0x20 DUP3 ADD SWAP1 POP DUP2 DUP2 SUB PUSH0 DUP4 ADD MSTORE PUSH2 0x4C48 DUP2 PUSH2 0x4C0F JUMP JUMPDEST SWAP1 POP SWAP2 SWAP1 POP JUMP JUMPDEST PUSH32 0x496E76616C696420757365722061646472657373000000000000000000000000 PUSH0 DUP3 ADD MSTORE POP JUMP JUMPDEST PUSH0 PUSH2 0x4C83 PUSH1 0x14 DUP4 PUSH2 0x3E26 JUMP JUMPDEST SWAP2 POP PUSH2 0x4C8E DUP3 PUSH2 0x4C4F JUMP JUMPDEST PUSH1 0x20 DUP3 ADD SWAP1 POP SWAP2 SWAP1 POP JUMP JUMPDEST PUSH0 PUSH1 0x20 DUP3 ADD SWAP1 POP DUP2 DUP2 SUB PUSH0 DUP4 ADD MSTORE PUSH2 0x4CB0 DUP2 PUSH2 0x4C77 JUMP JUMPDEST SWAP1 POP SWAP2 SWAP1 POP JUMP JUMPDEST PUSH32 0x4E487B7100000000000000000000000000000000000000000000000000000000 PUSH0 MSTORE PUSH1 0x11 PUSH1 0x4 MSTORE PUSH1 0x24 PUSH0 REVERT JUMPDEST PUSH0 PUSH2 0x4CEE DUP3 PUSH2 0x3EC6 JUMP JUMPDEST SWAP2 POP PUSH32 0xFFFFFFFFFFFFFFFFFFFFFFFFFFFFFFFFFFFFFFFFFFFFFFFFFFFFFFFFFFFFFFFF DUP3 SUB PUSH2 0x4D20 JUMPI PUSH2 0x4D1F PUSH2 0x4CB7 JUMP JUMPDEST JUMPDEST PUSH1 0x1 DUP3 ADD SWAP1 POP SWAP2 SWAP1 POP JUMP JUMPDEST PUSH0 DUP2 SWAP1 POP DUP2 PUSH0 MSTORE PUSH1 0x20 PUSH0 KECCAK256 SWAP1 POP SWAP2 SWAP1 POP JUMP JUMPDEST PUSH0 PUSH1 0x20 PUSH1 0x1F DUP4 ADD DIV SWAP1 POP SWAP2 SWAP1 POP JUMP JUMPDEST PUSH0 DUP3 DUP3 SHL SWAP1 POP SWAP3 SWAP2 POP POP JUMP JUMPDEST PUSH0 PUSH1 0x8 DUP4 MUL PUSH2 0x4D87 PUSH32 0xFFFFFFFFFFFFFFFFFFFFFFFFFFFFFFFFFFFFFFFFFFFFFFFFFFFFFFFFFFFFFFFF DUP3 PUSH2 0x4D4C JUMP JUMPDEST PUSH2 0x4D91 DUP7 DUP4 PUSH2 0x4D4C JUMP JUMPDEST SWAP6 POP DUP1 NOT DUP5 AND SWAP4 POP DUP1 DUP7 AND DUP5 OR SWAP3 POP POP POP SWAP4 SWAP3 POP POP POP JUMP JUMPDEST PUSH0 DUP2 SWAP1 POP SWAP2 SWAP1 POP JUMP JUMPDEST PUSH0 PUSH2 0x4DCC PUSH2 0x4DC7 PUSH2 0x4DC2 DUP5 PUSH2 0x3EC6 JUMP JUMPDEST PUSH2 0x4DA9 JUMP JUMPDEST PUSH2 0x3EC6 JUMP JUMPDEST SWAP1 POP SWAP2 SWAP1 POP JUMP JUMPDEST PUSH0 DUP2 SWAP1 POP SWAP2 SWAP1 POP JUMP JUMPDEST PUSH2 0x4DE5 DUP4 PUSH2 0x4DB2 JUMP JUMPDEST PUSH2 0x4DF9 PUSH2 0x4DF1 DUP3 PUSH2 0x4DD3 JUMP JUMPDEST DUP5 DUP5 SLOAD PUSH2 0x4D58 JUMP JUMPDEST DUP3 SSTORE POP POP POP POP JUMP JUMPDEST PUSH0 SWAP1 JUMP JUMPDEST PUSH2 0x4E0D PUSH2 0x4E01 JUMP JUMPDEST PUSH2 0x4E18 DUP2 DUP5 DUP5 PUSH2 0x4DDC JUMP JUMPDEST POP POP POP JUMP JUMPDEST JUMPDEST DUP2 DUP2 LT ISZERO PUSH2 0x4E3B JUMPI PUSH2 0x4E30 PUSH0 DUP3 PUSH2 0x4E05 JUMP JUMPDEST PUSH1 0x1 DUP2 ADD SWAP1 POP PUSH2 0x4E1E JUMP JUMPDEST POP POP JUMP JUMPDEST PUSH1 0x1F DUP3 GT ISZERO PUSH2 0x4E80 JUMPI PUSH2 0x4E51 DUP2 PUSH2 0x4D2B JUMP JUMPDEST PUSH2 0x4E5A DUP5 PUSH2 0x4D3D JUMP JUMPDEST DUP2 ADD PUSH1 0x20 DUP6 LT ISZERO PUSH2 0x4E69 JUMPI DUP2 SWAP1 POP JUMPDEST PUSH2 0x4E7D PUSH2 0x4E75 DUP6 PUSH2 0x4D3D JUMP JUMPDEST DUP4 ADD DUP3 PUSH2 0x4E1D JUMP JUMPDEST POP POP JUMPDEST POP POP POP JUMP JUMPDEST PUSH0 DUP3 DUP3 SHR SWAP1 POP SWAP3 SWAP2 POP POP JUMP JUMPDEST PUSH0 PUSH2 0x4EA0 PUSH0 NOT DUP5 PUSH1 0x8 MUL PUSH2 0x4E85 JUMP JUMPDEST NOT DUP1 DUP4 AND SWAP2 POP POP SWAP3 SWAP2 POP POP JUMP JUMPDEST PUSH0 PUSH2 0x4EB8 DUP4 DUP4 PUSH2 0x4E91 JUMP JUMPDEST SWAP2 POP DUP3 PUSH1 0x2 MUL DUP3 OR SWAP1 POP SWAP3 SWAP2 POP POP JUMP JUMPDEST PUSH2 0x4ED1 DUP3 PUSH2 0x3E1C JUMP JUMPDEST PUSH8 0xFFFFFFFFFFFFFFFF DUP2 GT ISZERO PUSH2 0x4EEA JUMPI PUSH2 0x4EE9 PUSH2 0x3FEC JUMP JUMPDEST JUMPDEST PUSH2 0x4EF4 DUP3 SLOAD PUSH2 0x4B91 JUMP JUMPDEST PUSH2 0x4EFF DUP3 DUP3 DUP6 PUSH2 0x4E3F JUMP JUMPDEST PUSH0 PUSH1 0x20 SWAP1 POP PUSH1 0x1F DUP4 GT PUSH1 0x1 DUP2 EQ PUSH2 0x4F30 JUMPI PUSH0 DUP5 ISZERO PUSH2 0x4F1E JUMPI DUP3 DUP8 ADD MLOAD SWAP1 POP JUMPDEST PUSH2 0x4F28 DUP6 DUP3 PUSH2 0x4EAD JUMP JUMPDEST DUP7 SSTORE POP PUSH2 0x4F8F JUMP JUMPDEST PUSH1 0x1F NOT DUP5 AND PUSH2 0x4F3E DUP7 PUSH2 0x4D2B JUMP JUMPDEST PUSH0 JUMPDEST DUP3 DUP2 LT ISZERO PUSH2 0x4F65 JUMPI DUP5 DUP10 ADD MLOAD DUP3 SSTORE PUSH1 0x1 DUP3 ADD SWAP2 POP PUSH1 0x20 DUP6 ADD SWAP5 POP PUSH1 0x20 DUP2 ADD SWAP1 POP PUSH2 0x4F40 JUMP JUMPDEST DUP7 DUP4 LT ISZERO PUSH2 0x4F82 JUMPI DUP5 DUP10 ADD MLOAD PUSH2 0x4F7E PUSH1 0x1F DUP10 AND DUP3 PUSH2 0x4E91 JUMP JUMPDEST DUP4 SSTORE POP JUMPDEST PUSH1 0x1 PUSH1 0x2 DUP9 MUL ADD DUP9 SSTORE POP POP POP JUMPDEST POP POP POP POP POP POP JUMP JUMPDEST PUSH32 0x4E487B7100000000000000000000000000000000000000000000000000000000 PUSH0 MSTORE PUSH1 0x21 PUSH1 0x4 MSTORE PUSH1 0x24 PUSH0 REVERT JUMPDEST PUSH0 DUP2 SLOAD PUSH2 0x4FD0 DUP2 PUSH2 0x4B91 JUMP JUMPDEST PUSH2 0x4FDA DUP2 DUP7 PUSH2 0x3E26 JUMP JUMPDEST SWAP5 POP PUSH1 0x1 DUP3 AND PUSH0 DUP2 EQ PUSH2 0x4FF4 JUMPI PUSH1 0x1 DUP2 EQ PUSH2 0x500A JUMPI PUSH2 0x503C JUMP JUMPDEST PUSH1 0xFF NOT DUP4 AND DUP7 MSTORE DUP2 ISZERO ISZERO PUSH1 0x20 MUL DUP7 ADD SWAP4 POP PUSH2 0x503C JUMP JUMPDEST PUSH2 0x5013 DUP6 PUSH2 0x4D2B JUMP JUMPDEST PUSH0 JUMPDEST DUP4 DUP2 LT ISZERO PUSH2 0x5034 JUMPI DUP2 SLOAD DUP2 DUP10 ADD MSTORE PUSH1 0x1 DUP3 ADD SWAP2 POP PUSH1 0x20 DUP2 ADD SWAP1 POP PUSH2 0x5015 JUMP JUMPDEST DUP1 DUP9 ADD SWAP6 POP POP POP JUMPDEST POP POP POP SWAP3 SWAP2 POP POP JUMP JUMPDEST PUSH0 PUSH1 0x40 DUP3 ADD SWAP1 POP DUP2 DUP2 SUB PUSH0 DUP4 ADD MSTORE PUSH2 0x505D DUP2 DUP6 PUSH2 0x4FC4 JUMP JUMPDEST SWAP1 POP DUP2 DUP2 SUB PUSH1 0x20 DUP4 ADD MSTORE PUSH2 0x5071 DUP2 DUP5 PUSH2 0x3E6E JUMP JUMPDEST SWAP1 POP SWAP4 SWAP3 POP POP POP JUMP JUMPDEST PUSH32 0x4E487B7100000000000000000000000000000000000000000000000000000000 PUSH0 MSTORE PUSH1 0x32 PUSH1 0x4 MSTORE PUSH1 0x24 PUSH0 REVERT JUMPDEST PUSH0 PUSH1 0xFF DUP3 AND SWAP1 POP SWAP2 SWAP1 POP JUMP JUMPDEST PUSH0 PUSH2 0x50BD DUP3 PUSH2 0x50A7 JUMP JUMPDEST SWAP2 POP PUSH1 0xFF DUP3 SUB PUSH2 0x50D0 JUMPI PUSH2 0x50CF PUSH2 0x4CB7 JUMP JUMPDEST JUMPDEST PUSH1 0x1 DUP3 ADD SWAP1 POP SWAP2 SWAP1 POP JUMP JUMPDEST PUSH0 PUSH1 0x60 DUP3 ADD SWAP1 POP PUSH2 0x50EE PUSH0 DUP4 ADD DUP7 PUSH2 0x3F54 JUMP JUMPDEST PUSH2 0x50FB PUSH1 0x20 DUP4 ADD DUP6 PUSH2 0x4752 JUMP JUMPDEST PUSH2 0x5108 PUSH1 0x40 DUP4 ADD DUP5 PUSH2 0x3F54 JUMP JUMPDEST SWAP5 SWAP4 POP POP POP POP JUMP JUMPDEST PUSH32 0x576F726B20657870657269656E636520646F6573206E6F742065786973740000 PUSH0 DUP3 ADD MSTORE POP JUMP JUMPDEST PUSH0 PUSH2 0x5144 PUSH1 0x1E DUP4 PUSH2 0x3E26 JUMP JUMPDEST SWAP2 POP PUSH2 0x514F DUP3 PUSH2 0x5110 JUMP JUMPDEST PUSH1 0x20 DUP3 ADD SWAP1 POP SWAP2 SWAP1 POP JUMP JUMPDEST PUSH0 PUSH1 0x20 DUP3 ADD SWAP1 POP DUP2 DUP2 SUB PUSH0 DUP4 ADD MSTORE PUSH2 0x5171 DUP2 PUSH2 0x5138 JUMP JUMPDEST SWAP1 POP SWAP2 SWAP1 POP JUMP JUMPDEST PUSH0 PUSH1 0xA0 DUP3 ADD SWAP1 POP DUP2 DUP2 SUB PUSH0 DUP4 ADD MSTORE PUSH2 0x5190 DUP2 DUP9 PUSH2 0x3E6E JUMP JUMPDEST SWAP1 POP DUP2 DUP2 SUB PUSH1 0x20 DUP4 ADD MSTORE PUSH2 0x51A4 DUP2 DUP8 PUSH2 0x3E6E JUMP JUMPDEST SWAP1 POP DUP2 DUP2 SUB PUSH1 0x40 DUP4 ADD MSTORE PUSH2 0x51B8 DUP2 DUP7 PUSH2 0x3E6E JUMP JUMPDEST SWAP1 POP DUP2 DUP2 SUB PUSH1 0x60 DUP4 ADD MSTORE PUSH2 0x51CC DUP2 DUP6 PUSH2 0x3E6E JUMP JUMPDEST SWAP1 POP DUP2 DUP2 SUB PUSH1 0x80 DUP4 ADD MSTORE PUSH2 0x51E0 DUP2 DUP5 PUSH2 0x3E6E JUMP JUMPDEST SWAP1 POP SWAP7 SWAP6 POP POP POP POP POP POP JUMP JUMPDEST PUSH0 DUP2 SWAP1 POP SWAP3 SWAP2 POP POP JUMP JUMPDEST PUSH0 PUSH2 0x5200 DUP3 PUSH2 0x3E1C JUMP JUMPDEST PUSH2 0x520A DUP2 DUP6 PUSH2 0x51EC JUMP JUMPDEST SWAP4 POP PUSH2 0x521A DUP2 DUP6 PUSH1 0x20 DUP7 ADD PUSH2 0x3E36 JUMP JUMPDEST DUP1 DUP5 ADD SWAP2 POP POP SWAP3 SWAP2 POP POP JUMP JUMPDEST PUSH0 PUSH2 0x5231 DUP3 DUP6 PUSH2 0x51F6 JUMP JUMPDEST SWAP2 POP PUSH2 0x523D DUP3 DUP5 PUSH2 0x51F6 JUMP JUMPDEST SWAP2 POP DUP2 SWAP1 POP SWAP4 SWAP3 POP POP POP JUMP JUMPDEST PUSH32 0x596F7520617265206E6F7420616E20617574686F72697A656420756E69766572 PUSH0 DUP3 ADD MSTORE PUSH32 0x7369747900000000000000000000000000000000000000000000000000000000 PUSH1 0x20 DUP3 ADD MSTORE POP JUMP JUMPDEST PUSH0 PUSH2 0x52A3 PUSH1 0x24 DUP4 PUSH2 0x3E26 JUMP JUMPDEST SWAP2 POP PUSH2 0x52AE DUP3 PUSH2 0x5249 JUMP JUMPDEST PUSH1 0x40 DUP3 ADD SWAP1 POP SWAP2 SWAP1 POP JUMP JUMPDEST PUSH0 PUSH1 0x20 DUP3 ADD SWAP1 POP DUP2 DUP2 SUB PUSH0 DUP4 ADD MSTORE PUSH2 0x52D0 DUP2 PUSH2 0x5297 JUMP JUMPDEST SWAP1 POP SWAP2 SWAP1 POP JUMP JUMPDEST PUSH32 0x496E76616C69642073747564656E742061646472657373000000000000000000 PUSH0 DUP3 ADD MSTORE POP JUMP JUMPDEST PUSH0 PUSH2 0x530B PUSH1 0x17 DUP4 PUSH2 0x3E26 JUMP JUMPDEST SWAP2 POP PUSH2 0x5316 DUP3 PUSH2 0x52D7 JUMP JUMPDEST PUSH1 0x20 DUP3 ADD SWAP1 POP SWAP2 SWAP1 POP JUMP JUMPDEST PUSH0 PUSH1 0x20 DUP3 ADD SWAP1 POP DUP2 DUP2 SUB PUSH0 DUP4 ADD MSTORE PUSH2 0x5338 DUP2 PUSH2 0x52FF JUMP JUMPDEST SWAP1 POP SWAP2 SWAP1 POP JUMP JUMPDEST PUSH32 0x44656772656520646F6573206E6F742065786973740000000000000000000000 PUSH0 DUP3 ADD MSTORE POP JUMP JUMPDEST PUSH0 PUSH2 0x5373 PUSH1 0x15 DUP4 PUSH2 0x3E26 JUMP JUMPDEST SWAP2 POP PUSH2 0x537E DUP3 PUSH2 0x533F JUMP JUMPDEST PUSH1 0x20 DUP3 ADD SWAP1 POP SWAP2 SWAP1 POP JUMP JUMPDEST PUSH0 PUSH1 0x20 DUP3 ADD SWAP1 POP DUP2 DUP2 SUB PUSH0 DUP4 ADD MSTORE PUSH2 0x53A0 DUP2 PUSH2 0x5367 JUMP JUMPDEST SWAP1 POP SWAP2 SWAP1 POP JUMP JUMPDEST PUSH0 DUP2 MLOAD SWAP1 POP SWAP2 SWAP1 POP JUMP JUMPDEST PUSH0 DUP3 DUP3 MSTORE PUSH1 0x20 DUP3 ADD SWAP1 POP SWAP3 SWAP2 POP POP JUMP JUMPDEST PUSH0 PUSH2 0x53CB DUP3 PUSH2 0x53A7 JUMP JUMPDEST PUSH2 0x53D5 DUP2 DUP6 PUSH2 0x53B1 JUMP JUMPDEST SWAP4 POP PUSH2 0x53E5 DUP2 DUP6 PUSH1 0x20 DUP7 ADD PUSH2 0x3E36 JUMP JUMPDEST PUSH2 0x53EE DUP2 PUSH2 0x3E5E JUMP JUMPDEST DUP5 ADD SWAP2 POP POP SWAP3 SWAP2 POP POP JUMP JUMPDEST PUSH0 PUSH1 0x80 DUP3 ADD SWAP1 POP PUSH2 0x540C PUSH0 DUP4 ADD DUP8 PUSH2 0x3F54 JUMP JUMPDEST PUSH2 0x5419 PUSH1 0x20 DUP4 ADD DUP7 PUSH2 0x3F54 JUMP JUMPDEST PUSH2 0x5426 PUSH1 0x40 DUP4 ADD DUP6 PUSH2 0x4752 JUMP JUMPDEST DUP2 DUP2 SUB PUSH1 0x60 DUP4 ADD MSTORE PUSH2 0x5438 DUP2 DUP5 PUSH2 0x53C1 JUMP JUMPDEST SWAP1 POP SWAP6 SWAP5 POP POP POP POP POP JUMP JUMPDEST PUSH0 DUP2 MLOAD SWAP1 POP PUSH2 0x5451 DUP2 PUSH2 0x3D94 JUMP JUMPDEST SWAP3 SWAP2 POP POP JUMP JUMPDEST PUSH0 PUSH1 0x20 DUP3 DUP5 SUB SLT ISZERO PUSH2 0x546C JUMPI PUSH2 0x546B PUSH2 0x3D61 JUMP JUMPDEST JUMPDEST PUSH0 PUSH2 0x5479 DUP5 DUP3 DUP6 ADD PUSH2 0x5443 JUMP JUMPDEST SWAP2 POP POP SWAP3 SWAP2 POP POP JUMP JUMPDEST PUSH0 PUSH1 0x40 DUP3 ADD SWAP1 POP PUSH2 0x5495 PUSH0 DUP4 ADD DUP6 PUSH2 0x3F54 JUMP JUMPDEST PUSH2 0x54A2 PUSH1 0x20 DUP4 ADD DUP5 PUSH2 0x4752 JUMP JUMPDEST SWAP4 SWAP3 POP POP POP JUMP JUMPDEST PUSH32 0x4E487B7100000000000000000000000000000000000000000000000000000000 PUSH0 MSTORE PUSH1 0x12 PUSH1 0x4 MSTORE PUSH1 0x24 PUSH0 REVERT INVALID LOG2 PUSH5 0x6970667358 0x22 SLT KECCAK256 0xE0 EXP 0xCE EXTCODECOPY CALLDATACOPY 0xE8 JUMPI PUSH27 0x2EF5DC2A6EED6F521CA2478B249F797DCB14E853010170D564736F PUSH13 0x63430008140033000000000000 "
		},
		"gasEstimates": {
			"creation": {
				"codeDepositCost": "4354400",
				"executionCost": "infinite",
				"totalCost": "infinite"
			},
			"external": {
				"approve(address,uint256)": "infinite",
				"authorizeEmployer(address,string)": "infinite",
				"authorizeUniversity(address,string)": "infinite",
				"balanceOf(address)": "infinite",
				"getApproved(uint256)": "infinite",
				"getDegree(uint256)": "infinite",
				"getUserProfileAndNFTs(address)": "infinite",
				"getWorkExperience(uint256)": "infinite",
				"isApprovedForAll(address,address)": "infinite",
				"isAuthorizedEmployer(address)": "3062",
				"isAuthorizedUniversity(address)": "3041",
				"issueDegree(address,string,string,string,string,string)": "infinite",
				"issueWorkExperience(address,string,string,string,string,string)": "infinite",
				"name()": "infinite",
				"owner()": "2583",
				"ownerOf(uint256)": "infinite",
				"renounceOwnership()": "infinite",
				"revokeEmployer(address)": "infinite",
				"revokeUniversity(address)": "infinite",
				"safeTransferFrom(address,address,uint256)": "infinite",
				"safeTransferFrom(address,address,uint256,bytes)": "infinite",
				"setApprovalForAll(address,bool)": "infinite",
				"supportsInterface(bytes4)": "904",
				"symbol()": "infinite",
				"tokenURI(uint256)": "infinite",
				"transferFrom(address,address,uint256)": "infinite",
				"transferOwnership(address)": "infinite",
				"updateProfile(string,string,string,string,string)": "infinite"
			}
		},
		"methodIdentifiers": {
			"approve(address,uint256)": "095ea7b3",
			"authorizeEmployer(address,string)": "af33f3bd",
			"authorizeUniversity(address,string)": "d0397245",
			"balanceOf(address)": "70a08231",
			"getApproved(uint256)": "081812fc",
			"getDegree(uint256)": "f7928fb3",
			"getUserProfileAndNFTs(address)": "15dad91a",
			"getWorkExperience(uint256)": "3bd1fb94",
			"isApprovedForAll(address,address)": "e985e9c5",
			"isAuthorizedEmployer(address)": "6af4f601",
			"isAuthorizedUniversity(address)": "2e26376a",
			"issueDegree(address,string,string,string,string,string)": "f01365c4",
			"issueWorkExperience(address,string,string,string,string,string)": "0b7157bb",
			"name()": "06fdde03",
			"owner()": "8da5cb5b",
			"ownerOf(uint256)": "6352211e",
			"renounceOwnership()": "715018a6",
			"revokeEmployer(address)": "0fe258b4",
			"revokeUniversity(address)": "e4ee8755",
			"safeTransferFrom(address,address,uint256)": "42842e0e",
			"safeTransferFrom(address,address,uint256,bytes)": "b88d4fde",
			"setApprovalForAll(address,bool)": "a22cb465",
			"supportsInterface(bytes4)": "01ffc9a7",
			"symbol()": "95d89b41",
			"tokenURI(uint256)": "c87b56dd",
			"transferFrom(address,address,uint256)": "23b872dd",
			"transferOwnership(address)": "f2fde38b",
			"updateProfile(string,string,string,string,string)": "b043e032"
		}
	},
	"abi": [
		{
			"inputs": [],
			"stateMutability": "nonpayable",
			"type": "constructor"
		},
		{
			"inputs": [
				{
					"internalType": "address",
					"name": "sender",
					"type": "address"
				},
				{
					"internalType": "uint256",
					"name": "tokenId",
					"type": "uint256"
				},
				{
					"internalType": "address",
					"name": "owner",
					"type": "address"
				}
			],
			"name": "ERC721IncorrectOwner",
			"type": "error"
		},
		{
			"inputs": [
				{
					"internalType": "address",
					"name": "operator",
					"type": "address"
				},
				{
					"internalType": "uint256",
					"name": "tokenId",
					"type": "uint256"
				}
			],
			"name": "ERC721InsufficientApproval",
			"type": "error"
		},
		{
			"inputs": [
				{
					"internalType": "address",
					"name": "approver",
					"type": "address"
				}
			],
			"name": "ERC721InvalidApprover",
			"type": "error"
		},
		{
			"inputs": [
				{
					"internalType": "address",
					"name": "operator",
					"type": "address"
				}
			],
			"name": "ERC721InvalidOperator",
			"type": "error"
		},
		{
			"inputs": [
				{
					"internalType": "address",
					"name": "owner",
					"type": "address"
				}
			],
			"name": "ERC721InvalidOwner",
			"type": "error"
		},
		{
			"inputs": [
				{
					"internalType": "address",
					"name": "receiver",
					"type": "address"
				}
			],
			"name": "ERC721InvalidReceiver",
			"type": "error"
		},
		{
			"inputs": [
				{
					"internalType": "address",
					"name": "sender",
					"type": "address"
				}
			],
			"name": "ERC721InvalidSender",
			"type": "error"
		},
		{
			"inputs": [
				{
					"internalType": "uint256",
					"name": "tokenId",
					"type": "uint256"
				}
			],
			"name": "ERC721NonexistentToken",
			"type": "error"
		},
		{
			"inputs": [
				{
					"internalType": "address",
					"name": "owner",
					"type": "address"
				}
			],
			"name": "OwnableInvalidOwner",
			"type": "error"
		},
		{
			"inputs": [
				{
					"internalType": "address",
					"name": "account",
					"type": "address"
				}
			],
			"name": "OwnableUnauthorizedAccount",
			"type": "error"
		},
		{
			"anonymous": false,
			"inputs": [
				{
					"indexed": true,
					"internalType": "address",
					"name": "owner",
					"type": "address"
				},
				{
					"indexed": true,
					"internalType": "address",
					"name": "approved",
					"type": "address"
				},
				{
					"indexed": true,
					"internalType": "uint256",
					"name": "tokenId",
					"type": "uint256"
				}
			],
			"name": "Approval",
			"type": "event"
		},
		{
			"anonymous": false,
			"inputs": [
				{
					"indexed": true,
					"internalType": "address",
					"name": "owner",
					"type": "address"
				},
				{
					"indexed": true,
					"internalType": "address",
					"name": "operator",
					"type": "address"
				},
				{
					"indexed": false,
					"internalType": "bool",
					"name": "approved",
					"type": "bool"
				}
			],
			"name": "ApprovalForAll",
			"type": "event"
		},
		{
			"anonymous": false,
			"inputs": [
				{
					"indexed": false,
					"internalType": "uint256",
					"name": "_fromTokenId",
					"type": "uint256"
				},
				{
					"indexed": false,
					"internalType": "uint256",
					"name": "_toTokenId",
					"type": "uint256"
				}
			],
			"name": "BatchMetadataUpdate",
			"type": "event"
		},
		{
			"anonymous": false,
			"inputs": [
				{
					"indexed": true,
					"internalType": "uint256",
					"name": "tokenId",
					"type": "uint256"
				},
				{
					"indexed": true,
					"internalType": "address",
					"name": "student",
					"type": "address"
				},
				{
					"indexed": true,
					"internalType": "address",
					"name": "university",
					"type": "address"
				},
				{
					"indexed": false,
					"internalType": "string",
					"name": "degreeName",
					"type": "string"
				}
			],
			"name": "DegreeIssued",
			"type": "event"
		},
		{
			"anonymous": false,
			"inputs": [
				{
					"indexed": false,
					"internalType": "uint256",
					"name": "_tokenId",
					"type": "uint256"
				}
			],
			"name": "MetadataUpdate",
			"type": "event"
		},
		{
			"anonymous": false,
			"inputs": [
				{
					"indexed": true,
					"internalType": "address",
					"name": "previousOwner",
					"type": "address"
				},
				{
					"indexed": true,
					"internalType": "address",
					"name": "newOwner",
					"type": "address"
				}
			],
			"name": "OwnershipTransferred",
			"type": "event"
		},
		{
			"anonymous": false,
			"inputs": [
				{
					"indexed": true,
					"internalType": "address",
					"name": "user",
					"type": "address"
				},
				{
					"indexed": false,
					"internalType": "string",
					"name": "name",
					"type": "string"
				},
				{
					"indexed": false,
					"internalType": "string",
					"name": "skills",
					"type": "string"
				},
				{
					"indexed": false,
					"internalType": "string",
					"name": "strengths",
					"type": "string"
				},
				{
					"indexed": false,
					"internalType": "string",
					"name": "selfIntroduction",
					"type": "string"
				},
				{
					"indexed": false,
					"internalType": "string",
					"name": "additionalInfo",
					"type": "string"
				}
			],
			"name": "ProfileUpdated",
			"type": "event"
		},
		{
			"anonymous": false,
			"inputs": [
				{
					"indexed": true,
					"internalType": "address",
					"name": "from",
					"type": "address"
				},
				{
					"indexed": true,
					"internalType": "address",
					"name": "to",
					"type": "address"
				},
				{
					"indexed": true,
					"internalType": "uint256",
					"name": "tokenId",
					"type": "uint256"
				}
			],
			"name": "Transfer",
			"type": "event"
		},
		{
			"anonymous": false,
			"inputs": [
				{
					"indexed": true,
					"internalType": "uint256",
					"name": "tokenId",
					"type": "uint256"
				},
				{
					"indexed": true,
					"internalType": "address",
					"name": "user",
					"type": "address"
				},
				{
					"indexed": true,
					"internalType": "address",
					"name": "employer",
					"type": "address"
				},
				{
					"indexed": false,
					"internalType": "string",
					"name": "companyName",
					"type": "string"
				},
				{
					"indexed": false,
					"internalType": "string",
					"name": "role",
					"type": "string"
				}
			],
			"name": "WorkExperienceIssued",
			"type": "event"
		},
		{
			"inputs": [
				{
					"internalType": "address",
					"name": "to",
					"type": "address"
				},
				{
					"internalType": "uint256",
					"name": "tokenId",
					"type": "uint256"
				}
			],
			"name": "approve",
			"outputs": [],
			"stateMutability": "nonpayable",
			"type": "function"
		},
		{
			"inputs": [
				{
					"internalType": "address",
					"name": "employer",
					"type": "address"
				},
				{
					"internalType": "string",
					"name": "name",
					"type": "string"
				}
			],
			"name": "authorizeEmployer",
			"outputs": [],
			"stateMutability": "nonpayable",
			"type": "function"
		},
		{
			"inputs": [
				{
					"internalType": "address",
					"name": "university",
					"type": "address"
				},
				{
					"internalType": "string",
					"name": "name",
					"type": "string"
				}
			],
			"name": "authorizeUniversity",
			"outputs": [],
			"stateMutability": "nonpayable",
			"type": "function"
		},
		{
			"inputs": [
				{
					"internalType": "address",
					"name": "owner",
					"type": "address"
				}
			],
			"name": "balanceOf",
			"outputs": [
				{
					"internalType": "uint256",
					"name": "",
					"type": "uint256"
				}
			],
			"stateMutability": "view",
			"type": "function"
		},
		{
			"inputs": [
				{
					"internalType": "uint256",
					"name": "tokenId",
					"type": "uint256"
				}
			],
			"name": "getApproved",
			"outputs": [
				{
					"internalType": "address",
					"name": "",
					"type": "address"
				}
			],
			"stateMutability": "view",
			"type": "function"
		},
		{
			"inputs": [
				{
					"internalType": "uint256",
					"name": "tokenId",
					"type": "uint256"
				}
			],
			"name": "getDegree",
			"outputs": [
				{
					"components": [
						{
							"internalType": "string",
							"name": "studentName",
							"type": "string"
						},
						{
							"internalType": "string",
							"name": "studentID",
							"type": "string"
						},
						{
							"internalType": "string",
							"name": "universityName",
							"type": "string"
						},
						{
							"internalType": "string",
							"name": "degreeName",
							"type": "string"
						},
						{
							"internalType": "string",
							"name": "major",
							"type": "string"
						},
						{
							"internalType": "string",
							"name": "issueDate",
							"type": "string"
						}
					],
					"internalType": "struct UserRecords.Degree",
					"name": "",
					"type": "tuple"
				}
			],
			"stateMutability": "view",
			"type": "function"
		},
		{
			"inputs": [
				{
					"internalType": "address",
					"name": "user",
					"type": "address"
				}
			],
			"name": "getUserProfileAndNFTs",
			"outputs": [
				{
					"components": [
						{
							"internalType": "string",
							"name": "name",
							"type": "string"
						},
						{
							"internalType": "string",
							"name": "skills",
							"type": "string"
						},
						{
							"internalType": "string",
							"name": "strengths",
							"type": "string"
						},
						{
							"internalType": "string",
							"name": "selfIntroduction",
							"type": "string"
						},
						{
							"internalType": "string",
							"name": "additionalInfo",
							"type": "string"
						}
					],
					"internalType": "struct UserRecords.UserProfile",
					"name": "profile",
					"type": "tuple"
				},
				{
					"components": [
						{
							"internalType": "string",
							"name": "studentName",
							"type": "string"
						},
						{
							"internalType": "string",
							"name": "studentID",
							"type": "string"
						},
						{
							"internalType": "string",
							"name": "universityName",
							"type": "string"
						},
						{
							"internalType": "string",
							"name": "degreeName",
							"type": "string"
						},
						{
							"internalType": "string",
							"name": "major",
							"type": "string"
						},
						{
							"internalType": "string",
							"name": "issueDate",
							"type": "string"
						}
					],
					"internalType": "struct UserRecords.Degree[]",
					"name": "degreesOwned",
					"type": "tuple[]"
				},
				{
					"components": [
						{
							"internalType": "string",
							"name": "userName",
							"type": "string"
						},
						{
							"internalType": "string",
							"name": "companyName",
							"type": "string"
						},
						{
							"internalType": "string",
							"name": "role",
							"type": "string"
						},
						{
							"internalType": "string",
							"name": "startDate",
							"type": "string"
						},
						{
							"internalType": "string",
							"name": "endDate",
							"type": "string"
						},
						{
							"internalType": "string",
							"name": "employerComments",
							"type": "string"
						}
					],
					"internalType": "struct UserRecords.WorkExperience[]",
					"name": "experiencesOwned",
					"type": "tuple[]"
				}
			],
			"stateMutability": "view",
			"type": "function"
		},
		{
			"inputs": [
				{
					"internalType": "uint256",
					"name": "tokenId",
					"type": "uint256"
				}
			],
			"name": "getWorkExperience",
			"outputs": [
				{
					"components": [
						{
							"internalType": "string",
							"name": "userName",
							"type": "string"
						},
						{
							"internalType": "string",
							"name": "companyName",
							"type": "string"
						},
						{
							"internalType": "string",
							"name": "role",
							"type": "string"
						},
						{
							"internalType": "string",
							"name": "startDate",
							"type": "string"
						},
						{
							"internalType": "string",
							"name": "endDate",
							"type": "string"
						},
						{
							"internalType": "string",
							"name": "employerComments",
							"type": "string"
						}
					],
					"internalType": "struct UserRecords.WorkExperience",
					"name": "",
					"type": "tuple"
				}
			],
			"stateMutability": "view",
			"type": "function"
		},
		{
			"inputs": [
				{
					"internalType": "address",
					"name": "owner",
					"type": "address"
				},
				{
					"internalType": "address",
					"name": "operator",
					"type": "address"
				}
			],
			"name": "isApprovedForAll",
			"outputs": [
				{
					"internalType": "bool",
					"name": "",
					"type": "bool"
				}
			],
			"stateMutability": "view",
			"type": "function"
		},
		{
			"inputs": [
				{
					"internalType": "address",
					"name": "employer",
					"type": "address"
				}
			],
			"name": "isAuthorizedEmployer",
			"outputs": [
				{
					"internalType": "bool",
					"name": "",
					"type": "bool"
				}
			],
			"stateMutability": "view",
			"type": "function"
		},
		{
			"inputs": [
				{
					"internalType": "address",
					"name": "university",
					"type": "address"
				}
			],
			"name": "isAuthorizedUniversity",
			"outputs": [
				{
					"internalType": "bool",
					"name": "",
					"type": "bool"
				}
			],
			"stateMutability": "view",
			"type": "function"
		},
		{
			"inputs": [
				{
					"internalType": "address",
					"name": "student",
					"type": "address"
				},
				{
					"internalType": "string",
					"name": "studentName",
					"type": "string"
				},
				{
					"internalType": "string",
					"name": "studentID",
					"type": "string"
				},
				{
					"internalType": "string",
					"name": "degreeName",
					"type": "string"
				},
				{
					"internalType": "string",
					"name": "major",
					"type": "string"
				},
				{
					"internalType": "string",
					"name": "issueDate",
					"type": "string"
				}
			],
			"name": "issueDegree",
			"outputs": [],
			"stateMutability": "nonpayable",
			"type": "function"
		},
		{
			"inputs": [
				{
					"internalType": "address",
					"name": "user",
					"type": "address"
				},
				{
					"internalType": "string",
					"name": "userName",
					"type": "string"
				},
				{
					"internalType": "string",
					"name": "role",
					"type": "string"
				},
				{
					"internalType": "string",
					"name": "startDate",
					"type": "string"
				},
				{
					"internalType": "string",
					"name": "endDate",
					"type": "string"
				},
				{
					"internalType": "string",
					"name": "employerComments",
					"type": "string"
				}
			],
			"name": "issueWorkExperience",
			"outputs": [],
			"stateMutability": "nonpayable",
			"type": "function"
		},
		{
			"inputs": [],
			"name": "name",
			"outputs": [
				{
					"internalType": "string",
					"name": "",
					"type": "string"
				}
			],
			"stateMutability": "view",
			"type": "function"
		},
		{
			"inputs": [],
			"name": "owner",
			"outputs": [
				{
					"internalType": "address",
					"name": "",
					"type": "address"
				}
			],
			"stateMutability": "view",
			"type": "function"
		},
		{
			"inputs": [
				{
					"internalType": "uint256",
					"name": "tokenId",
					"type": "uint256"
				}
			],
			"name": "ownerOf",
			"outputs": [
				{
					"internalType": "address",
					"name": "",
					"type": "address"
				}
			],
			"stateMutability": "view",
			"type": "function"
		},
		{
			"inputs": [],
			"name": "renounceOwnership",
			"outputs": [],
			"stateMutability": "nonpayable",
			"type": "function"
		},
		{
			"inputs": [
				{
					"internalType": "address",
					"name": "employer",
					"type": "address"
				}
			],
			"name": "revokeEmployer",
			"outputs": [],
			"stateMutability": "nonpayable",
			"type": "function"
		},
		{
			"inputs": [
				{
					"internalType": "address",
					"name": "university",
					"type": "address"
				}
			],
			"name": "revokeUniversity",
			"outputs": [],
			"stateMutability": "nonpayable",
			"type": "function"
		},
		{
			"inputs": [
				{
					"internalType": "address",
					"name": "from",
					"type": "address"
				},
				{
					"internalType": "address",
					"name": "to",
					"type": "address"
				},
				{
					"internalType": "uint256",
					"name": "tokenId",
					"type": "uint256"
				}
			],
			"name": "safeTransferFrom",
			"outputs": [],
			"stateMutability": "nonpayable",
			"type": "function"
		},
		{
			"inputs": [
				{
					"internalType": "address",
					"name": "from",
					"type": "address"
				},
				{
					"internalType": "address",
					"name": "to",
					"type": "address"
				},
				{
					"internalType": "uint256",
					"name": "tokenId",
					"type": "uint256"
				},
				{
					"internalType": "bytes",
					"name": "data",
					"type": "bytes"
				}
			],
			"name": "safeTransferFrom",
			"outputs": [],
			"stateMutability": "nonpayable",
			"type": "function"
		},
		{
			"inputs": [
				{
					"internalType": "address",
					"name": "operator",
					"type": "address"
				},
				{
					"internalType": "bool",
					"name": "approved",
					"type": "bool"
				}
			],
			"name": "setApprovalForAll",
			"outputs": [],
			"stateMutability": "nonpayable",
			"type": "function"
		},
		{
			"inputs": [
				{
					"internalType": "bytes4",
					"name": "interfaceId",
					"type": "bytes4"
				}
			],
			"name": "supportsInterface",
			"outputs": [
				{
					"internalType": "bool",
					"name": "",
					"type": "bool"
				}
			],
			"stateMutability": "view",
			"type": "function"
		},
		{
			"inputs": [],
			"name": "symbol",
			"outputs": [
				{
					"internalType": "string",
					"name": "",
					"type": "string"
				}
			],
			"stateMutability": "view",
			"type": "function"
		},
		{
			"inputs": [
				{
					"internalType": "uint256",
					"name": "tokenId",
					"type": "uint256"
				}
			],
			"name": "tokenURI",
			"outputs": [
				{
					"internalType": "string",
					"name": "",
					"type": "string"
				}
			],
			"stateMutability": "view",
			"type": "function"
		},
		{
			"inputs": [
				{
					"internalType": "address",
					"name": "from",
					"type": "address"
				},
				{
					"internalType": "address",
					"name": "to",
					"type": "address"
				},
				{
					"internalType": "uint256",
					"name": "tokenId",
					"type": "uint256"
				}
			],
			"name": "transferFrom",
			"outputs": [],
			"stateMutability": "nonpayable",
			"type": "function"
		},
		{
			"inputs": [
				{
					"internalType": "address",
					"name": "newOwner",
					"type": "address"
				}
			],
			"name": "transferOwnership",
			"outputs": [],
			"stateMutability": "nonpayable",
			"type": "function"
		},
		{
			"inputs": [
				{
					"internalType": "string",
					"name": "name",
					"type": "string"
				},
				{
					"internalType": "string",
					"name": "skills",
					"type": "string"
				},
				{
					"internalType": "string",
					"name": "strengths",
					"type": "string"
				},
				{
					"internalType": "string",
					"name": "selfIntroduction",
					"type": "string"
				},
				{
					"internalType": "string",
					"name": "additionalInfo",
					"type": "string"
				}
			],
			"name": "updateProfile",
			"outputs": [],
			"stateMutability": "nonpayable",
			"type": "function"
		}
	]
}